{
  "contractName": "BookToken",
  "abi": [
    {
      "anonymous": false,
      "inputs": [
        {
          "indexed": true,
          "internalType": "address",
          "name": "owner",
          "type": "address"
        },
        {
          "indexed": true,
          "internalType": "address",
          "name": "approved",
          "type": "address"
        },
        {
          "indexed": true,
          "internalType": "uint256",
          "name": "tokenId",
          "type": "uint256"
        }
      ],
      "name": "Approval",
      "type": "event"
    },
    {
      "anonymous": false,
      "inputs": [
        {
          "indexed": true,
          "internalType": "address",
          "name": "owner",
          "type": "address"
        },
        {
          "indexed": true,
          "internalType": "address",
          "name": "operator",
          "type": "address"
        },
        {
          "indexed": false,
          "internalType": "bool",
          "name": "approved",
          "type": "bool"
        }
      ],
      "name": "ApprovalForAll",
      "type": "event"
    },
    {
      "anonymous": false,
      "inputs": [
        {
          "indexed": true,
          "internalType": "address",
          "name": "from",
          "type": "address"
        },
        {
          "indexed": true,
          "internalType": "address",
          "name": "to",
          "type": "address"
        },
        {
          "indexed": true,
          "internalType": "uint256",
          "name": "tokenId",
          "type": "uint256"
        }
      ],
      "name": "Transfer",
      "type": "event"
    },
    {
      "constant": false,
      "inputs": [
        {
          "internalType": "address",
          "name": "to",
          "type": "address"
        },
        {
          "internalType": "uint256",
          "name": "tokenId",
          "type": "uint256"
        }
      ],
      "name": "approve",
      "outputs": [],
      "payable": false,
      "stateMutability": "nonpayable",
      "type": "function"
    },
    {
      "constant": true,
      "inputs": [
        {
          "internalType": "address",
          "name": "owner",
          "type": "address"
        }
      ],
      "name": "balanceOf",
      "outputs": [
        {
          "internalType": "uint256",
          "name": "",
          "type": "uint256"
        }
      ],
      "payable": false,
      "stateMutability": "view",
      "type": "function"
    },
    {
      "constant": true,
      "inputs": [],
      "name": "book",
      "outputs": [
        {
          "internalType": "address",
          "name": "",
          "type": "address"
        }
      ],
      "payable": false,
      "stateMutability": "view",
      "type": "function"
    },
    {
      "constant": true,
      "inputs": [
        {
          "internalType": "uint256",
          "name": "tokenId",
          "type": "uint256"
        }
      ],
      "name": "getApproved",
      "outputs": [
        {
          "internalType": "address",
          "name": "",
          "type": "address"
        }
      ],
      "payable": false,
      "stateMutability": "view",
      "type": "function"
    },
    {
      "constant": true,
      "inputs": [
        {
          "internalType": "address",
          "name": "owner",
          "type": "address"
        },
        {
          "internalType": "address",
          "name": "operator",
          "type": "address"
        }
      ],
      "name": "isApprovedForAll",
      "outputs": [
        {
          "internalType": "bool",
          "name": "",
          "type": "bool"
        }
      ],
      "payable": false,
      "stateMutability": "view",
      "type": "function"
    },
    {
      "constant": true,
      "inputs": [],
      "name": "isBookSet",
      "outputs": [
        {
          "internalType": "bool",
          "name": "",
          "type": "bool"
        }
      ],
      "payable": false,
      "stateMutability": "view",
      "type": "function"
    },
    {
      "constant": true,
      "inputs": [
        {
          "internalType": "uint256",
          "name": "tokenId",
          "type": "uint256"
        }
      ],
      "name": "ownerOf",
      "outputs": [
        {
          "internalType": "address",
          "name": "",
          "type": "address"
        }
      ],
      "payable": false,
      "stateMutability": "view",
      "type": "function"
    },
    {
      "constant": true,
      "inputs": [],
      "name": "runtimeId",
      "outputs": [
        {
          "internalType": "bytes4",
          "name": "",
          "type": "bytes4"
        }
      ],
      "payable": false,
      "stateMutability": "pure",
      "type": "function"
    },
    {
      "constant": false,
      "inputs": [
        {
          "internalType": "address",
          "name": "from",
          "type": "address"
        },
        {
          "internalType": "address",
          "name": "to",
          "type": "address"
        },
        {
          "internalType": "uint256",
          "name": "tokenId",
          "type": "uint256"
        }
      ],
      "name": "safeTransferFrom",
      "outputs": [],
      "payable": false,
      "stateMutability": "nonpayable",
      "type": "function"
    },
    {
      "constant": false,
      "inputs": [
        {
          "internalType": "address",
          "name": "from",
          "type": "address"
        },
        {
          "internalType": "address",
          "name": "to",
          "type": "address"
        },
        {
          "internalType": "uint256",
          "name": "tokenId",
          "type": "uint256"
        },
        {
          "internalType": "bytes",
          "name": "_data",
          "type": "bytes"
        }
      ],
      "name": "safeTransferFromWithData",
      "outputs": [],
      "payable": false,
      "stateMutability": "nonpayable",
      "type": "function"
    },
    {
      "constant": false,
      "inputs": [
        {
          "internalType": "address",
          "name": "to",
          "type": "address"
        },
        {
          "internalType": "bool",
          "name": "approved",
          "type": "bool"
        }
      ],
      "name": "setApprovalForAll",
      "outputs": [],
      "payable": false,
      "stateMutability": "nonpayable",
      "type": "function"
    },
    {
      "constant": true,
      "inputs": [
        {
          "internalType": "bytes4",
          "name": "interfaceId",
          "type": "bytes4"
        }
      ],
      "name": "supportsInterface",
      "outputs": [
        {
          "internalType": "bool",
          "name": "",
          "type": "bool"
        }
      ],
      "payable": false,
      "stateMutability": "view",
      "type": "function"
    },
    {
      "constant": false,
      "inputs": [
        {
          "internalType": "address",
          "name": "from",
          "type": "address"
        },
        {
          "internalType": "address",
          "name": "to",
          "type": "address"
        },
        {
          "internalType": "uint256",
          "name": "tokenId",
          "type": "uint256"
        }
      ],
      "name": "transferFrom",
      "outputs": [],
      "payable": false,
      "stateMutability": "nonpayable",
      "type": "function"
    },
    {
      "constant": false,
      "inputs": [
        {
          "internalType": "address",
          "name": "_to",
          "type": "address"
        },
        {
          "internalType": "uint256",
          "name": "_tokenId",
          "type": "uint256"
        }
      ],
      "name": "mint",
      "outputs": [],
      "payable": false,
      "stateMutability": "nonpayable",
      "type": "function"
    },
    {
      "constant": false,
      "inputs": [
        {
          "internalType": "address",
          "name": "_book",
          "type": "address"
        }
      ],
      "name": "setBook",
      "outputs": [],
      "payable": false,
      "stateMutability": "nonpayable",
      "type": "function"
    }
  ],
  "bytecode": "0x608060405261001261008360201b60201c565b600560006101000a81548163ffffffff021916908360e01c02179055506000600560186101000a81548160ff0219169083151502179055506100606301ffc9a760e01b6100da60201b60201c565b61007e600560009054906101000a900460e01b6100da60201b60201c565b610179565b60006360a1167260e01b6342842e0e60e01b6323b872dd60e01b63e985e9c560e01b63a22cb46560e01b63081812fc60e01b63095ea7b360e01b636352211e60e01b6370a0823160e01b1818181818181818905090565b63ffffffff60e01b817bffffffffffffffffffffffffffffffffffffffffffffffffffffffff1916141561010d57600080fd5b6001600080837bffffffffffffffffffffffffffffffffffffffffffffffffffffffff19167bffffffffffffffffffffffffffffffffffffffffffffffffffffffff1916815260200190815260200160002060006101000a81548160ff02191690831515021790555050565b611684806101886000396000f3fe608060405234801561001057600080fd5b50600436106100f55760003560e01c806342842e0e1161009757806370a082311161006657806370a08231146105a2578063a22cb465146105fa578063ae3393c41461064a578063e985e9c51461066c576100f5565b806342842e0e146103655780635e2ec258146103d357806360a116721461042f5780636352211e14610534576100f5565b8063095ea7b3116100d3578063095ea7b31461021757806323b872dd14610265578063269fb70a146102d357806340c10f1914610317576100f5565b806301ffc9a7146100fa57806305a8da721461015f578063081812fc146101a9575b600080fd5b6101456004803603602081101561011057600080fd5b8101908080357bffffffffffffffffffffffffffffffffffffffffffffffffffffffff191690602001909291905050506106e8565b604051808215151515815260200191505060405180910390f35b61016761074f565b604051808273ffffffffffffffffffffffffffffffffffffffff1673ffffffffffffffffffffffffffffffffffffffff16815260200191505060405180910390f35b6101d5600480360360208110156101bf57600080fd5b8101908080359060200190929190505050610775565b604051808273ffffffffffffffffffffffffffffffffffffffff1673ffffffffffffffffffffffffffffffffffffffff16815260200191505060405180910390f35b6102636004803603604081101561022d57600080fd5b81019080803573ffffffffffffffffffffffffffffffffffffffff169060200190929190803590602001909291905050506107c4565b005b6102d16004803603606081101561027b57600080fd5b81019080803573ffffffffffffffffffffffffffffffffffffffff169060200190929190803573ffffffffffffffffffffffffffffffffffffffff16906020019092919080359060200190929190505050610905565b005b610315600480360360208110156102e957600080fd5b81019080803573ffffffffffffffffffffffffffffffffffffffff169060200190929190505050610928565b005b6103636004803603604081101561032d57600080fd5b81019080803573ffffffffffffffffffffffffffffffffffffffff16906020019092919080359060200190929190505050610a90565b005b6103d16004803603606081101561037b57600080fd5b81019080803573ffffffffffffffffffffffffffffffffffffffff169060200190929190803573ffffffffffffffffffffffffffffffffffffffff16906020019092919080359060200190929190505050610b44565b005b6103db610b64565b60405180827bffffffffffffffffffffffffffffffffffffffffffffffffffffffff19167bffffffffffffffffffffffffffffffffffffffffffffffffffffffff1916815260200191505060405180910390f35b6105326004803603608081101561044557600080fd5b81019080803573ffffffffffffffffffffffffffffffffffffffff169060200190929190803573ffffffffffffffffffffffffffffffffffffffff16906020019092919080359060200190929190803590602001906401000000008111156104ac57600080fd5b8201836020820111156104be57600080fd5b803590602001918460018302840111640100000000831117156104e057600080fd5b91908080601f016020809104026020016040519081016040528093929190818152602001838380828437600081840152601f19601f820116905080830192505050505050509192919290505050610bbb565b005b6105606004803603602081101561054a57600080fd5b8101908080359060200190929190505050610be1565b604051808273ffffffffffffffffffffffffffffffffffffffff1673ffffffffffffffffffffffffffffffffffffffff16815260200191505060405180910390f35b6105e4600480360360208110156105b857600080fd5b81019080803573ffffffffffffffffffffffffffffffffffffffff169060200190929190505050610c5d565b6040518082815260200191505060405180910390f35b6106486004803603604081101561061057600080fd5b81019080803573ffffffffffffffffffffffffffffffffffffffff169060200190929190803515159060200190929190505050610ce6565b005b610652610e20565b604051808215151515815260200191505060405180910390f35b6106ce6004803603604081101561068257600080fd5b81019080803573ffffffffffffffffffffffffffffffffffffffff169060200190929190803573ffffffffffffffffffffffffffffffffffffffff169060200190929190505050610e33565b604051808215151515815260200191505060405180910390f35b6000806000837bffffffffffffffffffffffffffffffffffffffffffffffffffffffff19167bffffffffffffffffffffffffffffffffffffffffffffffffffffffff1916815260200190815260200160002060009054906101000a900460ff169050919050565b600560049054906101000a900473ffffffffffffffffffffffffffffffffffffffff1681565b600061078082610ec7565b61078957600080fd5b6002600083815260200190815260200160002060009054906101000a900473ffffffffffffffffffffffffffffffffffffffff169050919050565b60006107cf82610be1565b90508073ffffffffffffffffffffffffffffffffffffffff168373ffffffffffffffffffffffffffffffffffffffff16141561080a57600080fd5b8073ffffffffffffffffffffffffffffffffffffffff163373ffffffffffffffffffffffffffffffffffffffff16148061084a57506108498133610e33565b5b61085357600080fd5b826002600084815260200190815260200160002060006101000a81548173ffffffffffffffffffffffffffffffffffffffff021916908373ffffffffffffffffffffffffffffffffffffffff160217905550818373ffffffffffffffffffffffffffffffffffffffff168273ffffffffffffffffffffffffffffffffffffffff167f8c5be1e5ebec7d5bd14f71427d1e84f3dd0314c0f7b2291e5b200ac8c7c3b92560405160405180910390a4505050565b61090f3382610f39565b61091857600080fd5b610923838383610fce565b505050565b600560189054906101000a900460ff161561098e576040517f08c379a000000000000000000000000000000000000000000000000000000000815260040180806020018281038252602d8152602001806115f9602d913960400191505060405180910390fd5b600073ffffffffffffffffffffffffffffffffffffffff168173ffffffffffffffffffffffffffffffffffffffff161415610a31576040517f08c379a00000000000000000000000000000000000000000000000000000000081526004018080602001828103825260208152602001807f54686520626f6f6b20616464726573732063616e6e6f7420626520656d70747981525060200191505060405180910390fd5b6001600560186101000a81548160ff02191690831515021790555080600560046101000a81548173ffffffffffffffffffffffffffffffffffffffff021916908373ffffffffffffffffffffffffffffffffffffffff16021790555050565b600560049054906101000a900473ffffffffffffffffffffffffffffffffffffffff1673ffffffffffffffffffffffffffffffffffffffff163373ffffffffffffffffffffffffffffffffffffffff1614610b36576040517f08c379a000000000000000000000000000000000000000000000000000000000815260040180806020018281038252602a815260200180611626602a913960400191505060405180910390fd5b610b408282611191565b5050565b610b5f83838360405180602001604052806000815250610bbb565b505050565b60006360a1167260e01b6342842e0e60e01b6323b872dd60e01b63e985e9c560e01b63a22cb46560e01b63081812fc60e01b63095ea7b360e01b636352211e60e01b6370a0823160e01b1818181818181818905090565b610bc6848484610905565b610bd2848484846112d7565b610bdb57600080fd5b50505050565b6000806001600084815260200190815260200160002060009054906101000a900473ffffffffffffffffffffffffffffffffffffffff169050600073ffffffffffffffffffffffffffffffffffffffff168173ffffffffffffffffffffffffffffffffffffffff161415610c5457600080fd5b80915050919050565b60008073ffffffffffffffffffffffffffffffffffffffff168273ffffffffffffffffffffffffffffffffffffffff161415610c9857600080fd5b610cdf600360008473ffffffffffffffffffffffffffffffffffffffff1673ffffffffffffffffffffffffffffffffffffffff1681526020019081526020016000206114c0565b9050919050565b3373ffffffffffffffffffffffffffffffffffffffff168273ffffffffffffffffffffffffffffffffffffffff161415610d1f57600080fd5b80600460003373ffffffffffffffffffffffffffffffffffffffff1673ffffffffffffffffffffffffffffffffffffffff16815260200190815260200160002060008473ffffffffffffffffffffffffffffffffffffffff1673ffffffffffffffffffffffffffffffffffffffff16815260200190815260200160002060006101000a81548160ff0219169083151502179055508173ffffffffffffffffffffffffffffffffffffffff163373ffffffffffffffffffffffffffffffffffffffff167f17307eab39ab6107e8899845ad3d59bd9653f200f220920489ca2b5937696c3183604051808215151515815260200191505060405180910390a35050565b600560189054906101000a900460ff1681565b6000600460008473ffffffffffffffffffffffffffffffffffffffff1673ffffffffffffffffffffffffffffffffffffffff16815260200190815260200160002060008373ffffffffffffffffffffffffffffffffffffffff1673ffffffffffffffffffffffffffffffffffffffff16815260200190815260200160002060009054906101000a900460ff16905092915050565b6000806001600084815260200190815260200160002060009054906101000a900473ffffffffffffffffffffffffffffffffffffffff169050600073ffffffffffffffffffffffffffffffffffffffff168173ffffffffffffffffffffffffffffffffffffffff161415915050919050565b600080610f4583610be1565b90508073ffffffffffffffffffffffffffffffffffffffff168473ffffffffffffffffffffffffffffffffffffffff161480610fb457508373ffffffffffffffffffffffffffffffffffffffff16610f9c84610775565b73ffffffffffffffffffffffffffffffffffffffff16145b80610fc55750610fc48185610e33565b5b91505092915050565b8273ffffffffffffffffffffffffffffffffffffffff16610fee82610be1565b73ffffffffffffffffffffffffffffffffffffffff161461100e57600080fd5b600073ffffffffffffffffffffffffffffffffffffffff168273ffffffffffffffffffffffffffffffffffffffff16141561104857600080fd5b611051816114ce565b611098600360008573ffffffffffffffffffffffffffffffffffffffff1673ffffffffffffffffffffffffffffffffffffffff16815260200190815260200160002061158c565b6110df600360008473ffffffffffffffffffffffffffffffffffffffff1673ffffffffffffffffffffffffffffffffffffffff1681526020019081526020016000206115af565b816001600083815260200190815260200160002060006101000a81548173ffffffffffffffffffffffffffffffffffffffff021916908373ffffffffffffffffffffffffffffffffffffffff160217905550808273ffffffffffffffffffffffffffffffffffffffff168473ffffffffffffffffffffffffffffffffffffffff167fddf252ad1be2c89b69c2b068fc378daa952ba7f163c4a11628f55a4df523b3ef60405160405180910390a4505050565b600073ffffffffffffffffffffffffffffffffffffffff168273ffffffffffffffffffffffffffffffffffffffff1614156111cb57600080fd5b6111d481610ec7565b156111de57600080fd5b816001600083815260200190815260200160002060006101000a81548173ffffffffffffffffffffffffffffffffffffffff021916908373ffffffffffffffffffffffffffffffffffffffff160217905550611277600360008473ffffffffffffffffffffffffffffffffffffffff1673ffffffffffffffffffffffffffffffffffffffff1681526020019081526020016000206115af565b808273ffffffffffffffffffffffffffffffffffffffff16600073ffffffffffffffffffffffffffffffffffffffff167fddf252ad1be2c89b69c2b068fc378daa952ba7f163c4a11628f55a4df523b3ef60405160405180910390a45050565b60006112f88473ffffffffffffffffffffffffffffffffffffffff166115c5565b61130557600190506114b8565b60008473ffffffffffffffffffffffffffffffffffffffff1663150b7a02338887876040518563ffffffff1660e01b8152600401808573ffffffffffffffffffffffffffffffffffffffff1673ffffffffffffffffffffffffffffffffffffffff1681526020018473ffffffffffffffffffffffffffffffffffffffff1673ffffffffffffffffffffffffffffffffffffffff16815260200183815260200180602001828103825283818151815260200191508051906020019080838360005b838110156113e05780820151818401526020810190506113c5565b50505050905090810190601f16801561140d5780820380516001836020036101000a031916815260200191505b5095505050505050602060405180830381600087803b15801561142f57600080fd5b505af1158015611443573d6000803e3d6000fd5b505050506040513d602081101561145957600080fd5b8101908080519060200190929190505050905063150b7a0260e01b7bffffffffffffffffffffffffffffffffffffffffffffffffffffffff1916817bffffffffffffffffffffffffffffffffffffffffffffffffffffffff1916149150505b949350505050565b600081600001549050919050565b600073ffffffffffffffffffffffffffffffffffffffff166002600083815260200190815260200160002060009054906101000a900473ffffffffffffffffffffffffffffffffffffffff1673ffffffffffffffffffffffffffffffffffffffff16146115895760006002600083815260200190815260200160002060006101000a81548173ffffffffffffffffffffffffffffffffffffffff021916908373ffffffffffffffffffffffffffffffffffffffff1602179055505b50565b6115a4600182600001546115d890919063ffffffff16565b816000018190555050565b6001816000016000828254019250508190555050565b600080823b905060008111915050919050565b6000828211156115e757600080fd5b60008284039050809150509291505056fe5468652062757965722d73656c6c657220616464726573732063616e206f6e6c7920626520736574206f6e63654f6e6c792074686520426f6f6b20636f6e74726163742063616e206d696e74206e657720746f6b656e73a265627a7a72315820baf74d836fb773a77ff1227f4a6a30a4b65b532257d3f98c62fb78ba119b186664736f6c63430005100032",
  "source": "pragma solidity ^0.5.0;\r\n\r\nimport './Token.sol';\r\n\r\ncontract BookToken is ERC721 {\r\n    address public book;\r\n    bool public isBookSet = false;\r\n    // To generate a new token for the specified address\r\n    //  _to The receiver of this new token\r\n    //  _tokenId The new token id, must be unique\r\n    function mint(address _to, uint256 _tokenId) public {\r\n        require(msg.sender == book, 'Only the Book contract can mint new tokens');\r\n        _mint(_to, _tokenId);\r\n    }\r\n\r\n    // To set the book smart contract address\r\n    function setBook(address _book) public {\r\n        require(!isBookSet, 'The buyer-seller address can only be set once');\r\n        require(_book != address(0), 'The book address cannot be empty');\r\n        isBookSet = true;\r\n        book = _book;\r\n    }\r\n}\r\n\r\ncontract BookStore {\r\n    struct Book{\r\n        uint256 id;\r\n        string title;\r\n        string isbn;\r\n        string author;\r\n        string category;\r\n        address payable owner; \r\n        uint256 price;\r\n        bool forSale;\r\n    }\r\n    struct Order {\r\n        uint256 id;\r\n        string name;\r\n        string deliveryAddress;\r\n        uint256 postalCode;\r\n        uint256 phone;\r\n        string state; // Either 'pending', 'completed'\r\n        address customer;\r\n    }\r\n    \r\n    mapping(address => Book[]) public sellerProducts; // Seller address => books ; The books added by the seller \r\n    mapping(address => Order[]) public pendingSellerOrders; // Seller address => orders ; The books waiting to be fulfilled by the seller, used by sellers to check which orders have to be fulfilled\r\n    mapping(address => Order[]) public pendingBuyerOrders; //Buyer address => orders ;The books that the buyer purchased waiting to be sent\r\n    mapping(address => Order[]) public completedSellerOrders; // Seller address => orders  A history of past orders fulfilled by the seller\r\n    mapping(address => Order[]) public completedBuyerOrders; // Buyer address => orders A history of past orders made by this buyer\r\n    mapping(uint256 => Book) public bookById; // Book id => book\r\n    mapping(uint256 => address[]) public previousOwners; // Book id => previousOwners\r\n    mapping(uint256 => Order) public orderById; // book id => order\r\n    mapping(uint256 => bool) public bookExists; // Book id => true or false\r\n    Book[] public books;\r\n    Order[] public orders;\r\n    uint256 public lastId;\r\n    address public token;\r\n    uint256 public lastPendingSellerOrder;\r\n    uint256 public lastPendingBuyerOrder;\r\n\r\n    constructor(address _token) public {\r\n        token = _token;\r\n    }\r\n    \r\n    function addBook(string memory _title, string memory _isbn, string memory _author, string memory _category, uint256 _price, bool _forSale) public{\r\n        require(bytes(_title).length>0,'Book Name is necessary');\r\n        require(bytes(_isbn).length>0,'ISBN is necessary');\r\n        require(bytes(_author).length>0,'Author Name is necessary');\r\n        require(_price>0,'Price is necessary');\r\n        if(!(_forSale)) _forSale = false;\r\n        address payable owner = msg.sender;\r\n\r\n        Book memory b = Book(lastId,_title,_isbn,_author,_category,owner,_price,_forSale);\r\n        books.push(b);\r\n        sellerProducts[msg.sender].push(b);\r\n        bookById[lastId]=b;\r\n        bookExists[lastId]=true;\r\n        BookToken(token).mint(address(this),lastId); // New token for this book owned by the contract until sold.\r\n        lastId+=1;\r\n    }\r\n\r\n    function sellBook(uint256 _id) public{\r\n        require(_id>=0,'ID is necessary');\r\n        bookById[_id].forSale=true;\r\n    }\r\n\r\n\r\n\r\n    function buyBook(uint256 _id, string memory _name, string memory _deliveryAddress, uint256 _postalCode, uint256 _phone) public payable {\r\n        require(bookExists[_id], 'The book must exist to be purchased');\r\n        require(bytes(_name).length > 0, 'The name must be set');\r\n        require(bytes(_deliveryAddress).length > 0, 'The Delivery Address must be set');\r\n        require(_postalCode > 0, 'The postal code must be set');\r\n        require(_phone > 0, 'The Phone Number must be set');\r\n\r\n        Book memory b = bookById[_id]; //Need to retrieve the book by it's id. \r\n        Order memory newOrder = Order(_id, _name, _deliveryAddress, _postalCode, _phone, 'pending',msg.sender);\r\n        require(msg.value >= b.price, \"The payment must be equal to the book price\");\r\n\r\n        pendingSellerOrders[b.owner].push(newOrder);\r\n        pendingBuyerOrders[msg.sender].push(newOrder);\r\n        orders.push(newOrder);\r\n        orderById[_id] = newOrder;\r\n        lastPendingSellerOrder = pendingSellerOrders[b.owner].length > 0 ? pendingSellerOrders[b.owner].length - 1 : 0;\r\n        lastPendingBuyerOrder = pendingBuyerOrders[b.owner].length > 0 ? pendingBuyerOrders[b.owner].length - 1 : 0;\r\n        BookToken(token).transferFrom(b.owner, msg.sender, _id); // Transfer the book token to the new owner\r\n        b.owner.transfer(b.price);\r\n    }\r\n\r\n    function markOrderCompleted(uint256 _id) public {\r\n        Order memory order = orderById[_id];\r\n        Book memory book = bookById[_id];\r\n        require(book.owner == msg.sender, 'Only the seller can mark the order as completed');\r\n        order.state = 'completed';\r\n        address customer = order.customer;\r\n        // Delete the seller order from the array of pending orders\r\n        for(uint256 i = 0; i < pendingSellerOrders[book.owner].length; i++) {\r\n            if(pendingSellerOrders[book.owner][i].id == _id) {\r\n                Order memory lastElement = orderById[lastPendingSellerOrder];\r\n                pendingSellerOrders[book.owner][i] = lastElement;\r\n                pendingSellerOrders[book.owner].length--;\r\n                lastPendingSellerOrder--;\r\n            }\r\n        }\r\n        // Delete the seller order from the array of pending orders\r\n        for(uint256 i = 0; i < pendingBuyerOrders[msg.sender].length; i++) {\r\n            if(pendingBuyerOrders[msg.sender][i].id == order.id) {\r\n                Order memory lastElement = orderById[lastPendingBuyerOrder];\r\n                pendingBuyerOrders[msg.sender][i] = lastElement;\r\n                pendingBuyerOrders[msg.sender].length--;\r\n                lastPendingBuyerOrder--;\r\n            }\r\n        }\r\n        completedSellerOrders[book.owner].push(order);\r\n        completedBuyerOrders[msg.sender].push(order);\r\n        orderById[_id] = order;\r\n        book.owner = address(uint160(customer));\r\n        previousOwners[_id].push(msg.sender);\r\n    }\r\n}",
  "sourcePath": "C:/Users/samee/OneDrive/Desktop/Blockchain-Buyer-Seller-Market-BC_Team_6/contracts/BookStore.sol",
  "compiler": {
    "name": "solc",
    "version": "0.5.16+commit.9c3226ce.Emscripten.clang"
  },
  "schemaVersion": "3.3.4",
  "updatedAt": "2021-03-29T07:43:21.288Z",
  "networkType": "ethereum",
  "devdoc": {
    "methods": {}
  },
  "userdoc": {
    "methods": {}
  }
}