{
  "contractName": "BookStore",
  "abi": [
    {
      "constant": true,
      "inputs": [
        {
          "internalType": "bytes32",
          "name": "",
          "type": "bytes32"
        }
      ],
      "name": "bookById",
      "outputs": [
        {
          "internalType": "bytes32",
          "name": "id",
          "type": "bytes32"
        },
        {
          "internalType": "string",
          "name": "title",
          "type": "string"
        },
        {
          "internalType": "string",
          "name": "isbn",
          "type": "string"
        },
        {
          "internalType": "string",
          "name": "author",
          "type": "string"
        },
        {
          "internalType": "string",
          "name": "category",
          "type": "string"
        },
        {
          "internalType": "address payable",
          "name": "owner",
          "type": "address"
        },
        {
          "internalType": "uint256",
          "name": "price",
          "type": "uint256"
        },
        {
          "internalType": "bool",
          "name": "forSale",
          "type": "bool"
        },
        {
          "internalType": "string",
          "name": "image",
          "type": "string"
        }
      ],
      "payable": false,
      "stateMutability": "view",
      "type": "function"
    },
    {
      "constant": true,
      "inputs": [
        {
          "internalType": "bytes32",
          "name": "",
          "type": "bytes32"
        }
      ],
      "name": "bookExists",
      "outputs": [
        {
          "internalType": "bool",
          "name": "",
          "type": "bool"
        }
      ],
      "payable": false,
      "stateMutability": "view",
      "type": "function"
    },
    {
      "constant": true,
      "inputs": [
        {
          "internalType": "uint256",
          "name": "",
          "type": "uint256"
        }
      ],
      "name": "books",
      "outputs": [
        {
          "internalType": "bytes32",
          "name": "",
          "type": "bytes32"
        }
      ],
      "payable": false,
      "stateMutability": "view",
      "type": "function"
    },
    {
      "constant": true,
      "inputs": [
        {
          "internalType": "bytes32",
          "name": "",
          "type": "bytes32"
        }
      ],
      "name": "booksForSale",
      "outputs": [
        {
          "internalType": "bytes32",
          "name": "",
          "type": "bytes32"
        }
      ],
      "payable": false,
      "stateMutability": "view",
      "type": "function"
    },
    {
      "constant": true,
      "inputs": [
        {
          "internalType": "address",
          "name": "",
          "type": "address"
        },
        {
          "internalType": "bytes32",
          "name": "",
          "type": "bytes32"
        }
      ],
      "name": "completedBuyerOrders",
      "outputs": [
        {
          "internalType": "bytes32",
          "name": "",
          "type": "bytes32"
        }
      ],
      "payable": false,
      "stateMutability": "view",
      "type": "function"
    },
    {
      "constant": true,
      "inputs": [
        {
          "internalType": "address",
          "name": "",
          "type": "address"
        },
        {
          "internalType": "bytes32",
          "name": "",
          "type": "bytes32"
        }
      ],
      "name": "completedSellerOrders",
      "outputs": [
        {
          "internalType": "bytes32",
          "name": "",
          "type": "bytes32"
        }
      ],
      "payable": false,
      "stateMutability": "view",
      "type": "function"
    },
    {
      "constant": true,
      "inputs": [],
      "name": "lastId",
      "outputs": [
        {
          "internalType": "uint256",
          "name": "",
          "type": "uint256"
        }
      ],
      "payable": false,
      "stateMutability": "view",
      "type": "function"
    },
    {
      "constant": true,
      "inputs": [],
      "name": "lastPendingBuyerOrder",
      "outputs": [
        {
          "internalType": "uint256",
          "name": "",
          "type": "uint256"
        }
      ],
      "payable": false,
      "stateMutability": "view",
      "type": "function"
    },
    {
      "constant": true,
      "inputs": [],
      "name": "lastPendingSellerOrder",
      "outputs": [
        {
          "internalType": "uint256",
          "name": "",
          "type": "uint256"
        }
      ],
      "payable": false,
      "stateMutability": "view",
      "type": "function"
    },
    {
      "constant": true,
      "inputs": [
        {
          "internalType": "bytes32",
          "name": "",
          "type": "bytes32"
        }
      ],
      "name": "orderById",
      "outputs": [
        {
          "internalType": "bytes32",
          "name": "id",
          "type": "bytes32"
        },
        {
          "internalType": "bytes32",
          "name": "bookId",
          "type": "bytes32"
        },
        {
          "internalType": "string",
          "name": "name",
          "type": "string"
        },
        {
          "internalType": "string",
          "name": "deliveryAddress",
          "type": "string"
        },
        {
          "internalType": "uint256",
          "name": "postalCode",
          "type": "uint256"
        },
        {
          "internalType": "uint256",
          "name": "phone",
          "type": "uint256"
        },
        {
          "internalType": "string",
          "name": "state",
          "type": "string"
        },
        {
          "internalType": "address",
          "name": "customer",
          "type": "address"
        }
      ],
      "payable": false,
      "stateMutability": "view",
      "type": "function"
    },
    {
      "constant": true,
      "inputs": [
        {
          "internalType": "uint256",
          "name": "",
          "type": "uint256"
        }
      ],
      "name": "orders",
      "outputs": [
        {
          "internalType": "bytes32",
          "name": "",
          "type": "bytes32"
        }
      ],
      "payable": false,
      "stateMutability": "view",
      "type": "function"
    },
    {
      "constant": true,
      "inputs": [
        {
          "internalType": "address",
          "name": "",
          "type": "address"
        },
        {
          "internalType": "bytes32",
          "name": "",
          "type": "bytes32"
        }
      ],
      "name": "ownerProducts",
      "outputs": [
        {
          "internalType": "bytes32",
          "name": "",
          "type": "bytes32"
        }
      ],
      "payable": false,
      "stateMutability": "view",
      "type": "function"
    },
    {
      "constant": true,
      "inputs": [
        {
          "internalType": "address",
          "name": "",
          "type": "address"
        },
        {
          "internalType": "bytes32",
          "name": "",
          "type": "bytes32"
        }
      ],
      "name": "pendingBuyerOrders",
      "outputs": [
        {
          "internalType": "bytes32",
          "name": "",
          "type": "bytes32"
        }
      ],
      "payable": false,
      "stateMutability": "view",
      "type": "function"
    },
    {
      "constant": true,
      "inputs": [
        {
          "internalType": "address",
          "name": "",
          "type": "address"
        },
        {
          "internalType": "bytes32",
          "name": "",
          "type": "bytes32"
        }
      ],
      "name": "pendingSellerOrders",
      "outputs": [
        {
          "internalType": "bytes32",
          "name": "",
          "type": "bytes32"
        }
      ],
      "payable": false,
      "stateMutability": "view",
      "type": "function"
    },
    {
      "constant": true,
      "inputs": [
        {
          "internalType": "bytes32",
          "name": "",
          "type": "bytes32"
        },
        {
          "internalType": "uint256",
          "name": "",
          "type": "uint256"
        }
      ],
      "name": "previousOwners",
      "outputs": [
        {
          "internalType": "address",
          "name": "",
          "type": "address"
        }
      ],
      "payable": false,
      "stateMutability": "view",
      "type": "function"
    },
    {
      "constant": true,
      "inputs": [],
      "name": "token",
      "outputs": [
        {
          "internalType": "address",
          "name": "",
          "type": "address"
        }
      ],
      "payable": false,
      "stateMutability": "view",
      "type": "function"
    },
    {
      "constant": true,
      "inputs": [
        {
          "internalType": "address",
          "name": "",
          "type": "address"
        },
        {
          "internalType": "uint256",
          "name": "",
          "type": "uint256"
        }
      ],
      "name": "userOrders",
      "outputs": [
        {
          "internalType": "bytes32",
          "name": "",
          "type": "bytes32"
        }
      ],
      "payable": false,
      "stateMutability": "view",
      "type": "function"
    },
    {
      "constant": false,
      "inputs": [
        {
          "internalType": "string",
          "name": "_title",
          "type": "string"
        },
        {
          "internalType": "string",
          "name": "_isbn",
          "type": "string"
        },
        {
          "internalType": "string",
          "name": "_author",
          "type": "string"
        },
        {
          "internalType": "string",
          "name": "_category",
          "type": "string"
        },
        {
          "internalType": "uint256",
          "name": "_price",
          "type": "uint256"
        },
        {
          "internalType": "bool",
          "name": "_forSale",
          "type": "bool"
        },
        {
          "internalType": "string",
          "name": "_image",
          "type": "string"
        }
      ],
      "name": "addBook",
      "outputs": [],
      "payable": false,
      "stateMutability": "nonpayable",
      "type": "function"
    },
    {
      "constant": false,
      "inputs": [
        {
          "internalType": "bytes32",
          "name": "_id",
          "type": "bytes32"
        }
      ],
      "name": "sellBook",
      "outputs": [],
      "payable": false,
      "stateMutability": "nonpayable",
      "type": "function"
    },
    {
      "constant": false,
      "inputs": [
        {
          "internalType": "bytes32",
          "name": "_id",
          "type": "bytes32"
        }
      ],
      "name": "unSellBook",
      "outputs": [],
      "payable": false,
      "stateMutability": "nonpayable",
      "type": "function"
    },
    {
      "constant": false,
      "inputs": [
        {
          "internalType": "bytes32",
          "name": "_id",
          "type": "bytes32"
        },
        {
          "internalType": "string",
          "name": "_name",
          "type": "string"
        },
        {
          "internalType": "string",
          "name": "_deliveryAddress",
          "type": "string"
        },
        {
          "internalType": "uint256",
          "name": "_postalCode",
          "type": "uint256"
        },
        {
          "internalType": "uint256",
          "name": "_phone",
          "type": "uint256"
        }
      ],
      "name": "buyBook",
      "outputs": [],
      "payable": true,
      "stateMutability": "payable",
      "type": "function"
    },
    {
      "constant": false,
      "inputs": [
        {
          "internalType": "bytes32",
          "name": "_id",
          "type": "bytes32"
        }
      ],
      "name": "markOrderCompleted",
      "outputs": [],
      "payable": false,
      "stateMutability": "nonpayable",
      "type": "function"
    },
    {
      "constant": true,
      "inputs": [
        {
          "internalType": "uint256",
          "name": "_limit1",
          "type": "uint256"
        }
      ],
      "name": "getBooksLength",
      "outputs": [
        {
          "internalType": "bool",
          "name": "",
          "type": "bool"
        }
      ],
      "payable": false,
      "stateMutability": "view",
      "type": "function"
    },
    {
      "constant": true,
      "inputs": [
        {
          "internalType": "int256",
          "name": "_limit",
          "type": "int256"
        }
      ],
      "name": "getBooksIds",
      "outputs": [
        {
          "internalType": "bytes32[]",
          "name": "",
          "type": "bytes32[]"
        }
      ],
      "payable": false,
      "stateMutability": "view",
      "type": "function"
    },
    {
      "constant": true,
      "inputs": [
        {
          "internalType": "bytes32",
          "name": "_id",
          "type": "bytes32"
        }
      ],
      "name": "getBook",
      "outputs": [
        {
          "internalType": "bytes32",
          "name": "id",
          "type": "bytes32"
        },
        {
          "internalType": "string",
          "name": "title",
          "type": "string"
        },
        {
          "internalType": "string",
          "name": "isbn",
          "type": "string"
        },
        {
          "internalType": "string",
          "name": "author",
          "type": "string"
        },
        {
          "internalType": "string",
          "name": "category",
          "type": "string"
        },
        {
          "internalType": "address payable",
          "name": "owner",
          "type": "address"
        },
        {
          "internalType": "uint256",
          "name": "price",
          "type": "uint256"
        },
        {
          "internalType": "bool",
          "name": "forSale",
          "type": "bool"
        },
        {
          "internalType": "string",
          "name": "image",
          "type": "string"
        }
      ],
      "payable": false,
      "stateMutability": "view",
      "type": "function"
    },
    {
      "constant": true,
      "inputs": [],
      "name": "getBooksForSaleCount",
      "outputs": [
        {
          "internalType": "uint256",
          "name": "length",
          "type": "uint256"
        }
      ],
      "payable": false,
      "stateMutability": "view",
      "type": "function"
    },
    {
      "constant": true,
      "inputs": [
        {
          "internalType": "uint256",
          "name": "_limit",
          "type": "uint256"
        }
      ],
      "name": "getBooksForSale",
      "outputs": [
        {
          "internalType": "bytes32[]",
          "name": "",
          "type": "bytes32[]"
        }
      ],
      "payable": false,
      "stateMutability": "view",
      "type": "function"
    },
    {
      "constant": true,
      "inputs": [
        {
          "internalType": "string",
          "name": "_type",
          "type": "string"
        }
      ],
      "name": "getOrders",
      "outputs": [
        {
          "internalType": "bytes32[]",
          "name": "",
          "type": "bytes32[]"
        }
      ],
      "payable": false,
      "stateMutability": "view",
      "type": "function"
    },
    {
      "constant": true,
      "inputs": [
        {
          "internalType": "bytes32",
          "name": "id",
          "type": "bytes32"
        }
      ],
      "name": "getOrderById",
      "outputs": [
        {
          "internalType": "bytes32",
          "name": "orderId",
          "type": "bytes32"
        },
        {
          "internalType": "string",
          "name": "name",
          "type": "string"
        },
        {
          "internalType": "string",
          "name": "deliveryAddress",
          "type": "string"
        },
        {
          "internalType": "uint256",
          "name": "postalCode",
          "type": "uint256"
        },
        {
          "internalType": "uint256",
          "name": "phone",
          "type": "uint256"
        },
        {
          "internalType": "string",
          "name": "state",
          "type": "string"
        },
        {
          "internalType": "address",
          "name": "customer",
          "type": "address"
        }
      ],
      "payable": false,
      "stateMutability": "view",
      "type": "function"
    },
    {
      "constant": true,
      "inputs": [
        {
          "internalType": "string",
          "name": "a",
          "type": "string"
        },
        {
          "internalType": "string",
          "name": "b",
          "type": "string"
        }
      ],
      "name": "compareStrings",
      "outputs": [
        {
          "internalType": "bool",
          "name": "",
          "type": "bool"
        }
      ],
      "payable": false,
      "stateMutability": "pure",
      "type": "function"
    }
  ],
  "bytecode": "0x608060405234801561001057600080fd5b50615381806100206000396000f3fe6080604052600436106101cc5760003560e01c80638d2f854b116100f7578063bed34bba11610095578063db83104211610064578063db831042146114cb578063ed892baf14611805578063f42e769914611830578063fc0c546a1461194d576101cc565b8063bed34bba1461127f578063c1292cc3146113f6578063d43010d514611421578063d8bd3bed14611490576101cc565b8063a2e1dc22116100d1578063a2e1dc2214610d5d578063a639912914610dac578063a85c38ef14610f80578063ad1a7d0c14610fcf576101cc565b80638d2f854b14610c7c5780639a1e67b514610cb75780639a819a3714610d0a576101cc565b806332b451e61161016f57806368756f731161013e57806368756f7314610ae357806369ec8d2414610b0e578063856652e914610b7d57806387e9842a14610bec576101cc565b806332b451e6146107c557806363a52ef9146108345780636608484c14610a0f5780636874404614610a94576101cc565b80630751ac97116101ab5780630751ac97146102a65780631e02063f1461033657806324042828146105e6578063299f438f14610655576101cc565b8062312338146101d1578063011407b11461020c57806302949a0a1461027b575b600080fd5b3480156101dd57600080fd5b5061020a600480360360208110156101f457600080fd5b81019080803590602001909291905050506119a4565b005b34801561021857600080fd5b506102656004803603604081101561022f57600080fd5b81019080803573ffffffffffffffffffffffffffffffffffffffff16906020019092919080359060200190929190505050611a88565b6040518082815260200191505060405180910390f35b34801561028757600080fd5b50610290611aad565b6040518082815260200191505060405180910390f35b3480156102b257600080fd5b506102df600480360360208110156102c957600080fd5b8101908080359060200190929190505050611ab3565b6040518080602001828103825283818151815260200191508051906020019060200280838360005b83811015610322578082015181840152602081019050610307565b505050509050019250505060405180910390f35b34801561034257600080fd5b5061036f6004803603602081101561035957600080fd5b8101908080359060200190929190505050611b89565b604051808a8152602001806020018060200180602001806020018973ffffffffffffffffffffffffffffffffffffffff1673ffffffffffffffffffffffffffffffffffffffff168152602001888152602001871515151581526020018060200186810386528e818151815260200191508051906020019080838360005b838110156104075780820151818401526020810190506103ec565b50505050905090810190601f1680156104345780820380516001836020036101000a031916815260200191505b5086810385528d818151815260200191508051906020019080838360005b8381101561046d578082015181840152602081019050610452565b50505050905090810190601f16801561049a5780820380516001836020036101000a031916815260200191505b5086810384528c818151815260200191508051906020019080838360005b838110156104d35780820151818401526020810190506104b8565b50505050905090810190601f1680156105005780820380516001836020036101000a031916815260200191505b5086810383528b818151815260200191508051906020019080838360005b8381101561053957808201518184015260208101905061051e565b50505050905090810190601f1680156105665780820380516001836020036101000a031916815260200191505b50868103825287818151815260200191508051906020019080838360005b8381101561059f578082015181840152602081019050610584565b50505050905090810190601f1680156105cc5780820380516001836020036101000a031916815260200191505b509e50505050505050505050505050505060405180910390f35b3480156105f257600080fd5b5061063f6004803603604081101561060957600080fd5b81019080803573ffffffffffffffffffffffffffffffffffffffff16906020019092919080359060200190929190505050611efc565b6040518082815260200191505060405180910390f35b6107c3600480360360a081101561066b57600080fd5b81019080803590602001909291908035906020019064010000000081111561069257600080fd5b8201836020820111156106a457600080fd5b803590602001918460018302840111640100000000831117156106c657600080fd5b91908080601f016020809104026020016040519081016040528093929190818152602001838380828437600081840152601f19601f8201169050808301925050505050505091929192908035906020019064010000000081111561072957600080fd5b82018360208201111561073b57600080fd5b8035906020019184600183028401116401000000008311171561075d57600080fd5b91908080601f016020809104026020016040519081016040528093929190818152602001838380828437600081840152601f19601f8201169050808301925050505050505091929192908035906020019092919080359060200190929190505050611f21565b005b3480156107d157600080fd5b5061081e600480360360408110156107e857600080fd5b81019080803573ffffffffffffffffffffffffffffffffffffffff16906020019092919080359060200190929190505050612b04565b6040518082815260200191505060405180910390f35b34801561084057600080fd5b5061086d6004803603602081101561085757600080fd5b8101908080359060200190929190505050612b29565b604051808981526020018881526020018060200180602001878152602001868152602001806020018573ffffffffffffffffffffffffffffffffffffffff1673ffffffffffffffffffffffffffffffffffffffff16815260200184810384528a818151815260200191508051906020019080838360005b838110156108ff5780820151818401526020810190506108e4565b50505050905090810190601f16801561092c5780820380516001836020036101000a031916815260200191505b50848103835289818151815260200191508051906020019080838360005b8381101561096557808201518184015260208101905061094a565b50505050905090810190601f1680156109925780820380516001836020036101000a031916815260200191505b50848103825286818151815260200191508051906020019080838360005b838110156109cb5780820151818401526020810190506109b0565b50505050905090810190601f1680156109f85780820380516001836020036101000a031916815260200191505b509b50505050505050505050505060405180910390f35b348015610a1b57600080fd5b50610a5260048036036040811015610a3257600080fd5b810190808035906020019092919080359060200190929190505050612d59565b604051808273ffffffffffffffffffffffffffffffffffffffff1673ffffffffffffffffffffffffffffffffffffffff16815260200191505060405180910390f35b348015610aa057600080fd5b50610acd60048036036020811015610ab757600080fd5b8101908080359060200190929190505050612da4565b6040518082815260200191505060405180910390f35b348015610aef57600080fd5b50610af8612dc5565b6040518082815260200191505060405180910390f35b348015610b1a57600080fd5b50610b6760048036036040811015610b3157600080fd5b81019080803573ffffffffffffffffffffffffffffffffffffffff16906020019092919080359060200190929190505050612dcb565b6040518082815260200191505060405180910390f35b348015610b8957600080fd5b50610bd660048036036040811015610ba057600080fd5b81019080803573ffffffffffffffffffffffffffffffffffffffff16906020019092919080359060200190929190505050612df0565b6040518082815260200191505060405180910390f35b348015610bf857600080fd5b50610c2560048036036020811015610c0f57600080fd5b8101908080359060200190929190505050612e1e565b6040518080602001828103825283818151815260200191508051906020019060200280838360005b83811015610c68578082015181840152602081019050610c4d565b505050509050019250505060405180910390f35b348015610c8857600080fd5b50610cb560048036036020811015610c9f57600080fd5b8101908080359060200190929190505050612f18565b005b348015610cc357600080fd5b50610cf060048036036020811015610cda57600080fd5b81019080803590602001909291905050506139b4565b604051808215151515815260200191505060405180910390f35b348015610d1657600080fd5b50610d4360048036036020811015610d2d57600080fd5b81019080803590602001909291905050506139d4565b604051808215151515815260200191505060405180910390f35b348015610d6957600080fd5b50610d9660048036036020811015610d8057600080fd5b81019080803590602001909291905050506139ea565b6040518082815260200191505060405180910390f35b348015610db857600080fd5b50610de560048036036020811015610dcf57600080fd5b8101908080359060200190929190505050613a02565b604051808881526020018060200180602001878152602001868152602001806020018573ffffffffffffffffffffffffffffffffffffffff1673ffffffffffffffffffffffffffffffffffffffff16815260200184810384528a818151815260200191508051906020019080838360005b83811015610e71578082015181840152602081019050610e56565b50505050905090810190601f168015610e9e5780820380516001836020036101000a031916815260200191505b50848103835289818151815260200191508051906020019080838360005b83811015610ed7578082015181840152602081019050610ebc565b50505050905090810190601f168015610f045780820380516001836020036101000a031916815260200191505b50848103825286818151815260200191508051906020019080838360005b83811015610f3d578082015181840152602081019050610f22565b50505050905090810190601f168015610f6a5780820380516001836020036101000a031916815260200191505b509a505050505050505050505060405180910390f35b348015610f8c57600080fd5b50610fb960048036036020811015610fa357600080fd5b8101908080359060200190929190505050613cd8565b6040518082815260200191505060405180910390f35b348015610fdb57600080fd5b5061100860048036036020811015610ff257600080fd5b8101908080359060200190929190505050613cf9565b604051808a8152602001806020018060200180602001806020018973ffffffffffffffffffffffffffffffffffffffff1673ffffffffffffffffffffffffffffffffffffffff168152602001888152602001871515151581526020018060200186810386528e818151815260200191508051906020019080838360005b838110156110a0578082015181840152602081019050611085565b50505050905090810190601f1680156110cd5780820380516001836020036101000a031916815260200191505b5086810385528d818151815260200191508051906020019080838360005b838110156111065780820151818401526020810190506110eb565b50505050905090810190601f1680156111335780820380516001836020036101000a031916815260200191505b5086810384528c818151815260200191508051906020019080838360005b8381101561116c578082015181840152602081019050611151565b50505050905090810190601f1680156111995780820380516001836020036101000a031916815260200191505b5086810383528b818151815260200191508051906020019080838360005b838110156111d25780820151818401526020810190506111b7565b50505050905090810190601f1680156111ff5780820380516001836020036101000a031916815260200191505b50868103825287818151815260200191508051906020019080838360005b8381101561123857808201518184015260208101905061121d565b50505050905090810190601f1680156112655780820380516001836020036101000a031916815260200191505b509e50505050505050505050505050505060405180910390f35b34801561128b57600080fd5b506113dc600480360360408110156112a257600080fd5b81019080803590602001906401000000008111156112bf57600080fd5b8201836020820111156112d157600080fd5b803590602001918460018302840111640100000000831117156112f357600080fd5b91908080601f016020809104026020016040519081016040528093929190818152602001838380828437600081840152601f19601f8201169050808301925050505050505091929192908035906020019064010000000081111561135657600080fd5b82018360208201111561136857600080fd5b8035906020019184600183028401116401000000008311171561138a57600080fd5b91908080601f016020809104026020016040519081016040528093929190818152602001838380828437600081840152601f19601f82011690508083019250505050505050919291929050505061412e565b604051808215151515815260200191505060405180910390f35b34801561140257600080fd5b5061140b61421d565b6040518082815260200191505060405180910390f35b34801561142d57600080fd5b5061147a6004803603604081101561144457600080fd5b81019080803573ffffffffffffffffffffffffffffffffffffffff16906020019092919080359060200190929190505050614223565b6040518082815260200191505060405180910390f35b34801561149c57600080fd5b506114c9600480360360208110156114b357600080fd5b8101908080359060200190929190505050614248565b005b3480156114d757600080fd5b50611803600480360360e08110156114ee57600080fd5b810190808035906020019064010000000081111561150b57600080fd5b82018360208201111561151d57600080fd5b8035906020019184600183028401116401000000008311171561153f57600080fd5b91908080601f016020809104026020016040519081016040528093929190818152602001838380828437600081840152601f19601f820116905080830192505050505050509192919290803590602001906401000000008111156115a257600080fd5b8201836020820111156115b457600080fd5b803590602001918460018302840111640100000000831117156115d657600080fd5b91908080601f016020809104026020016040519081016040528093929190818152602001838380828437600081840152601f19601f8201169050808301925050505050505091929192908035906020019064010000000081111561163957600080fd5b82018360208201111561164b57600080fd5b8035906020019184600183028401116401000000008311171561166d57600080fd5b91908080601f016020809104026020016040519081016040528093929190818152602001838380828437600081840152601f19601f820116905080830192505050505050509192919290803590602001906401000000008111156116d057600080fd5b8201836020820111156116e257600080fd5b8035906020019184600183028401116401000000008311171561170457600080fd5b91908080601f016020809104026020016040519081016040528093929190818152602001838380828437600081840152601f19601f820116905080830192505050505050509192919290803590602001909291908035151590602001909291908035906020019064010000000081111561177d57600080fd5b82018360208201111561178f57600080fd5b803590602001918460018302840111640100000000831117156117b157600080fd5b91908080601f016020809104026020016040519081016040528093929190818152602001838380828437600081840152601f19601f82011690508083019250505050505050919291929050505061432c565b005b34801561181157600080fd5b5061181a6149d7565b6040518082815260200191505060405180910390f35b34801561183c57600080fd5b506118f66004803603602081101561185357600080fd5b810190808035906020019064010000000081111561187057600080fd5b82018360208201111561188257600080fd5b803590602001918460018302840111640100000000831117156118a457600080fd5b91908080601f016020809104026020016040519081016040528093929190818152602001838380828437600081840152601f19601f8201169050808301925050505050505091929192905050506149e4565b6040518080602001828103825283818151815260200191508051906020019060200280838360005b8381101561193957808201518184015260208101905061191e565b505050509050019250505060405180910390f35b34801561195957600080fd5b5061196261513c565b604051808273ffffffffffffffffffffffffffffffffffffffff1673ffffffffffffffffffffffffffffffffffffffff16815260200191505060405180910390f35b600115156009600083815260200190815260200160002060009054906101000a900460ff16151514611a3e576040517f08c379a00000000000000000000000000000000000000000000000000000000081526004018080602001828103825260128152602001807f426f6f6b20646f65736e2774206578697374000000000000000000000000000081525060200191505060405180910390fd5b60006006600083815260200190815260200160002060070160006101000a81548160ff02191690831515021790555080600c60008381526020019081526020016000208190555050565b6004602052816000526040600020602052806000526040600020600091509150505481565b60105481565b60606000600a805490509050606083604051908082528060200260200182016040528015611af05781602001602082028038833980820191505090505b509050600080905060008090505b83811015611b7d576000600c6000600a8481548110611b1957fe5b906000526020600020015481526020019081526020016000205490506000801b8114611b6f5780848481518110611b4c57fe5b602002602001018181525050828060010193505086831115611b6e5750611b7d565b5b508080600101915050611afe565b50819350505050919050565b6006602052806000526040600020600091509050806000015490806001018054600181600116156101000203166002900480601f016020809104026020016040519081016040528092919081815260200182805460018160011615610100020316600290048015611c3b5780601f10611c1057610100808354040283529160200191611c3b565b820191906000526020600020905b815481529060010190602001808311611c1e57829003601f168201915b505050505090806002018054600181600116156101000203166002900480601f016020809104026020016040519081016040528092919081815260200182805460018160011615610100020316600290048015611cd95780601f10611cae57610100808354040283529160200191611cd9565b820191906000526020600020905b815481529060010190602001808311611cbc57829003601f168201915b505050505090806003018054600181600116156101000203166002900480601f016020809104026020016040519081016040528092919081815260200182805460018160011615610100020316600290048015611d775780601f10611d4c57610100808354040283529160200191611d77565b820191906000526020600020905b815481529060010190602001808311611d5a57829003601f168201915b505050505090806004018054600181600116156101000203166002900480601f016020809104026020016040519081016040528092919081815260200182805460018160011615610100020316600290048015611e155780601f10611dea57610100808354040283529160200191611e15565b820191906000526020600020905b815481529060010190602001808311611df857829003601f168201915b5050505050908060050160009054906101000a900473ffffffffffffffffffffffffffffffffffffffff16908060060154908060070160009054906101000a900460ff1690806008018054600181600116156101000203166002900480601f016020809104026020016040519081016040528092919081815260200182805460018160011615610100020316600290048015611ef25780601f10611ec757610100808354040283529160200191611ef2565b820191906000526020600020905b815481529060010190602001808311611ed557829003601f168201915b5050505050905089565b6001602052816000526040600020602052806000526040600020600091509150505481565b6009600086815260200190815260200160002060009054906101000a900460ff16611f97576040517f08c379a00000000000000000000000000000000000000000000000000000000081526004018080602001828103825260238152602001806152ff6023913960400191505060405180910390fd5b600084511161200e576040517f08c379a00000000000000000000000000000000000000000000000000000000081526004018080602001828103825260148152602001807f546865206e616d65206d7573742062652073657400000000000000000000000081525060200191505060405180910390fd5b6000835111612085576040517f08c379a00000000000000000000000000000000000000000000000000000000081526004018080602001828103825260208152602001807f5468652044656c69766572792041646472657373206d7573742062652073657481525060200191505060405180910390fd5b600082116120fb576040517f08c379a000000000000000000000000000000000000000000000000000000000815260040180806020018281038252601b8152602001807f54686520706f7374616c20636f6465206d75737420626520736574000000000081525060200191505060405180910390fd5b60008111612171576040517f08c379a000000000000000000000000000000000000000000000000000000000815260040180806020018281038252601c8152602001807f5468652050686f6e65204e756d626572206d757374206265207365740000000081525060200191505060405180910390fd5b600033905060006002868887856040516020018085805190602001908083835b602083106121b45780518252602082019150602081019050602083039250612191565b6001836020036101000a03801982511681845116808217855250505050505090500184815260200183805190602001908083835b6020831061220b57805182526020820191506020810190506020830392506121e8565b6001836020036101000a0380198251168184511680821785525050505050509050018273ffffffffffffffffffffffffffffffffffffffff1673ffffffffffffffffffffffffffffffffffffffff1660601b81526014019450505050506040516020818303038152906040526040518082805190602001908083835b602083106122aa5780518252602082019150602081019050602083039250612287565b6001836020036101000a038019825116818451168082178552505050505050905001915050602060405180830381855afa1580156122ec573d6000803e3d6000fd5b5050506040513d602081101561230157600080fd5b8101908080519060200190929190505050905061231c615162565b600660008981526020019081526020016000206040518061012001604052908160008201548152602001600182018054600181600116156101000203166002900480601f0160208091040260200160405190810160405280929190818152602001828054600181600116156101000203166002900480156123de5780601f106123b3576101008083540402835291602001916123de565b820191906000526020600020905b8154815290600101906020018083116123c157829003601f168201915b50505050508152602001600282018054600181600116156101000203166002900480601f0160208091040260200160405190810160405280929190818152602001828054600181600116156101000203166002900480156124805780601f1061245557610100808354040283529160200191612480565b820191906000526020600020905b81548152906001019060200180831161246357829003601f168201915b50505050508152602001600382018054600181600116156101000203166002900480601f0160208091040260200160405190810160405280929190818152602001828054600181600116156101000203166002900480156125225780601f106124f757610100808354040283529160200191612522565b820191906000526020600020905b81548152906001019060200180831161250557829003601f168201915b50505050508152602001600482018054600181600116156101000203166002900480601f0160208091040260200160405190810160405280929190818152602001828054600181600116156101000203166002900480156125c45780601f10612599576101008083540402835291602001916125c4565b820191906000526020600020905b8154815290600101906020018083116125a757829003601f168201915b505050505081526020016005820160009054906101000a900473ffffffffffffffffffffffffffffffffffffffff1673ffffffffffffffffffffffffffffffffffffffff1673ffffffffffffffffffffffffffffffffffffffff168152602001600682015481526020016007820160009054906101000a900460ff16151515158152602001600882018054600181600116156101000203166002900480601f0160208091040260200160405190810160405280929190818152602001828054600181600116156101000203166002900480156126e15780601f106126b6576101008083540402835291602001916126e1565b820191906000526020600020905b8154815290600101906020018083116126c457829003601f168201915b50505050508152505090506126f46151c9565b6040518061010001604052808481526020018a81526020018981526020018881526020018781526020018681526020016040518060400160405280600781526020017f70656e64696e670000000000000000000000000000000000000000000000000081525081526020013373ffffffffffffffffffffffffffffffffffffffff1681525090508160c0015134146127d7576040517f08c379a000000000000000000000000000000000000000000000000000000000815260040180806020018281038252602b815260200180615322602b913960400191505060405180910390fd5b82600160008460a0015173ffffffffffffffffffffffffffffffffffffffff1673ffffffffffffffffffffffffffffffffffffffff16815260200190815260200160002060008581526020019081526020016000208190555082600260008673ffffffffffffffffffffffffffffffffffffffff1673ffffffffffffffffffffffffffffffffffffffff168152602001908152602001600020600085815260200190815260200160002081905550600560008360a0015173ffffffffffffffffffffffffffffffffffffffff1673ffffffffffffffffffffffffffffffffffffffff168152602001908152602001600020839080600181540180825580915050906001820390600052602060002001600090919290919091505550600560008573ffffffffffffffffffffffffffffffffffffffff1673ffffffffffffffffffffffffffffffffffffffff168152602001908152602001600020839080600181540180825580915050906001820390600052602060002001600090919290919091505550600b8390806001815401808255809150509060018203906000526020600020016000909192909190915055508060086000858152602001908152602001600020600082015181600001556020820151816001015560408201518160020190805190602001906129cb92919061522a565b5060608201518160030190805190602001906129e892919061522a565b506080820151816004015560a0820151816005015560c0820151816006019080519060200190612a1992919061522a565b5060e08201518160070160006101000a81548173ffffffffffffffffffffffffffffffffffffffff021916908373ffffffffffffffffffffffffffffffffffffffff160217905550905050600c6000848152602001908152602001600020600090556000600660008b815260200190815260200160002060070160006101000a81548160ff0219169083151502179055508160a0015173ffffffffffffffffffffffffffffffffffffffff166108fc8360c001519081150290604051600060405180830381858888f19350505050158015612af8573d6000803e3d6000fd5b50505050505050505050565b6000602052816000526040600020602052806000526040600020600091509150505481565b6008602052806000526040600020600091509050806000015490806001015490806002018054600181600116156101000203166002900480601f016020809104026020016040519081016040528092919081815260200182805460018160011615610100020316600290048015612be15780601f10612bb657610100808354040283529160200191612be1565b820191906000526020600020905b815481529060010190602001808311612bc457829003601f168201915b505050505090806003018054600181600116156101000203166002900480601f016020809104026020016040519081016040528092919081815260200182805460018160011615610100020316600290048015612c7f5780601f10612c5457610100808354040283529160200191612c7f565b820191906000526020600020905b815481529060010190602001808311612c6257829003601f168201915b505050505090806004015490806005015490806006018054600181600116156101000203166002900480601f016020809104026020016040519081016040528092919081815260200182805460018160011615610100020316600290048015612d295780601f10612cfe57610100808354040283529160200191612d29565b820191906000526020600020905b815481529060010190602001808311612d0c57829003601f168201915b5050505050908060070160009054906101000a900473ffffffffffffffffffffffffffffffffffffffff16905088565b60076020528160005260406000208181548110612d7257fe5b906000526020600020016000915091509054906101000a900473ffffffffffffffffffffffffffffffffffffffff1681565b600a8181548110612db157fe5b906000526020600020016000915090505481565b600f5481565b6003602052816000526040600020602052806000526040600020600091509150505481565b60056020528160005260406000208181548110612e0957fe5b90600052602060002001600091509150505481565b60606000600a8054905090506000600182039050600080905082851315612e485760009050612e4e565b84830390505b6000858413612e5d5783612e5f565b855b9050606081604051908082528060200260200182016040528015612e925781602001602082028038833980820191505090505b509050600080905060008490505b858113612f09576000600a8281548110612eb657fe5b906000526020600020015490506000801b8114612eed5780848481518110612eda57fe5b6020026020010181815250506001830192505b89831115612efb5750612f09565b508080600101915050612ea0565b50819650505050505050919050565b612f206151c9565b60086000838152602001908152602001600020604051806101000160405290816000820154815260200160018201548152602001600282018054600181600116156101000203166002900480601f016020809104026020016040519081016040528092919081815260200182805460018160011615610100020316600290048015612fec5780601f10612fc157610100808354040283529160200191612fec565b820191906000526020600020905b815481529060010190602001808311612fcf57829003601f168201915b50505050508152602001600382018054600181600116156101000203166002900480601f01602080910402602001604051908101604052809291908181526020018280546001816001161561010002031660029004801561308e5780601f106130635761010080835404028352916020019161308e565b820191906000526020600020905b81548152906001019060200180831161307157829003601f168201915b505050505081526020016004820154815260200160058201548152602001600682018054600181600116156101000203166002900480601f0160208091040260200160405190810160405280929190818152602001828054600181600116156101000203166002900480156131445780601f1061311957610100808354040283529160200191613144565b820191906000526020600020905b81548152906001019060200180831161312757829003601f168201915b505050505081526020016007820160009054906101000a900473ffffffffffffffffffffffffffffffffffffffff1673ffffffffffffffffffffffffffffffffffffffff1673ffffffffffffffffffffffffffffffffffffffff168152505090506131ad615162565b60066000836020015181526020019081526020016000206040518061012001604052908160008201548152602001600182018054600181600116156101000203166002900480601f0160208091040260200160405190810160405280929190818152602001828054600181600116156101000203166002900480156132735780601f1061324857610100808354040283529160200191613273565b820191906000526020600020905b81548152906001019060200180831161325657829003601f168201915b50505050508152602001600282018054600181600116156101000203166002900480601f0160208091040260200160405190810160405280929190818152602001828054600181600116156101000203166002900480156133155780601f106132ea57610100808354040283529160200191613315565b820191906000526020600020905b8154815290600101906020018083116132f857829003601f168201915b50505050508152602001600382018054600181600116156101000203166002900480601f0160208091040260200160405190810160405280929190818152602001828054600181600116156101000203166002900480156133b75780601f1061338c576101008083540402835291602001916133b7565b820191906000526020600020905b81548152906001019060200180831161339a57829003601f168201915b50505050508152602001600482018054600181600116156101000203166002900480601f0160208091040260200160405190810160405280929190818152602001828054600181600116156101000203166002900480156134595780601f1061342e57610100808354040283529160200191613459565b820191906000526020600020905b81548152906001019060200180831161343c57829003601f168201915b505050505081526020016005820160009054906101000a900473ffffffffffffffffffffffffffffffffffffffff1673ffffffffffffffffffffffffffffffffffffffff1673ffffffffffffffffffffffffffffffffffffffff168152602001600682015481526020016007820160009054906101000a900460ff16151515158152602001600882018054600181600116156101000203166002900480601f0160208091040260200160405190810160405280929190818152602001828054600181600116156101000203166002900480156135765780601f1061354b57610100808354040283529160200191613576565b820191906000526020600020905b81548152906001019060200180831161355957829003601f168201915b50505050508152505090503373ffffffffffffffffffffffffffffffffffffffff168160a0015173ffffffffffffffffffffffffffffffffffffffff1614613609576040517f08c379a000000000000000000000000000000000000000000000000000000000815260040180806020018281038252602f8152602001806152d0602f913960400191505060405180910390fd5b6040518060400160405280600981526020017f636f6d706c6574656400000000000000000000000000000000000000000000008152508260c0018190525060008260e0015190506000600160003373ffffffffffffffffffffffffffffffffffffffff1673ffffffffffffffffffffffffffffffffffffffff16815260200190815260200160002060008681526020019081526020016000205490506000600260008473ffffffffffffffffffffffffffffffffffffffff1673ffffffffffffffffffffffffffffffffffffffff168152602001908152602001600020600087815260200190815260200160002054905081600360003373ffffffffffffffffffffffffffffffffffffffff1673ffffffffffffffffffffffffffffffffffffffff16815260200190815260200160002060008881526020019081526020016000208190555080600460008573ffffffffffffffffffffffffffffffffffffffff1673ffffffffffffffffffffffffffffffffffffffff168152602001908152602001600020600088815260200190815260200160002081905550600160003373ffffffffffffffffffffffffffffffffffffffff1673ffffffffffffffffffffffffffffffffffffffff168152602001908152602001600020600087815260200190815260200160002060009055600260008473ffffffffffffffffffffffffffffffffffffffff1673ffffffffffffffffffffffffffffffffffffffff168152602001908152602001600020600087815260200190815260200160002060009055828460a0019073ffffffffffffffffffffffffffffffffffffffff16908173ffffffffffffffffffffffffffffffffffffffff168152505060076000856000015181526020019081526020016000203390806001815401808255809150509060018203906000526020600020016000909192909190916101000a81548173ffffffffffffffffffffffffffffffffffffffff021916908373ffffffffffffffffffffffffffffffffffffffff1602179055505060008060003373ffffffffffffffffffffffffffffffffffffffff1673ffffffffffffffffffffffffffffffffffffffff168152602001908152602001600020600086600001518152602001908152602001600020549050806000808673ffffffffffffffffffffffffffffffffffffffff1673ffffffffffffffffffffffffffffffffffffffff16815260200190815260200160002060008381526020019081526020016000208190555050505050505050565b60096020528060005260406000206000915054906101000a900460ff1681565b600080600a805490509050828111915050919050565b600c6020528060005260406000206000915090505481565b600060608060008060606000613a166151c9565b600860008a8152602001908152602001600020604051806101000160405290816000820154815260200160018201548152602001600282018054600181600116156101000203166002900480601f016020809104026020016040519081016040528092919081815260200182805460018160011615610100020316600290048015613ae25780601f10613ab757610100808354040283529160200191613ae2565b820191906000526020600020905b815481529060010190602001808311613ac557829003601f168201915b50505050508152602001600382018054600181600116156101000203166002900480601f016020809104026020016040519081016040528092919081815260200182805460018160011615610100020316600290048015613b845780601f10613b5957610100808354040283529160200191613b84565b820191906000526020600020905b815481529060010190602001808311613b6757829003601f168201915b505050505081526020016004820154815260200160058201548152602001600682018054600181600116156101000203166002900480601f016020809104026020016040519081016040528092919081815260200182805460018160011615610100020316600290048015613c3a5780601f10613c0f57610100808354040283529160200191613c3a565b820191906000526020600020905b815481529060010190602001808311613c1d57829003601f168201915b505050505081526020016007820160009054906101000a900473ffffffffffffffffffffffffffffffffffffffff1673ffffffffffffffffffffffffffffffffffffffff1673ffffffffffffffffffffffffffffffffffffffff16815250509050806000015197508060400151965080606001519550806080015194508060a0015193508060c0015192508060e00151915050919395979092949650565b600b8181548110613ce557fe5b906000526020600020016000915090505481565b600060608060608060008060006060613d10615162565b600660008c81526020019081526020016000206040518061012001604052908160008201548152602001600182018054600181600116156101000203166002900480601f016020809104026020016040519081016040528092919081815260200182805460018160011615610100020316600290048015613dd25780601f10613da757610100808354040283529160200191613dd2565b820191906000526020600020905b815481529060010190602001808311613db557829003601f168201915b50505050508152602001600282018054600181600116156101000203166002900480601f016020809104026020016040519081016040528092919081815260200182805460018160011615610100020316600290048015613e745780601f10613e4957610100808354040283529160200191613e74565b820191906000526020600020905b815481529060010190602001808311613e5757829003601f168201915b50505050508152602001600382018054600181600116156101000203166002900480601f016020809104026020016040519081016040528092919081815260200182805460018160011615610100020316600290048015613f165780601f10613eeb57610100808354040283529160200191613f16565b820191906000526020600020905b815481529060010190602001808311613ef957829003601f168201915b50505050508152602001600482018054600181600116156101000203166002900480601f016020809104026020016040519081016040528092919081815260200182805460018160011615610100020316600290048015613fb85780601f10613f8d57610100808354040283529160200191613fb8565b820191906000526020600020905b815481529060010190602001808311613f9b57829003601f168201915b505050505081526020016005820160009054906101000a900473ffffffffffffffffffffffffffffffffffffffff1673ffffffffffffffffffffffffffffffffffffffff1673ffffffffffffffffffffffffffffffffffffffff168152602001600682015481526020016007820160009054906101000a900460ff16151515158152602001600882018054600181600116156101000203166002900480601f0160208091040260200160405190810160405280929190818152602001828054600181600116156101000203166002900480156140d55780601f106140aa576101008083540402835291602001916140d5565b820191906000526020600020905b8154815290600101906020018083116140b857829003601f168201915b505050505081525050905080600001519950806020015198508060400151975080606001519650806080015195508060a0015194508060c0015193508060e0015192508061010001519150509193959799909294969850565b6000816040516020018082805190602001908083835b602083106141675780518252602082019150602081019050602083039250614144565b6001836020036101000a03801982511681845116808217855250505050505090500191505060405160208183030381529060405280519060200120836040516020018082805190602001908083835b602083106141d957805182526020820191506020810190506020830392506141b6565b6001836020036101000a0380198251168184511680821785525050505050509050019150506040516020818303038152906040528051906020012014905092915050565b600d5481565b6002602052816000526040600020602052806000526040600020600091509150505481565b600115156009600083815260200190815260200160002060009054906101000a900460ff161515146142e2576040517f08c379a00000000000000000000000000000000000000000000000000000000081526004018080602001828103825260128152602001807f426f6f6b20646f65736e2774206578697374000000000000000000000000000081525060200191505060405180910390fd5b60016006600083815260200190815260200160002060070160006101000a81548160ff02191690831515021790555080600c60008381526020019081526020016000208190555050565b60008751116143a3576040517f08c379a00000000000000000000000000000000000000000000000000000000081526004018080602001828103825260168152602001807f426f6f6b204e616d65206973206e65636573736172790000000000000000000081525060200191505060405180910390fd5b600086511161441a576040517f08c379a00000000000000000000000000000000000000000000000000000000081526004018080602001828103825260118152602001807f4953424e206973206e656365737361727900000000000000000000000000000081525060200191505060405180910390fd5b6000855111614491576040517f08c379a00000000000000000000000000000000000000000000000000000000081526004018080602001828103825260188152602001807f417574686f72204e616d65206973206e6563657373617279000000000000000081525060200191505060405180910390fd5b60008311614507576040517f08c379a00000000000000000000000000000000000000000000000000000000081526004018080602001828103825260128152602001807f5072696365206973206e6563657373617279000000000000000000000000000081525060200191505060405180910390fd5b8161451157600091505b600033905060006002898989856040516020018085805190602001908083835b602083106145545780518252602082019150602081019050602083039250614531565b6001836020036101000a03801982511681845116808217855250505050505090500184805190602001908083835b602083106145a55780518252602082019150602081019050602083039250614582565b6001836020036101000a03801982511681845116808217855250505050505090500183805190602001908083835b602083106145f657805182526020820191506020810190506020830392506145d3565b6001836020036101000a0380198251168184511680821785525050505050509050018273ffffffffffffffffffffffffffffffffffffffff1673ffffffffffffffffffffffffffffffffffffffff1660601b81526014019450505050506040516020818303038152906040526040518082805190602001908083835b602083106146955780518252602082019150602081019050602083039250614672565b6001836020036101000a038019825116818451168082178552505050505050905001915050602060405180830381855afa1580156146d7573d6000803e3d6000fd5b5050506040513d60208110156146ec57600080fd5b81019080805190602001909291905050509050600015156009600083815260200190815260200160002060009054906101000a900460ff16151514614799576040517f08c379a00000000000000000000000000000000000000000000000000000000081526004018080602001828103825260138152602001807f426f6f6b20616c7265616479206578697374730000000000000000000000000081525060200191505060405180910390fd5b6147a1615162565b6040518061012001604052808381526020018b81526020018a81526020018981526020018881526020018473ffffffffffffffffffffffffffffffffffffffff1681526020018781526020018615158152602001858152509050600a829080600181540180825580915050906001820390600052602060002001600090919290919091505550816000803373ffffffffffffffffffffffffffffffffffffffff1673ffffffffffffffffffffffffffffffffffffffff16815260200190815260200160002060008481526020019081526020016000208190555080600660008481526020019081526020016000206000820151816000015560208201518160010190805190602001906148b592919061522a565b5060408201518160020190805190602001906148d292919061522a565b5060608201518160030190805190602001906148ef92919061522a565b50608082015181600401908051906020019061490c92919061522a565b5060a08201518160050160006101000a81548173ffffffffffffffffffffffffffffffffffffffff021916908373ffffffffffffffffffffffffffffffffffffffff16021790555060c0820151816006015560e08201518160070160006101000a81548160ff02191690831515021790555061010082015181600801908051906020019061499b92919061522a565b5090505060016009600084815260200190815260200160002060006101000a81548160ff02191690831515021790555050505050505050505050565b6000600a80549050905090565b6060600080339050614a2b846040518060400160405280600e81526020017f70656e64696e672d73656c6c657200000000000000000000000000000000000081525061412e565b15614bbe57600560008273ffffffffffffffffffffffffffffffffffffffff1673ffffffffffffffffffffffffffffffffffffffff168152602001908152602001600020805490509150600060018303905060008090506060600182840301604051908082528060200260200182016040528015614ab85781602001602082028038833980820191505090505b50905060008090505b85811215614bb0576000600160008773ffffffffffffffffffffffffffffffffffffffff1673ffffffffffffffffffffffffffffffffffffffff1681526020019081526020016000206000600560008973ffffffffffffffffffffffffffffffffffffffff1673ffffffffffffffffffffffffffffffffffffffff1681526020019081526020016000208481548110614b5657fe5b9060005260206000200154815260200190815260200160002054905060008090506000801b8214614ba15781848281518110614b8e57fe5b6020026020010181815250506001810190505b50508080600101915050614ac1565b508095505050505050615137565b614bfd846040518060400160405280600d81526020017f70656e64696e672d62757965720000000000000000000000000000000000000081525061412e565b15614d9057600560008273ffffffffffffffffffffffffffffffffffffffff1673ffffffffffffffffffffffffffffffffffffffff168152602001908152602001600020805490509150600060018303905060008090506060600182840301604051908082528060200260200182016040528015614c8a5781602001602082028038833980820191505090505b50905060008090505b85811215614d82576000600260008773ffffffffffffffffffffffffffffffffffffffff1673ffffffffffffffffffffffffffffffffffffffff1681526020019081526020016000206000600560008973ffffffffffffffffffffffffffffffffffffffff1673ffffffffffffffffffffffffffffffffffffffff1681526020019081526020016000208481548110614d2857fe5b9060005260206000200154815260200190815260200160002054905060008090506000801b8214614d735781848281518110614d6057fe5b6020026020010181815250506001810190505b50508080600101915050614c93565b508095505050505050615137565b614dcf846040518060400160405280601081526020017f636f6d706c657465642d73656c6c65720000000000000000000000000000000081525061412e565b15614f6257600560008273ffffffffffffffffffffffffffffffffffffffff1673ffffffffffffffffffffffffffffffffffffffff168152602001908152602001600020805490509150600060018303905060008090506060600182840301604051908082528060200260200182016040528015614e5c5781602001602082028038833980820191505090505b50905060008090505b85811215614f54576000600360008773ffffffffffffffffffffffffffffffffffffffff1673ffffffffffffffffffffffffffffffffffffffff1681526020019081526020016000206000600560008973ffffffffffffffffffffffffffffffffffffffff1673ffffffffffffffffffffffffffffffffffffffff1681526020019081526020016000208481548110614efa57fe5b9060005260206000200154815260200190815260200160002054905060008090506000801b8214614f455781848281518110614f3257fe5b6020026020010181815250506001810190505b50508080600101915050614e65565b508095505050505050615137565b614fa1846040518060400160405280600f81526020017f636f6d706c657465642d6275796572000000000000000000000000000000000081525061412e565b1561513457600560008273ffffffffffffffffffffffffffffffffffffffff1673ffffffffffffffffffffffffffffffffffffffff16815260200190815260200160002080549050915060006001830390506000809050606060018284030160405190808252806020026020018201604052801561502e5781602001602082028038833980820191505090505b50905060008090505b85811215615126576000600460008773ffffffffffffffffffffffffffffffffffffffff1673ffffffffffffffffffffffffffffffffffffffff1681526020019081526020016000206000600560008973ffffffffffffffffffffffffffffffffffffffff1673ffffffffffffffffffffffffffffffffffffffff16815260200190815260200160002084815481106150cc57fe5b9060005260206000200154815260200190815260200160002054905060008090506000801b8214615117578184828151811061510457fe5b6020026020010181815250506001810190505b50508080600101915050615037565b508095505050505050615137565b50505b919050565b600e60009054906101000a900473ffffffffffffffffffffffffffffffffffffffff1681565b6040518061012001604052806000801916815260200160608152602001606081526020016060815260200160608152602001600073ffffffffffffffffffffffffffffffffffffffff16815260200160008152602001600015158152602001606081525090565b60405180610100016040528060008019168152602001600080191681526020016060815260200160608152602001600081526020016000815260200160608152602001600073ffffffffffffffffffffffffffffffffffffffff1681525090565b828054600181600116156101000203166002900490600052602060002090601f016020900481019282601f1061526b57805160ff1916838001178555615299565b82800160010185558215615299579182015b8281111561529857825182559160200191906001019061527d565b5b5090506152a691906152aa565b5090565b6152cc91905b808211156152c85760008160009055506001016152b0565b5090565b9056fe4f6e6c79207468652073656c6c65722063616e206d61726b20746865206f7264657220617320636f6d706c6574656454686520626f6f6b206d75737420657869737420746f20626520707572636861736564546865207061796d656e74206d75737420626520657175616c20746f2074686520626f6f6b207072696365a265627a7a72315820ab0f0848390d399cdf53216aa0f06129d2fa976de15ade12648f2a74ddce4c1864736f6c63430005100032",
  "source": "pragma solidity ^0.5.0;\n\ncontract BookStore {\n    struct Book {\n        bytes32 id;\n        string title;\n        string isbn;\n        string author;\n        string category;\n        address payable owner;\n        uint256 price;\n        bool forSale;\n        string image;\n    }\n    struct Order {\n        bytes32 id;\n        bytes32 bookId;\n        string name;\n        string deliveryAddress;\n        uint256 postalCode;\n        uint256 phone;\n        string state; // Either 'pending', 'completed'\n        address customer;\n    }\n\n    mapping(address => mapping(bytes32 => bytes32)) public ownerProducts; // Seller address => books ; The books added by the seller\n    mapping(address => mapping(bytes32 => bytes32)) public pendingSellerOrders; // Seller address => orders ; The books waiting to be fulfilled by the seller, used by sellers to check which orders have to be fulfilled\n    mapping(address => mapping(bytes32 => bytes32)) public pendingBuyerOrders; //Buyer address => orders ;The books that the buyer purchased waiting to be sent\n    mapping(address => mapping(bytes32 => bytes32))\n        public completedSellerOrders; // Seller address => orders  A history of past orders fulfilled by the seller\n    mapping(address => mapping(bytes32 => bytes32)) public completedBuyerOrders; // Buyer address => orders A history of past orders made by this buyer\n    mapping(address => bytes32[]) public userOrders;\n    mapping(bytes32 => Book) public bookById; // Book id => book\n\n    mapping(bytes32 => address[]) public previousOwners; // Book id => previousOwners\n    mapping(bytes32 => Order) public orderById; // book id => order\n    mapping(bytes32 => bool) public bookExists; // Book id => true or false\n    bytes32[] public books;\n    bytes32[] public orders;\n    mapping(bytes32 => bytes32) public booksForSale;\n    uint256 public lastId;\n    address public token;\n    uint256 public lastPendingSellerOrder;\n    uint256 public lastPendingBuyerOrder;\n\n    function addBook(\n        string memory _title,\n        string memory _isbn,\n        string memory _author,\n        string memory _category,\n        uint256 _price,\n        bool _forSale,\n        string memory _image\n    ) public {\n        require(bytes(_title).length > 0, \"Book Name is necessary\");\n        require(bytes(_isbn).length > 0, \"ISBN is necessary\");\n        require(bytes(_author).length > 0, \"Author Name is necessary\");\n        require(_price > 0, \"Price is necessary\");\n        if (!(_forSale)) _forSale = false;\n        address payable owner = msg.sender;\n        bytes32 id = sha256(abi.encodePacked(_title, _isbn, _author, owner));\n        require(bookExists[id] == false, \"Book already exists\");\n        Book memory b =\n            Book(\n                id,\n                _title,\n                _isbn,\n                _author,\n                _category,\n                owner,\n                _price,\n                _forSale,\n                _image\n            );\n        books.push(id);\n        ownerProducts[msg.sender][id] = id;\n        bookById[id] = b;\n        bookExists[id] = true;\n    }\n\n    function sellBook(bytes32 _id) public {\n        require(bookExists[_id] == true, \"Book doesn't exist\");\n        bookById[_id].forSale = true;\n        booksForSale[_id] = _id;\n    }\n\n    function unSellBook(bytes32 _id) public {\n        require(bookExists[_id] == true, \"Book doesn't exist\");\n        bookById[_id].forSale = false;\n        booksForSale[_id] = _id;\n    }\n\n    function buyBook(\n        bytes32 _id,\n        string memory _name,\n        string memory _deliveryAddress,\n        uint256 _postalCode,\n        uint256 _phone\n    ) public payable {\n        require(bookExists[_id], \"The book must exist to be purchased\");\n        require(bytes(_name).length > 0, \"The name must be set\");\n        require(\n            bytes(_deliveryAddress).length > 0,\n            \"The Delivery Address must be set\"\n        );\n        require(_postalCode > 0, \"The postal code must be set\");\n        require(_phone > 0, \"The Phone Number must be set\");\n        address payable customer = msg.sender;\n        bytes32 id =\n            sha256(abi.encodePacked(_name, _id, _deliveryAddress, customer)); // using name, book id , delivery address and customer address to make order id\n        Book memory b = bookById[_id]; //Need to retrieve the book by it's id.\n        Order memory newOrder =\n            Order(\n                id,\n                _id,\n                _name,\n                _deliveryAddress,\n                _postalCode,\n                _phone,\n                \"pending\",\n                msg.sender\n            );\n        require(\n            msg.value == b.price,\n            \"The payment must be equal to the book price\"\n        );\n\n        pendingSellerOrders[b.owner][id] = id;\n        pendingBuyerOrders[customer][id] = id;\n        userOrders[b.owner].push(id);\n        userOrders[customer].push(id);\n        orders.push(id);\n        orderById[id] = newOrder;\n        delete (booksForSale[id]);\n        bookById[_id].forSale = false;\n        b.owner.transfer(b.price);\n    }\n\n    function markOrderCompleted(bytes32 _id) public {\n        Order memory order = orderById[_id];\n        Book memory book = bookById[order.bookId];\n        require(\n            book.owner == msg.sender,\n            \"Only the seller can mark the order as completed\"\n        );\n        order.state = \"completed\";\n        address customer = order.customer;\n        bytes32 pendingSellerOrderId = pendingSellerOrders[msg.sender][_id];\n        bytes32 pendingBuyerOrderId = pendingBuyerOrders[customer][_id];\n        completedSellerOrders[msg.sender][_id] = pendingSellerOrderId;\n        completedBuyerOrders[customer][_id] = pendingBuyerOrderId;\n        delete (pendingSellerOrders[msg.sender][_id]);\n        delete (pendingBuyerOrders[customer][_id]);\n        book.owner = address(uint160(customer));\n        previousOwners[book.id].push(msg.sender);\n        bytes32 bookId = ownerProducts[msg.sender][book.id];\n        ownerProducts[customer][bookId] = bookId;\n    }\n\n    function getBooksLength(uint256 _limit1) public view returns (bool) {\n        uint256 length = books.length;\n        return length > _limit1;\n    }\n\n    function getBooksIds(int256 _limit) public view returns (bytes32[] memory) {\n        int256 length = int256(books.length);\n        int256 start = length - 1;\n        int256 end = 0;\n        if (_limit > length) {\n            end = 0;\n        } else {\n            end = length - _limit;\n        }\n        uint256 size = (length) > _limit ? uint256(_limit) : uint256(length);\n        bytes32[] memory ids = new bytes32[](size);\n        uint256 inc = 0;\n        for (int256 i = end; i <= start; i++) {\n            bytes32 bookId = books[uint256(i)];\n            if (\n                bookId !=\n                0x0000000000000000000000000000000000000000000000000000000000000000\n            ) {\n                ids[inc] = bookId;\n                inc += 1;\n            }\n            if (inc > uint256(_limit)) {\n                break;\n            }\n        }\n        return ids;\n    }\n\n    function getBook(bytes32 _id)\n        public\n        view\n        returns (\n            bytes32 id,\n            string memory title,\n            string memory isbn,\n            string memory author,\n            string memory category,\n            address payable owner,\n            uint256 price,\n            bool forSale,\n            string memory image\n        )\n    {\n        Book memory b = bookById[_id];\n        id = b.id;\n        title = b.title;\n        isbn = b.isbn;\n        author = b.author;\n        category = b.category;\n        owner = b.owner;\n        price = b.price;\n        forSale = b.forSale;\n        image = b.image;\n    }\n\n    function getBooksForSaleCount() public view returns (uint256 length) {\n        return books.length;\n    }\n\n    function getBooksForSale(uint256 _limit)\n        public\n        view\n        returns (bytes32[] memory)\n    {\n        uint256 length;\n        length = uint256(books.length);\n        bytes32[] memory ids = new bytes32[](_limit);\n        uint256 inc = 0;\n        for (uint256 i = 0; i < length; i++) {\n            bytes32 id = booksForSale[books[i]];\n            if (\n                id !=\n                0x0000000000000000000000000000000000000000000000000000000000000000\n            ) {\n                ids[inc] = id;\n                inc++;\n                if (inc > _limit) {\n                    break;\n                }\n            }\n        }\n        return ids;\n    }\n\n    function getOrders(string memory _type)\n        public\n        view\n        returns (bytes32[] memory)\n    {\n        int256 length;\n        address _owner = msg.sender;\n\n        if (compareStrings(_type, \"pending-seller\")) {\n            length = int256(userOrders[_owner].length);\n            int256 start = length - 1;\n            int256 end = 0;\n            bytes32[] memory ids = new bytes32[](uint256(start - end + 1));\n            for (int256 i = 0; i < length; i++) {\n                bytes32 id =\n                    pendingSellerOrders[_owner][userOrders[_owner][uint256(i)]];\n                uint256 inc = 0;\n                if (\n                    id !=\n                    0x0000000000000000000000000000000000000000000000000000000000000000\n                ) {\n                    ids[inc] = id;\n                    inc += 1;\n                }\n            }\n            return ids;\n        } else if (compareStrings(_type, \"pending-buyer\")) {\n            length = int256(userOrders[_owner].length);\n            int256 start = length - 1;\n            int256 end = 0;\n            bytes32[] memory ids = new bytes32[](uint256(start - end + 1));\n            for (int256 i = 0; i < length; i++) {\n                bytes32 id =\n                    pendingBuyerOrders[_owner][userOrders[_owner][uint256(i)]];\n                uint256 inc = 0;\n                if (\n                    id !=\n                    0x0000000000000000000000000000000000000000000000000000000000000000\n                ) {\n                    ids[inc] = id;\n                    inc += 1;\n                }\n            }\n            return ids;\n        } else if (compareStrings(_type, \"completed-seller\")) {\n            length = int256(userOrders[_owner].length);\n            int256 start = length - 1;\n            int256 end = 0;\n            bytes32[] memory ids = new bytes32[](uint256(start - end + 1));\n            for (int256 i = 0; i < length; i++) {\n                bytes32 id =\n                    completedSellerOrders[_owner][\n                        userOrders[_owner][uint256(i)]\n                    ];\n                uint256 inc = 0;\n                if (\n                    id !=\n                    0x0000000000000000000000000000000000000000000000000000000000000000\n                ) {\n                    ids[inc] = id;\n                    inc += 1;\n                }\n            }\n            return ids;\n        } else if (compareStrings(_type, \"completed-buyer\")) {\n            length = int256(userOrders[_owner].length);\n            int256 start = length - 1;\n            int256 end = 0;\n            bytes32[] memory ids = new bytes32[](uint256(start - end + 1));\n            for (int256 i = 0; i < length; i++) {\n                bytes32 id =\n                    completedBuyerOrders[_owner][\n                        userOrders[_owner][uint256(i)]\n                    ];\n                uint256 inc = 0;\n                if (\n                    id !=\n                    0x0000000000000000000000000000000000000000000000000000000000000000\n                ) {\n                    ids[inc] = id;\n                    inc += 1;\n                }\n            }\n            return ids;\n        }\n    }\n\n    function getOrderById(bytes32 id)\n        public\n        view\n        returns (\n            bytes32 orderId,\n            string memory name,\n            string memory deliveryAddress,\n            uint256 postalCode,\n            uint256 phone,\n            string memory state,\n            address customer\n        )\n    {\n        Order memory o;\n        o = orderById[id];\n        orderId = o.id;\n        name = o.name;\n        deliveryAddress = o.deliveryAddress;\n        postalCode = o.postalCode;\n        phone = o.phone;\n        state = o.state;\n        customer = o.customer;\n    }\n\n    function compareStrings(string memory a, string memory b)\n        public\n        pure\n        returns (bool)\n    {\n        return keccak256(abi.encodePacked(a)) == keccak256(abi.encodePacked(b));\n    }\n}\n",
  "sourcePath": "/home/nmreddy/Code/CodeLite/Blockchain-Buyer-Seller-Market-BC_Team_6/contracts/BookStore.sol",
  "compiler": {
    "name": "solc",
    "version": "0.5.16+commit.9c3226ce.Emscripten.clang"
  },
  "schemaVersion": "3.3.4",
  "updatedAt": "2021-04-01T13:35:02.674Z",
  "networkType": "ethereum",
  "devdoc": {
    "methods": {}
  },
  "userdoc": {
    "methods": {}
  }
}