{
  "contractName": "BookStore",
  "abi": [
    {
      "inputs": [
        {
          "internalType": "address",
          "name": "_token",
          "type": "address"
        }
      ],
      "payable": false,
      "stateMutability": "nonpayable",
      "type": "constructor"
    },
    {
      "constant": true,
      "inputs": [
        {
          "internalType": "uint256",
          "name": "",
          "type": "uint256"
        }
      ],
      "name": "bookById",
      "outputs": [
        {
          "internalType": "uint256",
          "name": "id",
          "type": "uint256"
        },
        {
          "internalType": "string",
          "name": "title",
          "type": "string"
        },
        {
          "internalType": "string",
          "name": "isbn",
          "type": "string"
        },
        {
          "internalType": "string",
          "name": "author",
          "type": "string"
        },
        {
          "internalType": "string",
          "name": "category",
          "type": "string"
        },
        {
          "internalType": "address payable",
          "name": "owner",
          "type": "address"
        },
        {
          "internalType": "uint256",
          "name": "price",
          "type": "uint256"
        },
        {
          "internalType": "bool",
          "name": "forSale",
          "type": "bool"
        },
        {
          "internalType": "string",
          "name": "image",
          "type": "string"
        }
      ],
      "payable": false,
      "stateMutability": "view",
      "type": "function"
    },
    {
      "constant": true,
      "inputs": [
        {
          "internalType": "uint256",
          "name": "",
          "type": "uint256"
        }
      ],
      "name": "bookExists",
      "outputs": [
        {
          "internalType": "bool",
          "name": "",
          "type": "bool"
        }
      ],
      "payable": false,
      "stateMutability": "view",
      "type": "function"
    },
    {
      "constant": true,
      "inputs": [
        {
          "internalType": "uint256",
          "name": "",
          "type": "uint256"
        }
      ],
      "name": "books",
      "outputs": [
        {
          "internalType": "uint256",
          "name": "id",
          "type": "uint256"
        },
        {
          "internalType": "string",
          "name": "title",
          "type": "string"
        },
        {
          "internalType": "string",
          "name": "isbn",
          "type": "string"
        },
        {
          "internalType": "string",
          "name": "author",
          "type": "string"
        },
        {
          "internalType": "string",
          "name": "category",
          "type": "string"
        },
        {
          "internalType": "address payable",
          "name": "owner",
          "type": "address"
        },
        {
          "internalType": "uint256",
          "name": "price",
          "type": "uint256"
        },
        {
          "internalType": "bool",
          "name": "forSale",
          "type": "bool"
        },
        {
          "internalType": "string",
          "name": "image",
          "type": "string"
        }
      ],
      "payable": false,
      "stateMutability": "view",
      "type": "function"
    },
    {
      "constant": true,
      "inputs": [
        {
          "internalType": "address",
          "name": "",
          "type": "address"
        },
        {
          "internalType": "uint256",
          "name": "",
          "type": "uint256"
        }
      ],
      "name": "completedBuyerOrders",
      "outputs": [
        {
          "internalType": "uint256",
          "name": "id",
          "type": "uint256"
        },
        {
          "internalType": "string",
          "name": "name",
          "type": "string"
        },
        {
          "internalType": "string",
          "name": "deliveryAddress",
          "type": "string"
        },
        {
          "internalType": "uint256",
          "name": "postalCode",
          "type": "uint256"
        },
        {
          "internalType": "uint256",
          "name": "phone",
          "type": "uint256"
        },
        {
          "internalType": "string",
          "name": "state",
          "type": "string"
        },
        {
          "internalType": "address",
          "name": "customer",
          "type": "address"
        }
      ],
      "payable": false,
      "stateMutability": "view",
      "type": "function"
    },
    {
      "constant": true,
      "inputs": [
        {
          "internalType": "address",
          "name": "",
          "type": "address"
        },
        {
          "internalType": "uint256",
          "name": "",
          "type": "uint256"
        }
      ],
      "name": "completedSellerOrders",
      "outputs": [
        {
          "internalType": "uint256",
          "name": "id",
          "type": "uint256"
        },
        {
          "internalType": "string",
          "name": "name",
          "type": "string"
        },
        {
          "internalType": "string",
          "name": "deliveryAddress",
          "type": "string"
        },
        {
          "internalType": "uint256",
          "name": "postalCode",
          "type": "uint256"
        },
        {
          "internalType": "uint256",
          "name": "phone",
          "type": "uint256"
        },
        {
          "internalType": "string",
          "name": "state",
          "type": "string"
        },
        {
          "internalType": "address",
          "name": "customer",
          "type": "address"
        }
      ],
      "payable": false,
      "stateMutability": "view",
      "type": "function"
    },
    {
      "constant": true,
      "inputs": [],
      "name": "lastId",
      "outputs": [
        {
          "internalType": "uint256",
          "name": "",
          "type": "uint256"
        }
      ],
      "payable": false,
      "stateMutability": "view",
      "type": "function"
    },
    {
      "constant": true,
      "inputs": [],
      "name": "lastPendingBuyerOrder",
      "outputs": [
        {
          "internalType": "uint256",
          "name": "",
          "type": "uint256"
        }
      ],
      "payable": false,
      "stateMutability": "view",
      "type": "function"
    },
    {
      "constant": true,
      "inputs": [],
      "name": "lastPendingSellerOrder",
      "outputs": [
        {
          "internalType": "uint256",
          "name": "",
          "type": "uint256"
        }
      ],
      "payable": false,
      "stateMutability": "view",
      "type": "function"
    },
    {
      "constant": true,
      "inputs": [
        {
          "internalType": "uint256",
          "name": "",
          "type": "uint256"
        }
      ],
      "name": "orderById",
      "outputs": [
        {
          "internalType": "uint256",
          "name": "id",
          "type": "uint256"
        },
        {
          "internalType": "string",
          "name": "name",
          "type": "string"
        },
        {
          "internalType": "string",
          "name": "deliveryAddress",
          "type": "string"
        },
        {
          "internalType": "uint256",
          "name": "postalCode",
          "type": "uint256"
        },
        {
          "internalType": "uint256",
          "name": "phone",
          "type": "uint256"
        },
        {
          "internalType": "string",
          "name": "state",
          "type": "string"
        },
        {
          "internalType": "address",
          "name": "customer",
          "type": "address"
        }
      ],
      "payable": false,
      "stateMutability": "view",
      "type": "function"
    },
    {
      "constant": true,
      "inputs": [
        {
          "internalType": "uint256",
          "name": "",
          "type": "uint256"
        }
      ],
      "name": "orders",
      "outputs": [
        {
          "internalType": "uint256",
          "name": "id",
          "type": "uint256"
        },
        {
          "internalType": "string",
          "name": "name",
          "type": "string"
        },
        {
          "internalType": "string",
          "name": "deliveryAddress",
          "type": "string"
        },
        {
          "internalType": "uint256",
          "name": "postalCode",
          "type": "uint256"
        },
        {
          "internalType": "uint256",
          "name": "phone",
          "type": "uint256"
        },
        {
          "internalType": "string",
          "name": "state",
          "type": "string"
        },
        {
          "internalType": "address",
          "name": "customer",
          "type": "address"
        }
      ],
      "payable": false,
      "stateMutability": "view",
      "type": "function"
    },
    {
      "constant": true,
      "inputs": [
        {
          "internalType": "address",
          "name": "",
          "type": "address"
        },
        {
          "internalType": "uint256",
          "name": "",
          "type": "uint256"
        }
      ],
      "name": "pendingBuyerOrders",
      "outputs": [
        {
          "internalType": "uint256",
          "name": "id",
          "type": "uint256"
        },
        {
          "internalType": "string",
          "name": "name",
          "type": "string"
        },
        {
          "internalType": "string",
          "name": "deliveryAddress",
          "type": "string"
        },
        {
          "internalType": "uint256",
          "name": "postalCode",
          "type": "uint256"
        },
        {
          "internalType": "uint256",
          "name": "phone",
          "type": "uint256"
        },
        {
          "internalType": "string",
          "name": "state",
          "type": "string"
        },
        {
          "internalType": "address",
          "name": "customer",
          "type": "address"
        }
      ],
      "payable": false,
      "stateMutability": "view",
      "type": "function"
    },
    {
      "constant": true,
      "inputs": [
        {
          "internalType": "address",
          "name": "",
          "type": "address"
        },
        {
          "internalType": "uint256",
          "name": "",
          "type": "uint256"
        }
      ],
      "name": "pendingSellerOrders",
      "outputs": [
        {
          "internalType": "uint256",
          "name": "id",
          "type": "uint256"
        },
        {
          "internalType": "string",
          "name": "name",
          "type": "string"
        },
        {
          "internalType": "string",
          "name": "deliveryAddress",
          "type": "string"
        },
        {
          "internalType": "uint256",
          "name": "postalCode",
          "type": "uint256"
        },
        {
          "internalType": "uint256",
          "name": "phone",
          "type": "uint256"
        },
        {
          "internalType": "string",
          "name": "state",
          "type": "string"
        },
        {
          "internalType": "address",
          "name": "customer",
          "type": "address"
        }
      ],
      "payable": false,
      "stateMutability": "view",
      "type": "function"
    },
    {
      "constant": true,
      "inputs": [
        {
          "internalType": "uint256",
          "name": "",
          "type": "uint256"
        },
        {
          "internalType": "uint256",
          "name": "",
          "type": "uint256"
        }
      ],
      "name": "previousOwners",
      "outputs": [
        {
          "internalType": "address",
          "name": "",
          "type": "address"
        }
      ],
      "payable": false,
      "stateMutability": "view",
      "type": "function"
    },
    {
      "constant": true,
      "inputs": [
        {
          "internalType": "address",
          "name": "",
          "type": "address"
        },
        {
          "internalType": "uint256",
          "name": "",
          "type": "uint256"
        }
      ],
      "name": "sellerProducts",
      "outputs": [
        {
          "internalType": "uint256",
          "name": "id",
          "type": "uint256"
        },
        {
          "internalType": "string",
          "name": "title",
          "type": "string"
        },
        {
          "internalType": "string",
          "name": "isbn",
          "type": "string"
        },
        {
          "internalType": "string",
          "name": "author",
          "type": "string"
        },
        {
          "internalType": "string",
          "name": "category",
          "type": "string"
        },
        {
          "internalType": "address payable",
          "name": "owner",
          "type": "address"
        },
        {
          "internalType": "uint256",
          "name": "price",
          "type": "uint256"
        },
        {
          "internalType": "bool",
          "name": "forSale",
          "type": "bool"
        },
        {
          "internalType": "string",
          "name": "image",
          "type": "string"
        }
      ],
      "payable": false,
      "stateMutability": "view",
      "type": "function"
    },
    {
      "constant": true,
      "inputs": [],
      "name": "token",
      "outputs": [
        {
          "internalType": "address",
          "name": "",
          "type": "address"
        }
      ],
      "payable": false,
      "stateMutability": "view",
      "type": "function"
    },
    {
      "constant": false,
      "inputs": [
        {
          "internalType": "string",
          "name": "_title",
          "type": "string"
        },
        {
          "internalType": "string",
          "name": "_isbn",
          "type": "string"
        },
        {
          "internalType": "string",
          "name": "_author",
          "type": "string"
        },
        {
          "internalType": "string",
          "name": "_category",
          "type": "string"
        },
        {
          "internalType": "uint256",
          "name": "_price",
          "type": "uint256"
        },
        {
          "internalType": "bool",
          "name": "_forSale",
          "type": "bool"
        },
        {
          "internalType": "string",
          "name": "_image",
          "type": "string"
        }
      ],
      "name": "addBook",
      "outputs": [],
      "payable": false,
      "stateMutability": "nonpayable",
      "type": "function"
    },
    {
      "constant": false,
      "inputs": [
        {
          "internalType": "uint256",
          "name": "_id",
          "type": "uint256"
        }
      ],
      "name": "sellBook",
      "outputs": [],
      "payable": false,
      "stateMutability": "nonpayable",
      "type": "function"
    },
    {
      "constant": false,
      "inputs": [
        {
          "internalType": "uint256",
          "name": "_id",
          "type": "uint256"
        },
        {
          "internalType": "string",
          "name": "_name",
          "type": "string"
        },
        {
          "internalType": "string",
          "name": "_deliveryAddress",
          "type": "string"
        },
        {
          "internalType": "uint256",
          "name": "_postalCode",
          "type": "uint256"
        },
        {
          "internalType": "uint256",
          "name": "_phone",
          "type": "uint256"
        }
      ],
      "name": "buyBook",
      "outputs": [],
      "payable": true,
      "stateMutability": "payable",
      "type": "function"
    },
    {
      "constant": false,
      "inputs": [
        {
          "internalType": "uint256",
          "name": "_id",
          "type": "uint256"
        }
      ],
      "name": "markOrderCompleted",
      "outputs": [],
      "payable": false,
      "stateMutability": "nonpayable",
      "type": "function"
    },
    {
      "constant": true,
      "inputs": [
        {
          "internalType": "uint256",
          "name": "_limit",
          "type": "uint256"
        }
      ],
      "name": "getBooksIds",
      "outputs": [
        {
          "internalType": "uint256[]",
          "name": "",
          "type": "uint256[]"
        }
      ],
      "payable": false,
      "stateMutability": "view",
      "type": "function"
    },
    {
      "constant": true,
      "inputs": [
        {
          "internalType": "uint256",
          "name": "_id",
          "type": "uint256"
        }
      ],
      "name": "getBook",
      "outputs": [
        {
          "internalType": "uint256",
          "name": "id",
          "type": "uint256"
        },
        {
          "internalType": "string",
          "name": "title",
          "type": "string"
        },
        {
          "internalType": "string",
          "name": "isbn",
          "type": "string"
        },
        {
          "internalType": "string",
          "name": "author",
          "type": "string"
        },
        {
          "internalType": "string",
          "name": "category",
          "type": "string"
        },
        {
          "internalType": "address payable",
          "name": "owner",
          "type": "address"
        },
        {
          "internalType": "uint256",
          "name": "price",
          "type": "uint256"
        },
        {
          "internalType": "bool",
          "name": "forSale",
          "type": "bool"
        },
        {
          "internalType": "string",
          "name": "image",
          "type": "string"
        }
      ],
      "payable": false,
      "stateMutability": "view",
      "type": "function"
    },
    {
      "constant": true,
      "inputs": [
        {
          "internalType": "string",
          "name": "_type",
          "type": "string"
        },
        {
          "internalType": "uint256",
          "name": "_limit",
          "type": "uint256"
        }
      ],
      "name": "getBookIds",
      "outputs": [
        {
          "internalType": "uint256[]",
          "name": "",
          "type": "uint256[]"
        }
      ],
      "payable": false,
      "stateMutability": "view",
      "type": "function"
    },
    {
      "constant": true,
      "inputs": [
        {
          "internalType": "string",
          "name": "_type",
          "type": "string"
        },
        {
          "internalType": "uint256",
          "name": "_id",
          "type": "uint256"
        }
      ],
      "name": "getOrder",
      "outputs": [
        {
          "internalType": "uint256",
          "name": "id",
          "type": "uint256"
        },
        {
          "internalType": "string",
          "name": "name",
          "type": "string"
        },
        {
          "internalType": "string",
          "name": "deliveryAddress",
          "type": "string"
        },
        {
          "internalType": "uint256",
          "name": "postalCode",
          "type": "uint256"
        },
        {
          "internalType": "uint256",
          "name": "phone",
          "type": "uint256"
        },
        {
          "internalType": "string",
          "name": "state",
          "type": "string"
        },
        {
          "internalType": "address",
          "name": "customer",
          "type": "address"
        }
      ],
      "payable": false,
      "stateMutability": "view",
      "type": "function"
    },
    {
      "constant": true,
      "inputs": [
        {
          "internalType": "string",
          "name": "a",
          "type": "string"
        },
        {
          "internalType": "string",
          "name": "b",
          "type": "string"
        }
      ],
      "name": "compareStrings",
      "outputs": [
        {
          "internalType": "bool",
          "name": "",
          "type": "bool"
        }
      ],
      "payable": false,
      "stateMutability": "pure",
      "type": "function"
    }
  ],
  "bytecode": "0x608060405234801561001057600080fd5b50604051620048a6380380620048a68339818101604052602081101561003557600080fd5b5051600c80546001600160a01b0319166001600160a01b0390921691909117905561484080620000666000396000f3fe60806040526004361061014b5760003560e01c8063b54fb04a116100b6578063dd3249391161006f578063dd32493914610d56578063ddc95c5514610e8b578063df6711b014610eb5578063e0ff5b8b14610edf578063f7a5a49314610f09578063fc0c546a14610f425761014b565b8063b54fb04a14610878578063bed34bba146108c4578063c1292cc3146109fa578063c1302b3414610a0f578063d72b29f614610a48578063db83104214610a815761014b565b8063691bd5f511610108578063691bd5f5146106df5780637b3d0982146107925780638174e9d0146107d0578063852f7c10146107fa5780638d77eba514610824578063a85c38ef1461084e5761014b565b806302949a0a146101505780632e39433814610177578063427f0e4d146103225780634e77dbdc1461035b578063687440461461045e57806368756f73146106ca575b600080fd5b34801561015c57600080fd5b50610165610f57565b60408051918252519081900360200190f35b34801561018357600080fd5b506101b06004803603604081101561019a57600080fd5b506001600160a01b038135169060200135610f5d565b60405180888152602001806020018060200187815260200186815260200180602001856001600160a01b03166001600160a01b0316815260200184810384528a818151815260200191508051906020019080838360005b8381101561021f578181015183820152602001610207565b50505050905090810190601f16801561024c5780820380516001836020036101000a031916815260200191505b5084810383528951815289516020918201918b019080838360005b8381101561027f578181015183820152602001610267565b50505050905090810190601f1680156102ac5780820380516001836020036101000a031916815260200191505b50848103825286518152865160209182019188019080838360005b838110156102df5781810151838201526020016102c7565b50505050905090810190601f16801561030c5780820380516001836020036101000a031916815260200191505b509a505050505050505050505060405180910390f35b34801561032e57600080fd5b506101b06004803603604081101561034557600080fd5b506001600160a01b03813516906020013561116b565b34801561036757600080fd5b5061040e6004803603604081101561037e57600080fd5b810190602081018135600160201b81111561039857600080fd5b8201836020820111156103aa57600080fd5b803590602001918460018302840111600160201b831117156103cb57600080fd5b91908080601f0160208091040260200160405190810160405280939291908181526020018383808284376000920191909152509295505091359250611184915050565b60408051602080825283518183015283519192839290830191858101910280838360005b8381101561044a578181015183820152602001610432565b505050509050019250505060405180910390f35b34801561046a57600080fd5b506104886004803603602081101561048157600080fd5b50356115ea565b604051808a815260200180602001806020018060200180602001896001600160a01b03166001600160a01b03168152602001888152602001871515151581526020018060200186810386528e818151815260200191508051906020019080838360005b838110156105035781810151838201526020016104eb565b50505050905090810190601f1680156105305780820380516001836020036101000a031916815260200191505b5086810385528d5181528d516020918201918f019080838360005b8381101561056357818101518382015260200161054b565b50505050905090810190601f1680156105905780820380516001836020036101000a031916815260200191505b5086810384528c5181528c516020918201918e019080838360005b838110156105c35781810151838201526020016105ab565b50505050905090810190601f1680156105f05780820380516001836020036101000a031916815260200191505b5086810383528b5181528b516020918201918d019080838360005b8381101561062357818101518382015260200161060b565b50505050905090810190601f1680156106505780820380516001836020036101000a031916815260200191505b50868103825287518152875160209182019189019080838360005b8381101561068357818101518382015260200161066b565b50505050905090810190601f1680156106b05780820380516001836020036101000a031916815260200191505b509e50505050505050505050505050505060405180910390f35b3480156106d657600080fd5b50610165611918565b3480156106eb57600080fd5b506101b06004803603604081101561070257600080fd5b810190602081018135600160201b81111561071c57600080fd5b82018360208201111561072e57600080fd5b803590602001918460018302840111600160201b8311171561074f57600080fd5b91908080601f016020809104026020016040519081016040528093929190818152602001838380828437600092019190915250929550509135925061191e915050565b34801561079e57600080fd5b506107bc600480360360208110156107b557600080fd5b5035611f24565b604080519115158252519081900360200190f35b3480156107dc57600080fd5b5061040e600480360360208110156107f357600080fd5b5035611f39565b34801561080657600080fd5b506104886004803603602081101561081d57600080fd5b5035611ffb565b34801561083057600080fd5b506101b06004803603602081101561084757600080fd5b503561206d565b34801561085a57600080fd5b506101b06004803603602081101561087157600080fd5b50356120df565b34801561088457600080fd5b506108a86004803603604081101561089b57600080fd5b5080359060200135612173565b604080516001600160a01b039092168252519081900360200190f35b3480156108d057600080fd5b506107bc600480360360408110156108e757600080fd5b810190602081018135600160201b81111561090157600080fd5b82018360208201111561091357600080fd5b803590602001918460018302840111600160201b8311171561093457600080fd5b91908080601f0160208091040260200160405190810160405280939291908181526020018383808284376000920191909152509295949360208101935035915050600160201b81111561098657600080fd5b82018360208201111561099857600080fd5b803590602001918460018302840111600160201b831117156109b957600080fd5b91908080601f0160208091040260200160405190810160405280939291908181526020018383808284376000920191909152509295506121a8945050505050565b348015610a0657600080fd5b5061016561228f565b348015610a1b57600080fd5b5061048860048036036040811015610a3257600080fd5b506001600160a01b038135169060200135612295565b348015610a5457600080fd5b506101b060048036036040811015610a6b57600080fd5b506001600160a01b038135169060200135612323565b348015610a8d57600080fd5b50610d54600480360360e0811015610aa457600080fd5b810190602081018135600160201b811115610abe57600080fd5b820183602082011115610ad057600080fd5b803590602001918460018302840111600160201b83111715610af157600080fd5b91908080601f0160208091040260200160405190810160405280939291908181526020018383808284376000920191909152509295949360208101935035915050600160201b811115610b4357600080fd5b820183602082011115610b5557600080fd5b803590602001918460018302840111600160201b83111715610b7657600080fd5b91908080601f0160208091040260200160405190810160405280939291908181526020018383808284376000920191909152509295949360208101935035915050600160201b811115610bc857600080fd5b820183602082011115610bda57600080fd5b803590602001918460018302840111600160201b83111715610bfb57600080fd5b91908080601f0160208091040260200160405190810160405280939291908181526020018383808284376000920191909152509295949360208101935035915050600160201b811115610c4d57600080fd5b820183602082011115610c5f57600080fd5b803590602001918460018302840111600160201b83111715610c8057600080fd5b91908080601f01602080910402602001604051908101604052809392919081815260200183838082843760009201919091525092958435956020860135151595919450925060608101915060400135600160201b811115610ce057600080fd5b820183602082011115610cf257600080fd5b803590602001918460018302840111600160201b83111715610d1357600080fd5b91908080601f01602080910402602001604051908101604052809392919081815260200183838082843760009201919091525092955061233c945050505050565b005b610d54600480360360a0811015610d6c57600080fd5b81359190810190604081016020820135600160201b811115610d8d57600080fd5b820183602082011115610d9f57600080fd5b803590602001918460018302840111600160201b83111715610dc057600080fd5b91908080601f0160208091040260200160405190810160405280939291908181526020018383808284376000920191909152509295949360208101935035915050600160201b811115610e1257600080fd5b820183602082011115610e2457600080fd5b803590602001918460018302840111600160201b83111715610e4557600080fd5b91908080601f0160208091040260200160405190810160405280939291908181526020018383808284376000920191909152509295505082359350505060200135612898565b348015610e9757600080fd5b50610d5460048036036020811015610eae57600080fd5b50356131e8565b348015610ec157600080fd5b50610d5460048036036020811015610ed857600080fd5b5035613206565b348015610eeb57600080fd5b5061048860048036036020811015610f0257600080fd5b5035614199565b348015610f1557600080fd5b506101b060048036036040811015610f2c57600080fd5b506001600160a01b03813516906020013561454d565b348015610f4e57600080fd5b506108a8614566565b600e5481565b60036020528160005260406000208181548110610f7657fe5b60009182526020918290206007919091020180546001808301805460408051600294831615610100026000190190921693909304601f810187900487028201870190935282815292965092945090928301828280156110165780601f10610feb57610100808354040283529160200191611016565b820191906000526020600020905b815481529060010190602001808311610ff957829003601f168201915b50505060028085018054604080516020601f60001961010060018716150201909416959095049283018590048502810185019091528181529596959450909250908301828280156110a85780601f1061107d576101008083540402835291602001916110a8565b820191906000526020600020905b81548152906001019060200180831161108b57829003601f168201915b505050505090806003015490806004015490806005018054600181600116156101000203166002900480601f0160208091040260200160405190810160405280929190818152602001828054600181600116156101000203166002900480156111525780601f1061112757610100808354040283529160200191611152565b820191906000526020600020905b81548152906001019060200180831161113557829003601f168201915b505050600690930154919250506001600160a01b031687565b60046020528160005260406000208181548110610f7657fe5b606060008060006060600080905060003390506111c7896040518060400160405280600e81526020016d3832b73234b73396b9b2b63632b960911b8152506121a8565b156112ac576001600160a01b03811660009081526001602052604090205495508588116111f457876111f6565b855b94508588116112075787860361120a565b60005b9350858811611219578561121b565b875b604051908082528060200260200182016040528015611244578160200160208202803883390190505b509250845b8481126112a6576001600160a01b038216600090815260016020526040902080548290811061127457fe5b90600052602060002090600702016000015484848151811061129257fe5b602090810291909101015260001901611249565b506115dd565b6112db896040518060400160405280600d81526020016c3832b73234b73396b13abcb2b960991b8152506121a8565b156113ba576001600160a01b0381166000908152600260205260409020549550858811611308578761130a565b855b945085881161131b5787860361131e565b60005b935085881161132d578561132f565b875b604051908082528060200260200182016040528015611358578160200160208202803883390190505b509250845b8481126112a6576001600160a01b038216600090815260026020526040902080548290811061138857fe5b9060005260206000209060070201600001548484815181106113a657fe5b60209081029190910101526000190161135d565b6113ec896040518060400160405280601081526020016f31b7b6b83632ba32b216b9b2b63632b960811b8152506121a8565b156114cb576001600160a01b0381166000908152600360205260409020549550858811611419578761141b565b855b945085881161142c5787860361142f565b60005b935085881161143e5785611440565b875b604051908082528060200260200182016040528015611469578160200160208202803883390190505b509250845b8481126112a6576001600160a01b038216600090815260036020526040902080548290811061149957fe5b9060005260206000209060070201600001548484815181106114b757fe5b60209081029190910101526000190161146e565b6114fc896040518060400160405280600f81526020016e31b7b6b83632ba32b216b13abcb2b960891b8152506121a8565b156115dd576001600160a01b0381166000908152600460205260409020549550858811611529578761152b565b855b945085881161153c5787860361153f565b60005b935085881161154e5785611550565b875b604051908082528060200260200182016040528015611579578160200160208202803883390190505b509250845b8481126115db576001600160a01b03821660009081526004602052604090208054829081106115a957fe5b9060005260206000209060070201600001548484815181106115c757fe5b60209081029190910101526000190161157e565b505b5090979650505050505050565b600981815481106115f757fe5b9060005260206000209060090201600091509050806000015490806001018054600181600116156101000203166002900480601f0160208091040260200160405190810160405280929190818152602001828054600181600116156101000203166002900480156116a95780601f1061167e576101008083540402835291602001916116a9565b820191906000526020600020905b81548152906001019060200180831161168c57829003601f168201915b50505060028085018054604080516020601f600019610100600187161502019094169590950492830185900485028101850190915281815295969594509092509083018282801561173b5780601f106117105761010080835404028352916020019161173b565b820191906000526020600020905b81548152906001019060200180831161171e57829003601f168201915b5050505060038301805460408051602060026001851615610100026000190190941693909304601f81018490048402820184019092528181529495949350908301828280156117cb5780601f106117a0576101008083540402835291602001916117cb565b820191906000526020600020905b8154815290600101906020018083116117ae57829003601f168201915b5050505060048301805460408051602060026001851615610100026000190190941693909304601f810184900484028201840190925281815294959493509083018282801561185b5780601f106118305761010080835404028352916020019161185b565b820191906000526020600020905b81548152906001019060200180831161183e57829003601f168201915b505050600584015460068501546007860154600887018054604080516020601f6002600019600187161561010002019095169490940493840181900481028201810190925282815298996001600160a01b039096169894975060ff9093169550909183018282801561190e5780601f106118e35761010080835404028352916020019161190e565b820191906000526020600020905b8154815290600101906020018083116118f157829003601f168201915b5050505050905089565b600d5481565b600060608060008060606000611932614575565b60003390506119678b6040518060400160405280600e81526020016d3832b73234b73396b9b2b63632b960911b8152506121a8565b15611bb9576001600160a01b038116600090815260016020526040902080548b90811061199057fe5b90600052602060002090600702016040518060e001604052908160008201548152602001600182018054600181600116156101000203166002900480601f016020809104026020016040519081016040528092919081815260200182805460018160011615610100020316600290048015611a4c5780601f10611a2157610100808354040283529160200191611a4c565b820191906000526020600020905b815481529060010190602001808311611a2f57829003601f168201915b5050509183525050600282810180546040805160206001841615610100026000190190931694909404601f81018390048302850183019091528084529381019390830182828015611ade5780601f10611ab357610100808354040283529160200191611ade565b820191906000526020600020905b815481529060010190602001808311611ac157829003601f168201915b505050505081526020016003820154815260200160048201548152602001600582018054600181600116156101000203166002900480601f016020809104026020016040519081016040528092919081815260200182805460018160011615610100020316600290048015611b945780601f10611b6957610100808354040283529160200191611b94565b820191906000526020600020905b815481529060010190602001808311611b7757829003601f168201915b5050509183525050600691909101546001600160a01b03166020909101529150611eeb565b611be88b6040518060400160405280600d81526020016c3832b73234b73396b13abcb2b960991b8152506121a8565b15611c11576001600160a01b038116600090815260026020526040902080548b90811061199057fe5b611c438b6040518060400160405280601081526020016f31b7b6b83632ba32b216b9b2b63632b960811b8152506121a8565b15611c6c576001600160a01b038116600090815260036020526040902080548b90811061199057fe5b611c9d8b6040518060400160405280600f81526020016e31b7b6b83632ba32b216b13abcb2b960891b8152506121a8565b15611eeb576001600160a01b038116600090815260046020526040902080548b908110611cc657fe5b90600052602060002090600702016040518060e001604052908160008201548152602001600182018054600181600116156101000203166002900480601f016020809104026020016040519081016040528092919081815260200182805460018160011615610100020316600290048015611d825780601f10611d5757610100808354040283529160200191611d82565b820191906000526020600020905b815481529060010190602001808311611d6557829003601f168201915b5050509183525050600282810180546040805160206001841615610100026000190190931694909404601f81018390048302850183019091528084529381019390830182828015611e145780601f10611de957610100808354040283529160200191611e14565b820191906000526020600020905b815481529060010190602001808311611df757829003601f168201915b505050505081526020016003820154815260200160048201548152602001600582018054600181600116156101000203166002900480601f016020809104026020016040519081016040528092919081815260200182805460018160011615610100020316600290048015611eca5780601f10611e9f57610100808354040283529160200191611eca565b820191906000526020600020905b815481529060010190602001808311611ead57829003601f168201915b5050509183525050600691909101546001600160a01b031660209091015291505b508051602082015160408301516060840151608085015160a086015160c090960151949f939e50919c509a509850919650945092505050565b60086020526000908152604090205460ff1681565b6009546060906000818411611f4e5783611f50565b815b90506000828511611f6357848303611f66565b60005b90506060838611611f775783611f79565b855b604051908082528060200260200182016040528015611fa2578160200160208202803883390190505b5090506000835b838112611fef5760098181548110611fbd57fe5b906000526020600020906009020160000154838381518110611fdb57fe5b602090810291909101015260001901611fa9565b50909695505050505050565b6005602090815260009182526040918290208054600180830180548651600293821615610100026000190190911692909204601f8101869004860283018601909652858252919492939092908301828280156116a95780601f1061167e576101008083540402835291602001916116a9565b6007602090815260009182526040918290208054600180830180548651600293821615610100026000190190911692909204601f8101869004860283018601909652858252919492939092908301828280156110165780601f10610feb57610100808354040283529160200191611016565b600a81815481106120ec57fe5b9060005260206000209060070201600091509050806000015490806001018054600181600116156101000203166002900480601f0160208091040260200160405190810160405280929190818152602001828054600181600116156101000203166002900480156110165780601f10610feb57610100808354040283529160200191611016565b6006602052816000526040600020818154811061218c57fe5b6000918252602090912001546001600160a01b03169150829050565b6000816040516020018082805190602001908083835b602083106121dd5780518252601f1990920191602091820191016121be565b6001836020036101000a03801982511681845116808217855250505050505090500191505060405160208183030381529060405280519060200120836040516020018082805190602001908083835b6020831061224b5780518252601f19909201916020918201910161222c565b6001836020036101000a0380198251168184511680821785525050505050509050019150506040516020818303038152906040528051906020012014905092915050565b600b5481565b600060205281600052604060002081815481106122ae57fe5b60009182526020918290206009919091020180546001808301805460408051600294831615610100026000190190921693909304601f810187900487028201870190935282815292965092945090928301828280156116a95780601f1061167e576101008083540402835291602001916116a9565b60026020528160005260406000208181548110610f7657fe5b600087511161238b576040805162461bcd60e51b8152602060048201526016602482015275426f6f6b204e616d65206973206e656365737361727960501b604482015290519081900360640190fd5b60008651116123d5576040805162461bcd60e51b81526020600482015260116024820152704953424e206973206e656365737361727960781b604482015290519081900360640190fd5b600085511161242b576040805162461bcd60e51b815260206004820152601860248201527f417574686f72204e616d65206973206e65636573736172790000000000000000604482015290519081900360640190fd5b60008311612475576040805162461bcd60e51b81526020600482015260126024820152715072696365206973206e656365737361727960701b604482015290519081900360640190fd5b8161247f57600091505b336124886145bb565b506040805161012081018252600b54815260208082018b81529282018a905260608201899052608082018890526001600160a01b03841660a083015260c0820187905285151560e083015261010082018590526009805460018101808355600083905284517f6e1540171b6c0c960b71a7020d9f60077f6af931a8bbf590da0223dacf75c7af9290930291820192835594518051949594869461254f937f6e1540171b6c0c960b71a7020d9f60077f6af931a8bbf590da0223dacf75c7b001920190614612565b506040820151805161256b916002840191602090910190614612565b5060608201518051612587916003840191602090910190614612565b50608082015180516125a3916004840191602090910190614612565b5060a08201516005820180546001600160a01b0319166001600160a01b0390921691909117905560c0820151600682015560e082015160078201805460ff19169115159190911790556101008201518051612608916008840191602090910190614612565b50503360009081526020818152604082208054600181810180845592855293839020875160099092020190815586830151805192965087955090936126539390850192910190614612565b506040820151805161266f916002840191602090910190614612565b506060820151805161268b916003840191602090910190614612565b50608082015180516126a7916004840191602090910190614612565b5060a08201516005820180546001600160a01b0319166001600160a01b0390921691909117905560c0820151600682015560e082015160078201805460ff1916911515919091179055610100820151805161270c916008840191602090910190614612565b5050600b54600090815260056020908152604090912084518155818501518051869550919350612743926001850192910190614612565b506040820151805161275f916002840191602090910190614612565b506060820151805161277b916003840191602090910190614612565b5060808201518051612797916004840191602090910190614612565b5060a08201516005820180546001600160a01b0319166001600160a01b0390921691909117905560c0820151600682015560e082015160078201805460ff191691151591909117905561010082015180516127fc916008840191602090910190614612565b5050600b8054600090815260086020526040808220805460ff19166001179055600c54925481516340c10f1960e01b8152306004820152602481019190915290516001600160a01b0390931693506340c10f19926044808301939282900301818387803b15801561286c57600080fd5b505af1158015612880573d6000803e3d6000fd5b5050600b805460010190555050505050505050505050565b60008581526008602052604090205460ff166128e55760405162461bcd60e51b81526004018080602001828103825260238152602001806147be6023913960400191505060405180910390fd5b6000845111612932576040805162461bcd60e51b8152602060048201526014602482015273151a19481b985b59481b5d5cdd081899481cd95d60621b604482015290519081900360640190fd5b6000835111612988576040805162461bcd60e51b815260206004820181905260248201527f5468652044656c69766572792041646472657373206d75737420626520736574604482015290519081900360640190fd5b600082116129dd576040805162461bcd60e51b815260206004820152601b60248201527f54686520706f7374616c20636f6465206d757374206265207365740000000000604482015290519081900360640190fd5b60008111612a32576040805162461bcd60e51b815260206004820152601c60248201527f5468652050686f6e65204e756d626572206d7573742062652073657400000000604482015290519081900360640190fd5b612a3a6145bb565b600560008781526020019081526020016000206040518061012001604052908160008201548152602001600182018054600181600116156101000203166002900480601f016020809104026020016040519081016040528092919081815260200182805460018160011615610100020316600290048015612afc5780601f10612ad157610100808354040283529160200191612afc565b820191906000526020600020905b815481529060010190602001808311612adf57829003601f168201915b5050509183525050600282810180546040805160206001841615610100026000190190931694909404601f81018390048302850183019091528084529381019390830182828015612b8e5780601f10612b6357610100808354040283529160200191612b8e565b820191906000526020600020905b815481529060010190602001808311612b7157829003601f168201915b505050918352505060038201805460408051602060026001851615610100026000190190941693909304601f8101849004840282018401909252818152938201939291830182828015612c225780601f10612bf757610100808354040283529160200191612c22565b820191906000526020600020905b815481529060010190602001808311612c0557829003601f168201915b505050918352505060048201805460408051602060026001851615610100026000190190941693909304601f8101849004840282018401909252818152938201939291830182828015612cb65780601f10612c8b57610100808354040283529160200191612cb6565b820191906000526020600020905b815481529060010190602001808311612c9957829003601f168201915b505050918352505060058201546001600160a01b03166020808301919091526006830154604080840191909152600784015460ff1615156060840152600884018054825160026101006001841615026000190190921691909104601f810185900485028201850190935282815260809094019392909190830182828015612d7e5780601f10612d5357610100808354040283529160200191612d7e565b820191906000526020600020905b815481529060010190602001808311612d6157829003601f168201915b5050505050815250509050612d91614575565b6040518060e001604052808881526020018781526020018681526020018581526020018481526020016040518060400160405280600781526020016670656e64696e6760c81b8152508152602001336001600160a01b031681525090508160c00151341015612e315760405162461bcd60e51b815260040180806020018281038252602b8152602001806147e1602b913960400191505060405180910390fd5b60a08201516001600160a01b0316600090815260016020818152604083208054808401808355918552938290208551600790950201938455848201518051919486949093612e8493918501920190614612565b5060408201518051612ea0916002840191602090910190614612565b50606082015160038201556080820151600482015560a08201518051612ed0916005840191602090910190614612565b5060c09190910151600690910180546001600160a01b0319166001600160a01b0390921691909117905550336000908152600260209081526040822080546001818101808455928552938390208551600790920201908155848301518051929486949293612f45939185019290910190614612565b5060408201518051612f61916002840191602090910190614612565b50606082015160038201556080820151600482015560a08201518051612f91916005840191602090910190614612565b5060c09190910151600690910180546001600160a01b0319166001600160a01b0390921691909117905550600a80546001810180835560009290925282517fc65a7bb8d6351c1cf70c95a316cc6a92839c986682d98bc35f958f4883f9d2a8600790920291820190815560208085015180518694613035937fc65a7bb8d6351c1cf70c95a316cc6a92839c986682d98bc35f958f4883f9d2a9909101920190614612565b5060408201518051613051916002840191602090910190614612565b50606082015160038201556080820151600482015560a08201518051613081916005840191602090910190614612565b5060c09190910151600690910180546001600160a01b0319166001600160a01b039092169190911790555060008781526007602090815260409091208251815582820151805184936130da926001850192910190614612565b50604082015180516130f6916002840191602090910190614612565b50606082015160038201556080820151600482015560a08201518051613126916005840191602090910190614612565b5060c09190910151600690910180546001600160a01b0319166001600160a01b0392831617905560a08301511660009081526001602052604090205461316d57600061318f565b60a08201516001600160a01b0316600090815260016020526040902054600019015b600d5560a08201516001600160a01b03166000908152600260205260409020546131ba5760006131dc565b60a08201516001600160a01b0316600090815260026020526040902054600019015b600e5550505050505050565b6000908152600560205260409020600701805460ff19166001179055565b61320e614575565b600760008381526020019081526020016000206040518060e001604052908160008201548152602001600182018054600181600116156101000203166002900480601f0160208091040260200160405190810160405280929190818152602001828054600181600116156101000203166002900480156132cf5780601f106132a4576101008083540402835291602001916132cf565b820191906000526020600020905b8154815290600101906020018083116132b257829003601f168201915b5050509183525050600282810180546040805160206001841615610100026000190190931694909404601f810183900483028501830190915280845293810193908301828280156133615780601f1061333657610100808354040283529160200191613361565b820191906000526020600020905b81548152906001019060200180831161334457829003601f168201915b505050505081526020016003820154815260200160048201548152602001600582018054600181600116156101000203166002900480601f0160208091040260200160405190810160405280929190818152602001828054600181600116156101000203166002900480156134175780601f106133ec57610100808354040283529160200191613417565b820191906000526020600020905b8154815290600101906020018083116133fa57829003601f168201915b5050509183525050600691909101546001600160a01b0316602090910152905061343f6145bb565b600560008481526020019081526020016000206040518061012001604052908160008201548152602001600182018054600181600116156101000203166002900480601f0160208091040260200160405190810160405280929190818152602001828054600181600116156101000203166002900480156135015780601f106134d657610100808354040283529160200191613501565b820191906000526020600020905b8154815290600101906020018083116134e457829003601f168201915b5050509183525050600282810180546040805160206001841615610100026000190190931694909404601f810183900483028501830190915280845293810193908301828280156135935780601f1061356857610100808354040283529160200191613593565b820191906000526020600020905b81548152906001019060200180831161357657829003601f168201915b505050918352505060038201805460408051602060026001851615610100026000190190941693909304601f81018490048402820184019092528181529382019392918301828280156136275780601f106135fc57610100808354040283529160200191613627565b820191906000526020600020905b81548152906001019060200180831161360a57829003601f168201915b505050918352505060048201805460408051602060026001851615610100026000190190941693909304601f81018490048402820184019092528181529382019392918301828280156136bb5780601f10613690576101008083540402835291602001916136bb565b820191906000526020600020905b81548152906001019060200180831161369e57829003601f168201915b505050918352505060058201546001600160a01b03166020808301919091526006830154604080840191909152600784015460ff1615156060840152600884018054825160026101006001841615026000190190921691909104601f8101859004850282018501909352828152608090940193929091908301828280156137835780601f1061375857610100808354040283529160200191613783565b820191906000526020600020905b81548152906001019060200180831161376657829003601f168201915b5050505050815250509050336001600160a01b03168160a001516001600160a01b0316146137e25760405162461bcd60e51b815260040180806020018281038252602f81526020018061478f602f913960400191505060405180910390fd5b60408051808201909152600981526818dbdb5c1b195d195960ba1b602082015260a083015260c082015160005b60a08301516001600160a01b0316600090815260016020526040902054811015613baf5760a08301516001600160a01b0316600090815260016020526040902080548691908390811061385e57fe5b9060005260206000209060070201600001541415613ba75761387e614575565b60076000600d5481526020019081526020016000206040518060e001604052908160008201548152602001600182018054600181600116156101000203166002900480601f0160208091040260200160405190810160405280929190818152602001828054600181600116156101000203166002900480156139415780601f1061391657610100808354040283529160200191613941565b820191906000526020600020905b81548152906001019060200180831161392457829003601f168201915b5050509183525050600282810180546040805160206001841615610100026000190190931694909404601f810183900483028501830190915280845293810193908301828280156139d35780601f106139a8576101008083540402835291602001916139d3565b820191906000526020600020905b8154815290600101906020018083116139b657829003601f168201915b505050505081526020016003820154815260200160048201548152602001600582018054600181600116156101000203166002900480601f016020809104026020016040519081016040528092919081815260200182805460018160011615610100020316600290048015613a895780601f10613a5e57610100808354040283529160200191613a89565b820191906000526020600020905b815481529060010190602001808311613a6c57829003601f168201915b5050509183525050600691909101546001600160a01b0390811660209283015260a08701511660009081526001909152604090208054919250829184908110613ace57fe5b9060005260206000209060070201600082015181600001556020820151816001019080519060200190613b02929190614612565b5060408201518051613b1e916002840191602090910190614612565b50606082015160038201556080820151600482015560a08201518051613b4e916005840191602090910190614612565b5060c09190910151600690910180546001600160a01b0319166001600160a01b0392831617905560a0850151166000908152600160205260409020805490613b9a906000198301614690565b5050600d80546000190190555b60010161380f565b5060005b33600090815260026020526040902054811015613f2f578351336000908152600260205260409020805483908110613be757fe5b9060005260206000209060070201600001541415613f2757613c07614575565b60076000600e5481526020019081526020016000206040518060e001604052908160008201548152602001600182018054600181600116156101000203166002900480601f016020809104026020016040519081016040528092919081815260200182805460018160011615610100020316600290048015613cca5780601f10613c9f57610100808354040283529160200191613cca565b820191906000526020600020905b815481529060010190602001808311613cad57829003601f168201915b5050509183525050600282810180546040805160206001841615610100026000190190931694909404601f81018390048302850183019091528084529381019390830182828015613d5c5780601f10613d3157610100808354040283529160200191613d5c565b820191906000526020600020905b815481529060010190602001808311613d3f57829003601f168201915b505050505081526020016003820154815260200160048201548152602001600582018054600181600116156101000203166002900480601f016020809104026020016040519081016040528092919081815260200182805460018160011615610100020316600290048015613e125780601f10613de757610100808354040283529160200191613e12565b820191906000526020600020905b815481529060010190602001808311613df557829003601f168201915b5050509183525050600691909101546001600160a01b03166020918201523360009081526002909152604090208054919250829184908110613e5057fe5b9060005260206000209060070201600082015181600001556020820151816001019080519060200190613e84929190614612565b5060408201518051613ea0916002840191602090910190614612565b50606082015160038201556080820151600482015560a08201518051613ed0916005840191602090910190614612565b5060c09190910151600690910180546001600160a01b0319166001600160a01b03909216919091179055336000908152600260205260409020805490613f1a906000198301614690565b5050600e80546000190190555b600101613bb3565b5060a08201516001600160a01b03166000908152600360209081526040822080546001818101808455928552938390208751600790920201908155868301518051929488949293613f87939185019290910190614612565b5060408201518051613fa3916002840191602090910190614612565b50606082015160038201556080820151600482015560a08201518051613fd3916005840191602090910190614612565b5060c09190910151600690910180546001600160a01b0319166001600160a01b0390921691909117905550336000908152600460209081526040822080546001818101808455928552938390208751600790920201908155868301518051929488949293614048939185019290910190614612565b5060408201518051614064916002840191602090910190614612565b50606082015160038201556080820151600482015560a08201518051614094916005840191602090910190614612565b5060c09190910151600690910180546001600160a01b0319166001600160a01b039092169190911790555060008481526007602090815260409091208451815584820151805186936140ed926001850192910190614612565b5060408201518051614109916002840191602090910190614612565b50606082015160038201556080820151600482015560a08201518051614139916005840191602090910190614612565b5060c09190910151600691820180546001600160a01b039283166001600160a01b031991821617909155921660a0909301929092526000938452602091825260408420805460018101825590855291909320018054909216331790915550565b6000606080606080600080600060606141b06145bb565b600560008c81526020019081526020016000206040518061012001604052908160008201548152602001600182018054600181600116156101000203166002900480601f0160208091040260200160405190810160405280929190818152602001828054600181600116156101000203166002900480156142725780601f1061424757610100808354040283529160200191614272565b820191906000526020600020905b81548152906001019060200180831161425557829003601f168201915b5050509183525050600282810180546040805160206001841615610100026000190190931694909404601f810183900483028501830190915280845293810193908301828280156143045780601f106142d957610100808354040283529160200191614304565b820191906000526020600020905b8154815290600101906020018083116142e757829003601f168201915b505050918352505060038201805460408051602060026001851615610100026000190190941693909304601f81018490048402820184019092528181529382019392918301828280156143985780601f1061436d57610100808354040283529160200191614398565b820191906000526020600020905b81548152906001019060200180831161437b57829003601f168201915b505050918352505060048201805460408051602060026001851615610100026000190190941693909304601f810184900484028201840190925281815293820193929183018282801561442c5780601f106144015761010080835404028352916020019161442c565b820191906000526020600020905b81548152906001019060200180831161440f57829003601f168201915b505050918352505060058201546001600160a01b03166020808301919091526006830154604080840191909152600784015460ff1615156060840152600884018054825160026101006001841615026000190190921691909104601f8101859004850282018501909352828152608090940193929091908301828280156144f45780601f106144c9576101008083540402835291602001916144f4565b820191906000526020600020905b8154815290600101906020018083116144d757829003601f168201915b505050505081525050905080600001519950806020015198508060400151975080606001519650806080015195508060a0015194508060c0015193508060e0015192508061010001519150509193959799909294969850565b60016020528160005260406000208181548110610f7657fe5b600c546001600160a01b031681565b6040518060e0016040528060008152602001606081526020016060815260200160008152602001600081526020016060815260200160006001600160a01b031681525090565b604051806101200160405280600081526020016060815260200160608152602001606081526020016060815260200160006001600160a01b0316815260200160008152602001600015158152602001606081525090565b828054600181600116156101000203166002900490600052602060002090601f016020900481019282601f1061465357805160ff1916838001178555614680565b82800160010185558215614680579182015b82811115614680578251825591602001919060010190614665565b5061468c9291506146c1565b5090565b8154818355818111156146bc576007028160070283600052602060002091820191016146bc91906146de565b505050565b6146db91905b8082111561468c57600081556001016146c7565b90565b6146db91905b8082111561468c5760008082556146fe6001830182614747565b61470c600283016000614747565b6003820160009055600482016000905560058201600061472c9190614747565b506006810180546001600160a01b03191690556007016146e4565b50805460018160011615610100020316600290046000825580601f1061476d575061478b565b601f01602090049060005260206000209081019061478b91906146c1565b5056fe4f6e6c79207468652073656c6c65722063616e206d61726b20746865206f7264657220617320636f6d706c6574656454686520626f6f6b206d75737420657869737420746f20626520707572636861736564546865207061796d656e74206d75737420626520657175616c20746f2074686520626f6f6b207072696365a265627a7a723158201a61f37b48eb5fd0f781f5f3b21178a39589f38a1de5e343b41978fb3001cf2b64736f6c63430005100032",
  "source": "pragma solidity ^0.5.0;\r\nimport \"./BookToken.sol\";\r\n\r\ncontract BookStore {\r\n    struct Book {\r\n        uint256 id;\r\n        string title;\r\n        string isbn;\r\n        string author;\r\n        string category;\r\n        address payable owner;\r\n        uint256 price;\r\n        bool forSale;\r\n        string image;\r\n    }\r\n    struct Order {\r\n        uint256 id;\r\n        string name;\r\n        string deliveryAddress;\r\n        uint256 postalCode;\r\n        uint256 phone;\r\n        string state; // Either 'pending', 'completed'\r\n        address customer;\r\n    }\r\n\r\n    mapping(address => Book[]) public sellerProducts; // Seller address => books ; The books added by the seller\r\n    mapping(address => Order[]) public pendingSellerOrders; // Seller address => orders ; The books waiting to be fulfilled by the seller, used by sellers to check which orders have to be fulfilled\r\n    mapping(address => Order[]) public pendingBuyerOrders; //Buyer address => orders ;The books that the buyer purchased waiting to be sent\r\n    mapping(address => Order[]) public completedSellerOrders; // Seller address => orders  A history of past orders fulfilled by the seller\r\n    mapping(address => Order[]) public completedBuyerOrders; // Buyer address => orders A history of past orders made by this buyer\r\n    mapping(uint256 => Book) public bookById; // Book id => book\r\n    mapping(uint256 => address[]) public previousOwners; // Book id => previousOwners\r\n    mapping(uint256 => Order) public orderById; // book id => order\r\n    mapping(uint256 => bool) public bookExists; // Book id => true or false\r\n    Book[] public books;\r\n    Order[] public orders;\r\n    uint256 public lastId;\r\n    address public token;\r\n    uint256 public lastPendingSellerOrder;\r\n    uint256 public lastPendingBuyerOrder;\r\n\r\n    constructor(address _token) public {\r\n        token = _token;\r\n    }\r\n\r\n    function addBook(string memory _title, string memory _isbn, string memory _author, string memory _category, uint256 _price, bool _forSale, string memory _image) public {\r\n        require(bytes(_title).length > 0, \"Book Name is necessary\");\r\n        require(bytes(_isbn).length > 0, \"ISBN is necessary\");\r\n        require(bytes(_author).length > 0, \"Author Name is necessary\");\r\n        require(_price > 0, \"Price is necessary\");\r\n        if (!(_forSale)) _forSale = false;\r\n        address payable owner = msg.sender;\r\n\r\n        Book memory b =Book(lastId,_title,_isbn,_author,_category, owner, _price, _forSale,_image);\r\n        books.push(b);\r\n        sellerProducts[msg.sender].push(b);\r\n        bookById[lastId] = b;\r\n        bookExists[lastId] = true;\r\n        BookToken(token).mint(address(this), lastId); // New token for this book owned by the contract until sold.\r\n        lastId += 1;\r\n    }\r\n\r\n    function sellBook(uint256 _id) public {\r\n        require(_id >= 0, \"ID is necessary\");\r\n        bookById[_id].forSale = true;\r\n    }\r\n\r\n    function buyBook(uint256 _id, string memory _name, string memory _deliveryAddress, uint256 _postalCode, uint256 _phone) public payable {\r\n        require(bookExists[_id], \"The book must exist to be purchased\");\r\n        require(bytes(_name).length > 0, \"The name must be set\");\r\n        require(bytes(_deliveryAddress).length > 0, \"The Delivery Address must be set\");\r\n        require(_postalCode > 0, \"The postal code must be set\");\r\n        require(_phone > 0, \"The Phone Number must be set\");\r\n\r\n        Book memory b = bookById[_id];\r\n        //Need to retrieve the book by it's id.\r\n        Order memory newOrder =Order(_id,_name,_deliveryAddress, _postalCode, _phone,\"pending\", msg.sender);\r\n        require(msg.value >= b.price,\"The payment must be equal to the book price\");\r\n        //if(msg.value > b.price) msg.sender.transfer(msg.value - b.price);\r\n        pendingSellerOrders[b.owner].push(newOrder);\r\n        pendingBuyerOrders[msg.sender].push(newOrder);\r\n        orders.push(newOrder);\r\n        orderById[_id] = newOrder;\r\n        lastPendingSellerOrder = pendingSellerOrders[b.owner].length > 0 ? pendingSellerOrders[b.owner].length - 1: 0;\r\n        lastPendingBuyerOrder = pendingBuyerOrders[b.owner].length > 0 ? pendingBuyerOrders[b.owner].length - 1: 0;\r\n        //BookToken(token).transferFrom(b.owner, msg.sender, _id); // Transfer the book token to the new owner\r\n        //b.owner.transfer(b.price);\r\n    }\r\n\r\n    function markOrderCompleted(uint256 _id) public {\r\n        Order memory order = orderById[_id];\r\n        Book memory book = bookById[_id];\r\n        require(book.owner == msg.sender,\"Only the seller can mark the order as completed\");\r\n        order.state = \"completed\";\r\n        address customer = order.customer;\r\n        // Delete the seller order from the array of pending orders\r\n        for (uint256 i = 0; i < pendingSellerOrders[book.owner].length; i++) {\r\n            if (pendingSellerOrders[book.owner][i].id == _id) {\r\n                Order memory lastElement = orderById[lastPendingSellerOrder];\r\n                pendingSellerOrders[book.owner][i] = lastElement;\r\n                pendingSellerOrders[book.owner].length--;\r\n                lastPendingSellerOrder--;\r\n            }\r\n        }\r\n        // Delete the seller order from the array of pending orders\r\n        for (uint256 i = 0; i < pendingBuyerOrders[msg.sender].length; i++) {\r\n            if (pendingBuyerOrders[msg.sender][i].id == order.id) {\r\n                Order memory lastElement = orderById[lastPendingBuyerOrder];\r\n                pendingBuyerOrders[msg.sender][i] = lastElement;\r\n                pendingBuyerOrders[msg.sender].length--;\r\n                lastPendingBuyerOrder--;\r\n            }\r\n        }\r\n        completedSellerOrders[book.owner].push(order);\r\n        completedBuyerOrders[msg.sender].push(order);\r\n        orderById[_id] = order;\r\n        book.owner = address(uint160(customer));\r\n        previousOwners[_id].push(msg.sender);\r\n    }\r\n\r\n    function getBooksIds(uint256 _limit)public view returns (uint256[] memory){\r\n        uint256 length = books.length;\r\n        uint256 counter = (_limit > length) ? length : _limit; // If you're requesting more books than available, return only the available\r\n        uint256 condition = (_limit > length) ? 0 : (length - _limit);\r\n        uint256[] memory ids = new uint256[](_limit > length ? _limit : length);\r\n        uint256 increment = 0;\r\n        // Loop backwards to get the most recent products first\r\n        for (int256 i = int256(counter); i >= int256(condition); i--) {\r\n            ids[increment] = books[uint256(i)].id;\r\n        }\r\n        return ids;\r\n    }\r\n\r\n    function getBook(uint256 _id) public view\r\n        returns (\r\n            uint256 id,\r\n            string memory title,\r\n            string memory isbn,\r\n            string memory author,\r\n            string memory category,\r\n            address payable owner,\r\n            uint256 price,\r\n            bool forSale,\r\n            string memory image\r\n        )\r\n    {\r\n        Book memory b = bookById[_id];\r\n        id = b.id;\r\n        title = b.title;\r\n        isbn = b.isbn;\r\n        author = b.author;\r\n        category = b.category;\r\n        owner = b.owner;\r\n        price = b.price;\r\n        forSale = b.forSale;\r\n        image = b.image;\r\n    }\r\n\r\n    function getBookIds(string memory _type, uint256 _limit)\r\n        public\r\n        view\r\n        returns (uint256[] memory)\r\n    {\r\n        uint256 length;\r\n        uint256 counter;\r\n        uint256 condition;\r\n        uint256[] memory ids;\r\n        uint256 increment = 0;\r\n        address _owner = msg.sender;\r\n\r\n        if (compareStrings(_type, \"pending-seller\")) {\r\n            length = pendingSellerOrders[_owner].length;\r\n            counter = (_limit > length) ? length : _limit;\r\n            condition = (_limit > length) ? 0 : (length - _limit);\r\n            ids = new uint256[](_limit > length ? _limit : length);\r\n            for (int256 i = int256(counter); i >= int256(condition); i--) {\r\n                ids[increment] = uint256(\r\n                    pendingSellerOrders[_owner][uint256(i)].id\r\n                );\r\n            }\r\n        } else if (compareStrings(_type, \"pending-buyer\")) {\r\n            length = pendingBuyerOrders[_owner].length;\r\n            counter = (_limit > length) ? length : _limit;\r\n            condition = (_limit > length) ? 0 : (length - _limit);\r\n            ids = new uint256[](_limit > length ? _limit : length);\r\n            for (int256 i = int256(counter); i >= int256(condition); i--) {\r\n                ids[increment] = uint256(\r\n                    pendingBuyerOrders[_owner][uint256(i)].id\r\n                );\r\n            }\r\n        } else if (compareStrings(_type, \"completed-seller\")) {\r\n            length = completedSellerOrders[_owner].length;\r\n            counter = (_limit > length) ? length : _limit;\r\n            condition = (_limit > length) ? 0 : (length - _limit);\r\n            ids = new uint256[](_limit > length ? _limit : length);\r\n            for (int256 i = int256(counter); i >= int256(condition); i--) {\r\n                ids[increment] = uint256(\r\n                    completedSellerOrders[_owner][uint256(i)].id\r\n                );\r\n            }\r\n        } else if (compareStrings(_type, \"completed-buyer\")) {\r\n            length = completedBuyerOrders[_owner].length;\r\n            counter = (_limit > length) ? length : _limit;\r\n            condition = (_limit > length) ? 0 : (length - _limit);\r\n            ids = new uint256[](_limit > length ? _limit : length);\r\n            for (int256 i = int256(counter); i >= int256(condition); i--) {\r\n                ids[increment] = uint256(\r\n                    completedBuyerOrders[_owner][uint256(i)].id\r\n                );\r\n            }\r\n        }\r\n\r\n        return ids;\r\n    }\r\n\r\n    function getOrder(string memory _type, uint256 _id)\r\n        public\r\n        view\r\n        returns (\r\n            uint256 id,\r\n            string memory name,\r\n            string memory deliveryAddress,\r\n            uint256 postalCode,\r\n            uint256 phone,\r\n            string memory state,\r\n            address customer\r\n        )\r\n    {\r\n        Order memory o;\r\n        address _owner = msg.sender;\r\n        if (compareStrings(_type, \"pending-seller\")) {\r\n            o = pendingSellerOrders[_owner][_id];\r\n        } else if (compareStrings(_type, \"pending-buyer\")) {\r\n            o = pendingBuyerOrders[_owner][_id];\r\n        } else if (compareStrings(_type, \"completed-seller\")) {\r\n            o = completedSellerOrders[_owner][_id];\r\n        } else if (compareStrings(_type, \"completed-buyer\")) {\r\n            o = completedBuyerOrders[_owner][_id];\r\n        }\r\n\r\n        id = o.id;\r\n        name = o.name;\r\n        deliveryAddress = o.deliveryAddress;\r\n        postalCode = o.postalCode;\r\n        phone = o.phone;\r\n        state = o.state;\r\n        customer = o.customer;\r\n    }\r\n\r\n    function compareStrings(string memory a, string memory b)\r\n        public\r\n        pure\r\n        returns (bool)\r\n    {\r\n        return keccak256(abi.encodePacked(a)) == keccak256(abi.encodePacked(b));\r\n    }\r\n}\r\n",
  "sourcePath": "C:/Users/samee/OneDrive/Desktop/Blockchain-Buyer-Seller-Market-BC_Team_6/contracts/BookStore.sol",
  "compiler": {
    "name": "solc",
    "version": "0.5.16+commit.9c3226ce.Emscripten.clang"
  },
  "schemaVersion": "3.3.4",
  "updatedAt": "2021-03-30T04:43:50.121Z",
  "devdoc": {
    "methods": {}
  },
  "userdoc": {
    "methods": {}
  }
}