{
  "contractName": "BookStore",
  "abi": [
    {
      "constant": true,
      "inputs": [
        {
          "internalType": "bytes32",
          "name": "",
          "type": "bytes32"
        }
      ],
      "name": "bookById",
      "outputs": [
        {
          "internalType": "bytes32",
          "name": "id",
          "type": "bytes32"
        },
        {
          "internalType": "string",
          "name": "title",
          "type": "string"
        },
        {
          "internalType": "string",
          "name": "isbn",
          "type": "string"
        },
        {
          "internalType": "string",
          "name": "author",
          "type": "string"
        },
        {
          "internalType": "string",
          "name": "category",
          "type": "string"
        },
        {
          "internalType": "address payable",
          "name": "owner",
          "type": "address"
        },
        {
          "internalType": "uint256",
          "name": "price",
          "type": "uint256"
        },
        {
          "internalType": "bool",
          "name": "forSale",
          "type": "bool"
        },
        {
          "internalType": "string",
          "name": "image",
          "type": "string"
        },
        {
          "internalType": "bool",
          "name": "sold",
          "type": "bool"
        }
      ],
      "payable": false,
      "stateMutability": "view",
      "type": "function"
    },
    {
      "constant": true,
      "inputs": [
        {
          "internalType": "bytes32",
          "name": "",
          "type": "bytes32"
        }
      ],
      "name": "bookExists",
      "outputs": [
        {
          "internalType": "bool",
          "name": "",
          "type": "bool"
        }
      ],
      "payable": false,
      "stateMutability": "view",
      "type": "function"
    },
    {
      "constant": true,
      "inputs": [
        {
          "internalType": "uint256",
          "name": "",
          "type": "uint256"
        }
      ],
      "name": "books",
      "outputs": [
        {
          "internalType": "bytes32",
          "name": "",
          "type": "bytes32"
        }
      ],
      "payable": false,
      "stateMutability": "view",
      "type": "function"
    },
    {
      "constant": true,
      "inputs": [
        {
          "internalType": "bytes32",
          "name": "",
          "type": "bytes32"
        }
      ],
      "name": "booksForSale",
      "outputs": [
        {
          "internalType": "bytes32",
          "name": "",
          "type": "bytes32"
        }
      ],
      "payable": false,
      "stateMutability": "view",
      "type": "function"
    },
    {
      "constant": true,
      "inputs": [
        {
          "internalType": "address",
          "name": "",
          "type": "address"
        },
        {
          "internalType": "bytes32",
          "name": "",
          "type": "bytes32"
        }
      ],
      "name": "completedBuyerOrders",
      "outputs": [
        {
          "internalType": "bytes32",
          "name": "",
          "type": "bytes32"
        }
      ],
      "payable": false,
      "stateMutability": "view",
      "type": "function"
    },
    {
      "constant": true,
      "inputs": [
        {
          "internalType": "address",
          "name": "",
          "type": "address"
        },
        {
          "internalType": "bytes32",
          "name": "",
          "type": "bytes32"
        }
      ],
      "name": "completedSellerOrders",
      "outputs": [
        {
          "internalType": "bytes32",
          "name": "",
          "type": "bytes32"
        }
      ],
      "payable": false,
      "stateMutability": "view",
      "type": "function"
    },
    {
      "constant": true,
      "inputs": [],
      "name": "lastId",
      "outputs": [
        {
          "internalType": "uint256",
          "name": "",
          "type": "uint256"
        }
      ],
      "payable": false,
      "stateMutability": "view",
      "type": "function"
    },
    {
      "constant": true,
      "inputs": [],
      "name": "lastPendingBuyerOrder",
      "outputs": [
        {
          "internalType": "uint256",
          "name": "",
          "type": "uint256"
        }
      ],
      "payable": false,
      "stateMutability": "view",
      "type": "function"
    },
    {
      "constant": true,
      "inputs": [],
      "name": "lastPendingSellerOrder",
      "outputs": [
        {
          "internalType": "uint256",
          "name": "",
          "type": "uint256"
        }
      ],
      "payable": false,
      "stateMutability": "view",
      "type": "function"
    },
    {
      "constant": true,
      "inputs": [
        {
          "internalType": "bytes32",
          "name": "",
          "type": "bytes32"
        }
      ],
      "name": "orderById",
      "outputs": [
        {
          "internalType": "bytes32",
          "name": "id",
          "type": "bytes32"
        },
        {
          "internalType": "bytes32",
          "name": "bookId",
          "type": "bytes32"
        },
        {
          "internalType": "string",
          "name": "name",
          "type": "string"
        },
        {
          "internalType": "string",
          "name": "deliveryAddress",
          "type": "string"
        },
        {
          "internalType": "uint256",
          "name": "postalCode",
          "type": "uint256"
        },
        {
          "internalType": "uint256",
          "name": "phone",
          "type": "uint256"
        },
        {
          "internalType": "string",
          "name": "state",
          "type": "string"
        },
        {
          "internalType": "string",
          "name": "bookName",
          "type": "string"
        },
        {
          "internalType": "address",
          "name": "customer",
          "type": "address"
        },
        {
          "internalType": "address",
          "name": "seller",
          "type": "address"
        }
      ],
      "payable": false,
      "stateMutability": "view",
      "type": "function"
    },
    {
      "constant": true,
      "inputs": [
        {
          "internalType": "uint256",
          "name": "",
          "type": "uint256"
        }
      ],
      "name": "orders",
      "outputs": [
        {
          "internalType": "bytes32",
          "name": "",
          "type": "bytes32"
        }
      ],
      "payable": false,
      "stateMutability": "view",
      "type": "function"
    },
    {
      "constant": true,
      "inputs": [
        {
          "internalType": "address",
          "name": "",
          "type": "address"
        },
        {
          "internalType": "bytes32",
          "name": "",
          "type": "bytes32"
        }
      ],
      "name": "ownerProducts",
      "outputs": [
        {
          "internalType": "bytes32",
          "name": "",
          "type": "bytes32"
        }
      ],
      "payable": false,
      "stateMutability": "view",
      "type": "function"
    },
    {
      "constant": true,
      "inputs": [
        {
          "internalType": "address",
          "name": "",
          "type": "address"
        },
        {
          "internalType": "bytes32",
          "name": "",
          "type": "bytes32"
        }
      ],
      "name": "pendingBuyerOrders",
      "outputs": [
        {
          "internalType": "bytes32",
          "name": "",
          "type": "bytes32"
        }
      ],
      "payable": false,
      "stateMutability": "view",
      "type": "function"
    },
    {
      "constant": true,
      "inputs": [
        {
          "internalType": "address",
          "name": "",
          "type": "address"
        },
        {
          "internalType": "bytes32",
          "name": "",
          "type": "bytes32"
        }
      ],
      "name": "pendingSellerOrders",
      "outputs": [
        {
          "internalType": "bytes32",
          "name": "",
          "type": "bytes32"
        }
      ],
      "payable": false,
      "stateMutability": "view",
      "type": "function"
    },
    {
      "constant": true,
      "inputs": [
        {
          "internalType": "bytes32",
          "name": "",
          "type": "bytes32"
        },
        {
          "internalType": "uint256",
          "name": "",
          "type": "uint256"
        }
      ],
      "name": "previousOwners",
      "outputs": [
        {
          "internalType": "address",
          "name": "",
          "type": "address"
        }
      ],
      "payable": false,
      "stateMutability": "view",
      "type": "function"
    },
    {
      "constant": true,
      "inputs": [],
      "name": "token",
      "outputs": [
        {
          "internalType": "address",
          "name": "",
          "type": "address"
        }
      ],
      "payable": false,
      "stateMutability": "view",
      "type": "function"
    },
    {
      "constant": true,
      "inputs": [
        {
          "internalType": "address",
          "name": "",
          "type": "address"
        },
        {
          "internalType": "uint256",
          "name": "",
          "type": "uint256"
        }
      ],
      "name": "userOrders",
      "outputs": [
        {
          "internalType": "bytes32",
          "name": "",
          "type": "bytes32"
        }
      ],
      "payable": false,
      "stateMutability": "view",
      "type": "function"
    },
    {
      "constant": false,
      "inputs": [
        {
          "internalType": "string",
          "name": "_title",
          "type": "string"
        },
        {
          "internalType": "string",
          "name": "_isbn",
          "type": "string"
        },
        {
          "internalType": "string",
          "name": "_author",
          "type": "string"
        },
        {
          "internalType": "string",
          "name": "_category",
          "type": "string"
        },
        {
          "internalType": "uint256",
          "name": "_price",
          "type": "uint256"
        },
        {
          "internalType": "bool",
          "name": "_forSale",
          "type": "bool"
        },
        {
          "internalType": "string",
          "name": "_image",
          "type": "string"
        }
      ],
      "name": "addBook",
      "outputs": [],
      "payable": false,
      "stateMutability": "nonpayable",
      "type": "function"
    },
    {
      "constant": false,
      "inputs": [
        {
          "internalType": "bytes32",
          "name": "_id",
          "type": "bytes32"
        }
      ],
      "name": "sellBook",
      "outputs": [],
      "payable": false,
      "stateMutability": "nonpayable",
      "type": "function"
    },
    {
      "constant": false,
      "inputs": [
        {
          "internalType": "bytes32",
          "name": "_id",
          "type": "bytes32"
        }
      ],
      "name": "unSellBook",
      "outputs": [],
      "payable": false,
      "stateMutability": "nonpayable",
      "type": "function"
    },
    {
      "constant": false,
      "inputs": [
        {
          "internalType": "bytes32",
          "name": "_id",
          "type": "bytes32"
        },
        {
          "internalType": "string",
          "name": "_name",
          "type": "string"
        },
        {
          "internalType": "string",
          "name": "_deliveryAddress",
          "type": "string"
        },
        {
          "internalType": "uint256",
          "name": "_postalCode",
          "type": "uint256"
        },
        {
          "internalType": "uint256",
          "name": "_phone",
          "type": "uint256"
        }
      ],
      "name": "buyBook",
      "outputs": [],
      "payable": true,
      "stateMutability": "payable",
      "type": "function"
    },
    {
      "constant": false,
      "inputs": [
        {
          "internalType": "bytes32",
          "name": "_id",
          "type": "bytes32"
        }
      ],
      "name": "markOrderCompleted",
      "outputs": [],
      "payable": false,
      "stateMutability": "nonpayable",
      "type": "function"
    },
    {
      "constant": true,
      "inputs": [
        {
          "internalType": "int256",
          "name": "_limit",
          "type": "int256"
        }
      ],
      "name": "getBooksIds",
      "outputs": [
        {
          "internalType": "bytes32[]",
          "name": "",
          "type": "bytes32[]"
        }
      ],
      "payable": false,
      "stateMutability": "view",
      "type": "function"
    },
    {
      "constant": true,
      "inputs": [
        {
          "internalType": "bytes32",
          "name": "_id",
          "type": "bytes32"
        }
      ],
      "name": "getBook",
      "outputs": [
        {
          "internalType": "bytes32",
          "name": "id",
          "type": "bytes32"
        },
        {
          "internalType": "string",
          "name": "title",
          "type": "string"
        },
        {
          "internalType": "string",
          "name": "isbn",
          "type": "string"
        },
        {
          "internalType": "string",
          "name": "author",
          "type": "string"
        },
        {
          "internalType": "string",
          "name": "category",
          "type": "string"
        },
        {
          "internalType": "address payable",
          "name": "owner",
          "type": "address"
        },
        {
          "internalType": "uint256",
          "name": "price",
          "type": "uint256"
        },
        {
          "internalType": "bool",
          "name": "forSale",
          "type": "bool"
        },
        {
          "internalType": "bool",
          "name": "sold",
          "type": "bool"
        },
        {
          "internalType": "string",
          "name": "image",
          "type": "string"
        }
      ],
      "payable": false,
      "stateMutability": "view",
      "type": "function"
    },
    {
      "constant": true,
      "inputs": [
        {
          "internalType": "uint256",
          "name": "_limit",
          "type": "uint256"
        }
      ],
      "name": "getBooksForSale",
      "outputs": [
        {
          "internalType": "bytes32[]",
          "name": "",
          "type": "bytes32[]"
        }
      ],
      "payable": false,
      "stateMutability": "view",
      "type": "function"
    },
    {
      "constant": true,
      "inputs": [],
      "name": "getSentAddress",
      "outputs": [
        {
          "internalType": "address",
          "name": "",
          "type": "address"
        }
      ],
      "payable": false,
      "stateMutability": "view",
      "type": "function"
    },
    {
      "constant": true,
      "inputs": [],
      "name": "getOrdersLists",
      "outputs": [
        {
          "internalType": "bytes32[]",
          "name": "",
          "type": "bytes32[]"
        }
      ],
      "payable": false,
      "stateMutability": "view",
      "type": "function"
    },
    {
      "constant": true,
      "inputs": [
        {
          "internalType": "bytes32",
          "name": "id",
          "type": "bytes32"
        }
      ],
      "name": "getOrderById",
      "outputs": [
        {
          "internalType": "bytes32",
          "name": "orderId",
          "type": "bytes32"
        },
        {
          "internalType": "string",
          "name": "name",
          "type": "string"
        },
        {
          "internalType": "string",
          "name": "deliveryAddress",
          "type": "string"
        },
        {
          "internalType": "uint256",
          "name": "postalCode",
          "type": "uint256"
        },
        {
          "internalType": "uint256",
          "name": "phone",
          "type": "uint256"
        },
        {
          "internalType": "string",
          "name": "state",
          "type": "string"
        },
        {
          "internalType": "address",
          "name": "customer",
          "type": "address"
        },
        {
          "internalType": "string",
          "name": "bookName",
          "type": "string"
        },
        {
          "internalType": "address",
          "name": "seller",
          "type": "address"
        }
      ],
      "payable": false,
      "stateMutability": "view",
      "type": "function"
    }
  ],
  "bytecode": "0x608060405234801561001057600080fd5b50614e1f806100206000396000f3fe6080604052600436106101b65760003560e01c8063856652e9116100ec578063a87c792d1161008a578063d43010d511610064578063d43010d514611458578063d8bd3bed146114c7578063db83104214611502578063fc0c546a1461183c576101b6565b8063a87c792d14611106578063ad1a7d0c14611172578063c1292cc31461142d576101b6565b80639a1e67b5116100c65780639a1e67b514610da2578063a2e1dc2214610df5578063a639912914610e44578063a85c38ef146110b7576101b6565b8063856652e914610c6857806387e9842a14610cd75780638d2f854b14610d67576101b6565b806332b451e6116101595780636608484c116101335780636608484c14610afa5780636874404614610b7f57806368756f7314610bce57806369ec8d2414610bf9576101b6565b806332b451e6146107ba57806363a52ef91461082957806364bd6ac214610aa3576101b6565b80630751ac97116101955780630751ac97146102905780631e02063f1461032057806324042828146105db578063299f438f1461064a576101b6565b8062312338146101bb578063011407b1146101f657806302949a0a14610265575b600080fd5b3480156101c757600080fd5b506101f4600480360360208110156101de57600080fd5b8101908080359060200190929190505050611893565b005b34801561020257600080fd5b5061024f6004803603604081101561021957600080fd5b81019080803573ffffffffffffffffffffffffffffffffffffffff16906020019092919080359060200190929190505050611977565b6040518082815260200191505060405180910390f35b34801561027157600080fd5b5061027a61199c565b6040518082815260200191505060405180910390f35b34801561029c57600080fd5b506102c9600480360360208110156102b357600080fd5b81019080803590602001909291905050506119a2565b6040518080602001828103825283818151815260200191508051906020019060200280838360005b8381101561030c5780820151818401526020810190506102f1565b505050509050019250505060405180910390f35b34801561032c57600080fd5b506103596004803603602081101561034357600080fd5b8101908080359060200190929190505050611ab2565b604051808b8152602001806020018060200180602001806020018a73ffffffffffffffffffffffffffffffffffffffff1673ffffffffffffffffffffffffffffffffffffffff16815260200189815260200188151515158152602001806020018715151515815260200186810386528f818151815260200191508051906020019080838360005b838110156103fb5780820151818401526020810190506103e0565b50505050905090810190601f1680156104285780820380516001836020036101000a031916815260200191505b5086810385528e818151815260200191508051906020019080838360005b83811015610461578082015181840152602081019050610446565b50505050905090810190601f16801561048e5780820380516001836020036101000a031916815260200191505b5086810384528d818151815260200191508051906020019080838360005b838110156104c75780820151818401526020810190506104ac565b50505050905090810190601f1680156104f45780820380516001836020036101000a031916815260200191505b5086810383528c818151815260200191508051906020019080838360005b8381101561052d578082015181840152602081019050610512565b50505050905090810190601f16801561055a5780820380516001836020036101000a031916815260200191505b50868103825288818151815260200191508051906020019080838360005b83811015610593578082015181840152602081019050610578565b50505050905090810190601f1680156105c05780820380516001836020036101000a031916815260200191505b509f5050505050505050505050505050505060405180910390f35b3480156105e757600080fd5b50610634600480360360408110156105fe57600080fd5b81019080803573ffffffffffffffffffffffffffffffffffffffff16906020019092919080359060200190929190505050611e38565b6040518082815260200191505060405180910390f35b6107b8600480360360a081101561066057600080fd5b81019080803590602001909291908035906020019064010000000081111561068757600080fd5b82018360208201111561069957600080fd5b803590602001918460018302840111640100000000831117156106bb57600080fd5b91908080601f016020809104026020016040519081016040528093929190818152602001838380828437600081840152601f19601f8201169050808301925050505050505091929192908035906020019064010000000081111561071e57600080fd5b82018360208201111561073057600080fd5b8035906020019184600183028401116401000000008311171561075257600080fd5b91908080601f016020809104026020016040519081016040528093929190818152602001838380828437600081840152601f19601f8201169050808301925050505050505091929192908035906020019092919080359060200190929190505050611e5d565b005b3480156107c657600080fd5b50610813600480360360408110156107dd57600080fd5b81019080803573ffffffffffffffffffffffffffffffffffffffff16906020019092919080359060200190929190505050612b20565b6040518082815260200191505060405180910390f35b34801561083557600080fd5b506108626004803603602081101561084c57600080fd5b8101908080359060200190929190505050612b45565b604051808b81526020018a8152602001806020018060200189815260200188815260200180602001806020018773ffffffffffffffffffffffffffffffffffffffff1673ffffffffffffffffffffffffffffffffffffffff1681526020018673ffffffffffffffffffffffffffffffffffffffff1673ffffffffffffffffffffffffffffffffffffffff16815260200185810385528d818151815260200191508051906020019080838360005b8381101561092a57808201518184015260208101905061090f565b50505050905090810190601f1680156109575780820380516001836020036101000a031916815260200191505b5085810384528c818151815260200191508051906020019080838360005b83811015610990578082015181840152602081019050610975565b50505050905090810190601f1680156109bd5780820380516001836020036101000a031916815260200191505b50858103835289818151815260200191508051906020019080838360005b838110156109f65780820151818401526020810190506109db565b50505050905090810190601f168015610a235780820380516001836020036101000a031916815260200191505b50858103825288818151815260200191508051906020019080838360005b83811015610a5c578082015181840152602081019050610a41565b50505050905090810190601f168015610a895780820380516001836020036101000a031916815260200191505b509e50505050505050505050505050505060405180910390f35b348015610aaf57600080fd5b50610ab8612e39565b604051808273ffffffffffffffffffffffffffffffffffffffff1673ffffffffffffffffffffffffffffffffffffffff16815260200191505060405180910390f35b348015610b0657600080fd5b50610b3d60048036036040811015610b1d57600080fd5b810190808035906020019092919080359060200190929190505050612e41565b604051808273ffffffffffffffffffffffffffffffffffffffff1673ffffffffffffffffffffffffffffffffffffffff16815260200191505060405180910390f35b348015610b8b57600080fd5b50610bb860048036036020811015610ba257600080fd5b8101908080359060200190929190505050612e8c565b6040518082815260200191505060405180910390f35b348015610bda57600080fd5b50610be3612ead565b6040518082815260200191505060405180910390f35b348015610c0557600080fd5b50610c5260048036036040811015610c1c57600080fd5b81019080803573ffffffffffffffffffffffffffffffffffffffff16906020019092919080359060200190929190505050612eb3565b6040518082815260200191505060405180910390f35b348015610c7457600080fd5b50610cc160048036036040811015610c8b57600080fd5b81019080803573ffffffffffffffffffffffffffffffffffffffff16906020019092919080359060200190929190505050612ed8565b6040518082815260200191505060405180910390f35b348015610ce357600080fd5b50610d1060048036036020811015610cfa57600080fd5b8101908080359060200190929190505050612f06565b6040518080602001828103825283818151815260200191508051906020019060200280838360005b83811015610d53578082015181840152602081019050610d38565b505050509050019250505060405180910390f35b348015610d7357600080fd5b50610da060048036036020811015610d8a57600080fd5b8101908080359060200190929190505050613000565b005b348015610dae57600080fd5b50610ddb60048036036020811015610dc557600080fd5b8101908080359060200190929190505050613a5b565b604051808215151515815260200191505060405180910390f35b348015610e0157600080fd5b50610e2e60048036036020811015610e1857600080fd5b8101908080359060200190929190505050613a7b565b6040518082815260200191505060405180910390f35b348015610e5057600080fd5b50610e7d60048036036020811015610e6757600080fd5b8101908080359060200190929190505050613a93565b604051808a81526020018060200180602001898152602001888152602001806020018773ffffffffffffffffffffffffffffffffffffffff1673ffffffffffffffffffffffffffffffffffffffff168152602001806020018673ffffffffffffffffffffffffffffffffffffffff1673ffffffffffffffffffffffffffffffffffffffff16815260200185810385528d818151815260200191508051906020019080838360005b83811015610f3f578082015181840152602081019050610f24565b50505050905090810190601f168015610f6c5780820380516001836020036101000a031916815260200191505b5085810384528c818151815260200191508051906020019080838360005b83811015610fa5578082015181840152602081019050610f8a565b50505050905090810190601f168015610fd25780820380516001836020036101000a031916815260200191505b50858103835289818151815260200191508051906020019080838360005b8381101561100b578082015181840152602081019050610ff0565b50505050905090810190601f1680156110385780820380516001836020036101000a031916815260200191505b50858103825287818151815260200191508051906020019080838360005b83811015611071578082015181840152602081019050611056565b50505050905090810190601f16801561109e5780820380516001836020036101000a031916815260200191505b509d505050505050505050505050505060405180910390f35b3480156110c357600080fd5b506110f0600480360360208110156110da57600080fd5b8101908080359060200190929190505050613e77565b6040518082815260200191505060405180910390f35b34801561111257600080fd5b5061111b613e98565b6040518080602001828103825283818151815260200191508051906020019060200280838360005b8381101561115e578082015181840152602081019050611143565b505050509050019250505060405180910390f35b34801561117e57600080fd5b506111ab6004803603602081101561119557600080fd5b8101908080359060200190929190505050613ef0565b604051808b8152602001806020018060200180602001806020018a73ffffffffffffffffffffffffffffffffffffffff1673ffffffffffffffffffffffffffffffffffffffff16815260200189815260200188151515158152602001871515151581526020018060200186810386528f818151815260200191508051906020019080838360005b8381101561124d578082015181840152602081019050611232565b50505050905090810190601f16801561127a5780820380516001836020036101000a031916815260200191505b5086810385528e818151815260200191508051906020019080838360005b838110156112b3578082015181840152602081019050611298565b50505050905090810190601f1680156112e05780820380516001836020036101000a031916815260200191505b5086810384528d818151815260200191508051906020019080838360005b838110156113195780820151818401526020810190506112fe565b50505050905090810190601f1680156113465780820380516001836020036101000a031916815260200191505b5086810383528c818151815260200191508051906020019080838360005b8381101561137f578082015181840152602081019050611364565b50505050905090810190601f1680156113ac5780820380516001836020036101000a031916815260200191505b50868103825287818151815260200191508051906020019080838360005b838110156113e55780820151818401526020810190506113ca565b50505050905090810190601f1680156114125780820380516001836020036101000a031916815260200191505b509f5050505050505050505050505050505060405180910390f35b34801561143957600080fd5b50611442614349565b6040518082815260200191505060405180910390f35b34801561146457600080fd5b506114b16004803603604081101561147b57600080fd5b81019080803573ffffffffffffffffffffffffffffffffffffffff1690602001909291908035906020019092919050505061434f565b6040518082815260200191505060405180910390f35b3480156114d357600080fd5b50611500600480360360208110156114ea57600080fd5b8101908080359060200190929190505050614374565b005b34801561150e57600080fd5b5061183a600480360360e081101561152557600080fd5b810190808035906020019064010000000081111561154257600080fd5b82018360208201111561155457600080fd5b8035906020019184600183028401116401000000008311171561157657600080fd5b91908080601f016020809104026020016040519081016040528093929190818152602001838380828437600081840152601f19601f820116905080830192505050505050509192919290803590602001906401000000008111156115d957600080fd5b8201836020820111156115eb57600080fd5b8035906020019184600183028401116401000000008311171561160d57600080fd5b91908080601f016020809104026020016040519081016040528093929190818152602001838380828437600081840152601f19601f8201169050808301925050505050505091929192908035906020019064010000000081111561167057600080fd5b82018360208201111561168257600080fd5b803590602001918460018302840111640100000000831117156116a457600080fd5b91908080601f016020809104026020016040519081016040528093929190818152602001838380828437600081840152601f19601f8201169050808301925050505050505091929192908035906020019064010000000081111561170757600080fd5b82018360208201111561171957600080fd5b8035906020019184600183028401116401000000008311171561173b57600080fd5b91908080601f016020809104026020016040519081016040528093929190818152602001838380828437600081840152601f19601f82011690508083019250505050505050919291929080359060200190929190803515159060200190929190803590602001906401000000008111156117b457600080fd5b8201836020820111156117c657600080fd5b803590602001918460018302840111640100000000831117156117e857600080fd5b91908080601f016020809104026020016040519081016040528093929190818152602001838380828437600081840152601f19601f820116905080830192505050505050509192919290505050614458565b005b34801561184857600080fd5b50611851614b2d565b604051808273ffffffffffffffffffffffffffffffffffffffff1673ffffffffffffffffffffffffffffffffffffffff16815260200191505060405180910390f35b600115156009600083815260200190815260200160002060009054906101000a900460ff1615151461192d576040517f08c379a00000000000000000000000000000000000000000000000000000000081526004018080602001828103825260128152602001807f426f6f6b20646f65736e2774206578697374000000000000000000000000000081525060200191505060405180910390fd5b60006006600083815260200190815260200160002060070160006101000a81548160ff02191690831515021790555080600c60008381526020019081526020016000208190555050565b6004602052816000526040600020602052806000526040600020600091509150505481565b60105481565b60606000600a8054905090506060836040519080825280602002602001820160405280156119df5781602001602082028038833980820191505090505b509050600080905060008090505b83811015611aa6576000801b600c6000600a8481548110611a0a57fe5b90600052602060002001548152602001908152602001600020541415611a2f57611aa6565b6000600c6000600a8481548110611a4257fe5b906000526020600020015481526020019081526020016000205490506000801b8114611a985780848481518110611a7557fe5b602002602001018181525050828060010193505086831115611a975750611aa6565b5b5080806001019150506119ed565b50819350505050919050565b6006602052806000526040600020600091509050806000015490806001018054600181600116156101000203166002900480601f016020809104026020016040519081016040528092919081815260200182805460018160011615610100020316600290048015611b645780601f10611b3957610100808354040283529160200191611b64565b820191906000526020600020905b815481529060010190602001808311611b4757829003601f168201915b505050505090806002018054600181600116156101000203166002900480601f016020809104026020016040519081016040528092919081815260200182805460018160011615610100020316600290048015611c025780601f10611bd757610100808354040283529160200191611c02565b820191906000526020600020905b815481529060010190602001808311611be557829003601f168201915b505050505090806003018054600181600116156101000203166002900480601f016020809104026020016040519081016040528092919081815260200182805460018160011615610100020316600290048015611ca05780601f10611c7557610100808354040283529160200191611ca0565b820191906000526020600020905b815481529060010190602001808311611c8357829003601f168201915b505050505090806004018054600181600116156101000203166002900480601f016020809104026020016040519081016040528092919081815260200182805460018160011615610100020316600290048015611d3e5780601f10611d1357610100808354040283529160200191611d3e565b820191906000526020600020905b815481529060010190602001808311611d2157829003601f168201915b5050505050908060050160009054906101000a900473ffffffffffffffffffffffffffffffffffffffff16908060060154908060070160009054906101000a900460ff1690806008018054600181600116156101000203166002900480601f016020809104026020016040519081016040528092919081815260200182805460018160011615610100020316600290048015611e1b5780601f10611df057610100808354040283529160200191611e1b565b820191906000526020600020905b815481529060010190602001808311611dfe57829003601f168201915b5050505050908060090160009054906101000a900460ff1690508a565b6001602052816000526040600020602052806000526040600020600091509150505481565b6009600086815260200190815260200160002060009054906101000a900460ff16611ed3576040517f08c379a0000000000000000000000000000000000000000000000000000000008152600401808060200182810382526023815260200180614d9d6023913960400191505060405180910390fd5b6000845111611f4a576040517f08c379a00000000000000000000000000000000000000000000000000000000081526004018080602001828103825260148152602001807f546865206e616d65206d7573742062652073657400000000000000000000000081525060200191505060405180910390fd5b6000835111611fc1576040517f08c379a00000000000000000000000000000000000000000000000000000000081526004018080602001828103825260208152602001807f5468652044656c69766572792041646472657373206d7573742062652073657481525060200191505060405180910390fd5b60008211612037576040517f08c379a000000000000000000000000000000000000000000000000000000000815260040180806020018281038252601b8152602001807f54686520706f7374616c20636f6465206d75737420626520736574000000000081525060200191505060405180910390fd5b600081116120ad576040517f08c379a000000000000000000000000000000000000000000000000000000000815260040180806020018281038252601c8152602001807f5468652050686f6e65204e756d626572206d757374206265207365740000000081525060200191505060405180910390fd5b600033905060006002868887856040516020018085805190602001908083835b602083106120f057805182526020820191506020810190506020830392506120cd565b6001836020036101000a03801982511681845116808217855250505050505090500184815260200183805190602001908083835b602083106121475780518252602082019150602081019050602083039250612124565b6001836020036101000a0380198251168184511680821785525050505050509050018273ffffffffffffffffffffffffffffffffffffffff1673ffffffffffffffffffffffffffffffffffffffff1660601b81526014019450505050506040516020818303038152906040526040518082805190602001908083835b602083106121e657805182526020820191506020810190506020830392506121c3565b6001836020036101000a038019825116818451168082178552505050505050905001915050602060405180830381855afa158015612228573d6000803e3d6000fd5b5050506040513d602081101561223d57600080fd5b81019080805190602001909291905050509050612258614b53565b600660008981526020019081526020016000206040518061014001604052908160008201548152602001600182018054600181600116156101000203166002900480601f01602080910402602001604051908101604052809291908181526020018280546001816001161561010002031660029004801561231a5780601f106122ef5761010080835404028352916020019161231a565b820191906000526020600020905b8154815290600101906020018083116122fd57829003601f168201915b50505050508152602001600282018054600181600116156101000203166002900480601f0160208091040260200160405190810160405280929190818152602001828054600181600116156101000203166002900480156123bc5780601f10612391576101008083540402835291602001916123bc565b820191906000526020600020905b81548152906001019060200180831161239f57829003601f168201915b50505050508152602001600382018054600181600116156101000203166002900480601f01602080910402602001604051908101604052809291908181526020018280546001816001161561010002031660029004801561245e5780601f106124335761010080835404028352916020019161245e565b820191906000526020600020905b81548152906001019060200180831161244157829003601f168201915b50505050508152602001600482018054600181600116156101000203166002900480601f0160208091040260200160405190810160405280929190818152602001828054600181600116156101000203166002900480156125005780601f106124d557610100808354040283529160200191612500565b820191906000526020600020905b8154815290600101906020018083116124e357829003601f168201915b505050505081526020016005820160009054906101000a900473ffffffffffffffffffffffffffffffffffffffff1673ffffffffffffffffffffffffffffffffffffffff1673ffffffffffffffffffffffffffffffffffffffff168152602001600682015481526020016007820160009054906101000a900460ff16151515158152602001600882018054600181600116156101000203166002900480601f01602080910402602001604051908101604052809291908181526020018280546001816001161561010002031660029004801561261d5780601f106125f25761010080835404028352916020019161261d565b820191906000526020600020905b81548152906001019060200180831161260057829003601f168201915b505050505081526020016009820160009054906101000a900460ff1615151515815250509050606081602001519050612654614bc3565b6040518061014001604052808581526020018b81526020018a81526020018981526020018881526020018781526020016040518060400160405280600781526020017f70656e64696e670000000000000000000000000000000000000000000000000081525081526020018381526020013373ffffffffffffffffffffffffffffffffffffffff1681526020018460a0015173ffffffffffffffffffffffffffffffffffffffff1681525090508260c00151341461275d576040517f08c379a000000000000000000000000000000000000000000000000000000000815260040180806020018281038252602b815260200180614dc0602b913960400191505060405180910390fd5b83600160008560a0015173ffffffffffffffffffffffffffffffffffffffff1673ffffffffffffffffffffffffffffffffffffffff16815260200190815260200160002060008681526020019081526020016000208190555083600260008773ffffffffffffffffffffffffffffffffffffffff1673ffffffffffffffffffffffffffffffffffffffff168152602001908152602001600020600086815260200190815260200160002081905550600560008460a0015173ffffffffffffffffffffffffffffffffffffffff1673ffffffffffffffffffffffffffffffffffffffff168152602001908152602001600020849080600181540180825580915050906001820390600052602060002001600090919290919091505550600560008673ffffffffffffffffffffffffffffffffffffffff1673ffffffffffffffffffffffffffffffffffffffff168152602001908152602001600020849080600181540180825580915050906001820390600052602060002001600090919290919091505550600b849080600181540180825580915050906001820390600052602060002001600090919290919091505550806008600086815260200190815260200160002060008201518160000155602082015181600101556040820151816002019080519060200190612951929190614c48565b50606082015181600301908051906020019061296e929190614c48565b506080820151816004015560a0820151816005015560c082015181600601908051906020019061299f929190614c48565b5060e08201518160070190805190602001906129bc929190614c48565b506101008201518160080160006101000a81548173ffffffffffffffffffffffffffffffffffffffff021916908373ffffffffffffffffffffffffffffffffffffffff1602179055506101208201518160090160006101000a81548173ffffffffffffffffffffffffffffffffffffffff021916908373ffffffffffffffffffffffffffffffffffffffff160217905550905050600c6000858152602001908152602001600020600090556000600660008c815260200190815260200160002060070160006101000a81548160ff0219169083151502179055506001600660008c815260200190815260200160002060090160006101000a81548160ff0219169083151502179055508260a0015173ffffffffffffffffffffffffffffffffffffffff166108fc8460c001519081150290604051600060405180830381858888f19350505050158015612b13573d6000803e3d6000fd5b5050505050505050505050565b6000602052816000526040600020602052806000526040600020600091509150505481565b6008602052806000526040600020600091509050806000015490806001015490806002018054600181600116156101000203166002900480601f016020809104026020016040519081016040528092919081815260200182805460018160011615610100020316600290048015612bfd5780601f10612bd257610100808354040283529160200191612bfd565b820191906000526020600020905b815481529060010190602001808311612be057829003601f168201915b505050505090806003018054600181600116156101000203166002900480601f016020809104026020016040519081016040528092919081815260200182805460018160011615610100020316600290048015612c9b5780601f10612c7057610100808354040283529160200191612c9b565b820191906000526020600020905b815481529060010190602001808311612c7e57829003601f168201915b505050505090806004015490806005015490806006018054600181600116156101000203166002900480601f016020809104026020016040519081016040528092919081815260200182805460018160011615610100020316600290048015612d455780601f10612d1a57610100808354040283529160200191612d45565b820191906000526020600020905b815481529060010190602001808311612d2857829003601f168201915b505050505090806007018054600181600116156101000203166002900480601f016020809104026020016040519081016040528092919081815260200182805460018160011615610100020316600290048015612de35780601f10612db857610100808354040283529160200191612de3565b820191906000526020600020905b815481529060010190602001808311612dc657829003601f168201915b5050505050908060080160009054906101000a900473ffffffffffffffffffffffffffffffffffffffff16908060090160009054906101000a900473ffffffffffffffffffffffffffffffffffffffff1690508a565b600033905090565b60076020528160005260406000208181548110612e5a57fe5b906000526020600020016000915091509054906101000a900473ffffffffffffffffffffffffffffffffffffffff1681565b600a8181548110612e9957fe5b906000526020600020016000915090505481565b600f5481565b6003602052816000526040600020602052806000526040600020600091509150505481565b60056020528160005260406000208181548110612ef157fe5b90600052602060002001600091509150505481565b60606000600a8054905090506000600182039050600080905082851315612f305760009050612f36565b84830390505b6000858413612f455783612f47565b855b9050606081604051908082528060200260200182016040528015612f7a5781602001602082028038833980820191505090505b509050600080905060008490505b858113612ff1576000600a8281548110612f9e57fe5b906000526020600020015490506000801b8114612fd55780848481518110612fc257fe5b6020026020010181815250506001830192505b89831115612fe35750612ff1565b508080600101915050612f88565b50819650505050505050919050565b613008614bc3565b60086000838152602001908152602001600020604051806101400160405290816000820154815260200160018201548152602001600282018054600181600116156101000203166002900480601f0160208091040260200160405190810160405280929190818152602001828054600181600116156101000203166002900480156130d45780601f106130a9576101008083540402835291602001916130d4565b820191906000526020600020905b8154815290600101906020018083116130b757829003601f168201915b50505050508152602001600382018054600181600116156101000203166002900480601f0160208091040260200160405190810160405280929190818152602001828054600181600116156101000203166002900480156131765780601f1061314b57610100808354040283529160200191613176565b820191906000526020600020905b81548152906001019060200180831161315957829003601f168201915b505050505081526020016004820154815260200160058201548152602001600682018054600181600116156101000203166002900480601f01602080910402602001604051908101604052809291908181526020018280546001816001161561010002031660029004801561322c5780601f106132015761010080835404028352916020019161322c565b820191906000526020600020905b81548152906001019060200180831161320f57829003601f168201915b50505050508152602001600782018054600181600116156101000203166002900480601f0160208091040260200160405190810160405280929190818152602001828054600181600116156101000203166002900480156132ce5780601f106132a3576101008083540402835291602001916132ce565b820191906000526020600020905b8154815290600101906020018083116132b157829003601f168201915b505050505081526020016008820160009054906101000a900473ffffffffffffffffffffffffffffffffffffffff1673ffffffffffffffffffffffffffffffffffffffff1673ffffffffffffffffffffffffffffffffffffffff1681526020016009820160009054906101000a900473ffffffffffffffffffffffffffffffffffffffff1673ffffffffffffffffffffffffffffffffffffffff1673ffffffffffffffffffffffffffffffffffffffff1681525050905061338d614b53565b60066000836020015181526020019081526020016000206040518061014001604052908160008201548152602001600182018054600181600116156101000203166002900480601f0160208091040260200160405190810160405280929190818152602001828054600181600116156101000203166002900480156134535780601f1061342857610100808354040283529160200191613453565b820191906000526020600020905b81548152906001019060200180831161343657829003601f168201915b50505050508152602001600282018054600181600116156101000203166002900480601f0160208091040260200160405190810160405280929190818152602001828054600181600116156101000203166002900480156134f55780601f106134ca576101008083540402835291602001916134f5565b820191906000526020600020905b8154815290600101906020018083116134d857829003601f168201915b50505050508152602001600382018054600181600116156101000203166002900480601f0160208091040260200160405190810160405280929190818152602001828054600181600116156101000203166002900480156135975780601f1061356c57610100808354040283529160200191613597565b820191906000526020600020905b81548152906001019060200180831161357a57829003601f168201915b50505050508152602001600482018054600181600116156101000203166002900480601f0160208091040260200160405190810160405280929190818152602001828054600181600116156101000203166002900480156136395780601f1061360e57610100808354040283529160200191613639565b820191906000526020600020905b81548152906001019060200180831161361c57829003601f168201915b505050505081526020016005820160009054906101000a900473ffffffffffffffffffffffffffffffffffffffff1673ffffffffffffffffffffffffffffffffffffffff1673ffffffffffffffffffffffffffffffffffffffff168152602001600682015481526020016007820160009054906101000a900460ff16151515158152602001600882018054600181600116156101000203166002900480601f0160208091040260200160405190810160405280929190818152602001828054600181600116156101000203166002900480156137565780601f1061372b57610100808354040283529160200191613756565b820191906000526020600020905b81548152906001019060200180831161373957829003601f168201915b505050505081526020016009820160009054906101000a900460ff16151515158152505090503373ffffffffffffffffffffffffffffffffffffffff168160a0015173ffffffffffffffffffffffffffffffffffffffff1614613804576040517f08c379a000000000000000000000000000000000000000000000000000000000815260040180806020018281038252602f815260200180614d6e602f913960400191505060405180910390fd5b6040518060400160405280600981526020017f636f6d706c657465640000000000000000000000000000000000000000000000815250600860008581526020019081526020016000206006019080519060200190613863929190614cc8565b506000826101000151905080600660008560200151815260200190815260200160002060050160006101000a81548173ffffffffffffffffffffffffffffffffffffffff021916908373ffffffffffffffffffffffffffffffffffffffff16021790555060076000836000015181526020019081526020016000203390806001815401808255809150509060018203906000526020600020016000909192909190916101000a81548173ffffffffffffffffffffffffffffffffffffffff021916908373ffffffffffffffffffffffffffffffffffffffff1602179055505060008060003373ffffffffffffffffffffffffffffffffffffffff1673ffffffffffffffffffffffffffffffffffffffff1681526020019081526020016000206000846000015181526020019081526020016000205490506000600660008560000151815260200190815260200160002060070160006101000a81548160ff0219169083151502179055506000600660008560000151815260200190815260200160002060090160006101000a81548160ff021916908315150217905550806000808473ffffffffffffffffffffffffffffffffffffffff1673ffffffffffffffffffffffffffffffffffffffff1681526020019081526020016000206000838152602001908152602001600020819055505050505050565b60096020528060005260406000206000915054906101000a900460ff1681565b600c6020528060005260406000206000915090505481565b60006060806000806060600060606000613aab614bc3565b600860008c8152602001908152602001600020604051806101400160405290816000820154815260200160018201548152602001600282018054600181600116156101000203166002900480601f016020809104026020016040519081016040528092919081815260200182805460018160011615610100020316600290048015613b775780601f10613b4c57610100808354040283529160200191613b77565b820191906000526020600020905b815481529060010190602001808311613b5a57829003601f168201915b50505050508152602001600382018054600181600116156101000203166002900480601f016020809104026020016040519081016040528092919081815260200182805460018160011615610100020316600290048015613c195780601f10613bee57610100808354040283529160200191613c19565b820191906000526020600020905b815481529060010190602001808311613bfc57829003601f168201915b505050505081526020016004820154815260200160058201548152602001600682018054600181600116156101000203166002900480601f016020809104026020016040519081016040528092919081815260200182805460018160011615610100020316600290048015613ccf5780601f10613ca457610100808354040283529160200191613ccf565b820191906000526020600020905b815481529060010190602001808311613cb257829003601f168201915b50505050508152602001600782018054600181600116156101000203166002900480601f016020809104026020016040519081016040528092919081815260200182805460018160011615610100020316600290048015613d715780601f10613d4657610100808354040283529160200191613d71565b820191906000526020600020905b815481529060010190602001808311613d5457829003601f168201915b505050505081526020016008820160009054906101000a900473ffffffffffffffffffffffffffffffffffffffff1673ffffffffffffffffffffffffffffffffffffffff1673ffffffffffffffffffffffffffffffffffffffff1681526020016009820160009054906101000a900473ffffffffffffffffffffffffffffffffffffffff1673ffffffffffffffffffffffffffffffffffffffff1673ffffffffffffffffffffffffffffffffffffffff16815250509050806000015199508060400151985080606001519750806080015196508060a0015195508060c00151945080610100015193508060e0015192508061012001519150509193959799909294969850565b600b8181548110613e8457fe5b906000526020600020016000915090505481565b6060600b805480602002602001604051908101604052809291908181526020018280548015613ee657602002820191906000526020600020905b815481526020019060010190808311613ed2575b5050505050905090565b60006060806060806000806000806060613f08614b53565b600660008d81526020019081526020016000206040518061014001604052908160008201548152602001600182018054600181600116156101000203166002900480601f016020809104026020016040519081016040528092919081815260200182805460018160011615610100020316600290048015613fca5780601f10613f9f57610100808354040283529160200191613fca565b820191906000526020600020905b815481529060010190602001808311613fad57829003601f168201915b50505050508152602001600282018054600181600116156101000203166002900480601f01602080910402602001604051908101604052809291908181526020018280546001816001161561010002031660029004801561406c5780601f106140415761010080835404028352916020019161406c565b820191906000526020600020905b81548152906001019060200180831161404f57829003601f168201915b50505050508152602001600382018054600181600116156101000203166002900480601f01602080910402602001604051908101604052809291908181526020018280546001816001161561010002031660029004801561410e5780601f106140e35761010080835404028352916020019161410e565b820191906000526020600020905b8154815290600101906020018083116140f157829003601f168201915b50505050508152602001600482018054600181600116156101000203166002900480601f0160208091040260200160405190810160405280929190818152602001828054600181600116156101000203166002900480156141b05780601f10614185576101008083540402835291602001916141b0565b820191906000526020600020905b81548152906001019060200180831161419357829003601f168201915b505050505081526020016005820160009054906101000a900473ffffffffffffffffffffffffffffffffffffffff1673ffffffffffffffffffffffffffffffffffffffff1673ffffffffffffffffffffffffffffffffffffffff168152602001600682015481526020016007820160009054906101000a900460ff16151515158152602001600882018054600181600116156101000203166002900480601f0160208091040260200160405190810160405280929190818152602001828054600181600116156101000203166002900480156142cd5780601f106142a2576101008083540402835291602001916142cd565b820191906000526020600020905b8154815290600101906020018083116142b057829003601f168201915b505050505081526020016009820160009054906101000a900460ff161515151581525050905080600001519a50806020015199508060400151985080606001519750806080015196508060a0015195508060c0015194508060e00151935080610120015192508061010001519150509193959799509193959799565b600d5481565b6002602052816000526040600020602052806000526040600020600091509150505481565b600115156009600083815260200190815260200160002060009054906101000a900460ff1615151461440e576040517f08c379a00000000000000000000000000000000000000000000000000000000081526004018080602001828103825260128152602001807f426f6f6b20646f65736e2774206578697374000000000000000000000000000081525060200191505060405180910390fd5b60016006600083815260200190815260200160002060070160006101000a81548160ff02191690831515021790555080600c60008381526020019081526020016000208190555050565b60008751116144cf576040517f08c379a00000000000000000000000000000000000000000000000000000000081526004018080602001828103825260168152602001807f426f6f6b204e616d65206973206e65636573736172790000000000000000000081525060200191505060405180910390fd5b6000865111614546576040517f08c379a00000000000000000000000000000000000000000000000000000000081526004018080602001828103825260118152602001807f4953424e206973206e656365737361727900000000000000000000000000000081525060200191505060405180910390fd5b60008551116145bd576040517f08c379a00000000000000000000000000000000000000000000000000000000081526004018080602001828103825260188152602001807f417574686f72204e616d65206973206e6563657373617279000000000000000081525060200191505060405180910390fd5b60008311614633576040517f08c379a00000000000000000000000000000000000000000000000000000000081526004018080602001828103825260128152602001807f5072696365206973206e6563657373617279000000000000000000000000000081525060200191505060405180910390fd5b8161463d57600091505b600033905060006002898989856040516020018085805190602001908083835b60208310614680578051825260208201915060208101905060208303925061465d565b6001836020036101000a03801982511681845116808217855250505050505090500184805190602001908083835b602083106146d157805182526020820191506020810190506020830392506146ae565b6001836020036101000a03801982511681845116808217855250505050505090500183805190602001908083835b6020831061472257805182526020820191506020810190506020830392506146ff565b6001836020036101000a0380198251168184511680821785525050505050509050018273ffffffffffffffffffffffffffffffffffffffff1673ffffffffffffffffffffffffffffffffffffffff1660601b81526014019450505050506040516020818303038152906040526040518082805190602001908083835b602083106147c1578051825260208201915060208101905060208303925061479e565b6001836020036101000a038019825116818451168082178552505050505050905001915050602060405180830381855afa158015614803573d6000803e3d6000fd5b5050506040513d602081101561481857600080fd5b81019080805190602001909291905050509050600015156009600083815260200190815260200160002060009054906101000a900460ff161515146148c5576040517f08c379a00000000000000000000000000000000000000000000000000000000081526004018080602001828103825260138152602001807f426f6f6b20616c7265616479206578697374730000000000000000000000000081525060200191505060405180910390fd5b6148cd614b53565b6040518061014001604052808381526020018b81526020018a81526020018981526020018881526020018473ffffffffffffffffffffffffffffffffffffffff1681526020018781526020018615158152602001858152602001600015158152509050600a829080600181540180825580915050906001820390600052602060002001600090919290919091505550816000803373ffffffffffffffffffffffffffffffffffffffff1673ffffffffffffffffffffffffffffffffffffffff16815260200190815260200160002060008481526020019081526020016000208190555080600660008481526020019081526020016000206000820151816000015560208201518160010190805190602001906149ea929190614c48565b506040820151816002019080519060200190614a07929190614c48565b506060820151816003019080519060200190614a24929190614c48565b506080820151816004019080519060200190614a41929190614c48565b5060a08201518160050160006101000a81548173ffffffffffffffffffffffffffffffffffffffff021916908373ffffffffffffffffffffffffffffffffffffffff16021790555060c0820151816006015560e08201518160070160006101000a81548160ff021916908315150217905550610100820151816008019080519060200190614ad0929190614c48565b506101208201518160090160006101000a81548160ff02191690831515021790555090505060016009600084815260200190815260200160002060006101000a81548160ff02191690831515021790555050505050505050505050565b600e60009054906101000a900473ffffffffffffffffffffffffffffffffffffffff1681565b6040518061014001604052806000801916815260200160608152602001606081526020016060815260200160608152602001600073ffffffffffffffffffffffffffffffffffffffff16815260200160008152602001600015158152602001606081526020016000151581525090565b6040518061014001604052806000801916815260200160008019168152602001606081526020016060815260200160008152602001600081526020016060815260200160608152602001600073ffffffffffffffffffffffffffffffffffffffff168152602001600073ffffffffffffffffffffffffffffffffffffffff1681525090565b828054600181600116156101000203166002900490600052602060002090601f016020900481019282601f10614c8957805160ff1916838001178555614cb7565b82800160010185558215614cb7579182015b82811115614cb6578251825591602001919060010190614c9b565b5b509050614cc49190614d48565b5090565b828054600181600116156101000203166002900490600052602060002090601f016020900481019282601f10614d0957805160ff1916838001178555614d37565b82800160010185558215614d37579182015b82811115614d36578251825591602001919060010190614d1b565b5b509050614d449190614d48565b5090565b614d6a91905b80821115614d66576000816000905550600101614d4e565b5090565b9056fe4f6e6c79207468652073656c6c65722063616e206d61726b20746865206f7264657220617320636f6d706c6574656454686520626f6f6b206d75737420657869737420746f20626520707572636861736564546865207061796d656e74206d75737420626520657175616c20746f2074686520626f6f6b207072696365a265627a7a72315820abd2d316a7292fa1982ba105e0099da64f8d6c2a4402c13b65e2013934236fa864736f6c63430005100032",
  "source": "pragma solidity ^0.5.0;\r\n\r\ncontract BookStore {\r\n    struct Book {\r\n        bytes32 id;\r\n        string title;\r\n        string isbn;\r\n        string author;\r\n        string category;\r\n        address payable owner;\r\n        uint256 price;\r\n        bool forSale;\r\n        string image;\r\n        bool sold;\r\n    }\r\n    struct Order {\r\n        bytes32 id;\r\n        bytes32 bookId;\r\n        string name;\r\n        string deliveryAddress;\r\n        uint256 postalCode;\r\n        uint256 phone;\r\n        string state; // Either 'pending', 'completed'\r\n        string bookName;\r\n        address customer;\r\n        address seller;\r\n    }\r\n\r\n    mapping(address => mapping(bytes32 => bytes32)) public ownerProducts; // Seller address => books ; The books added by the seller\r\n    mapping(address => mapping(bytes32 => bytes32)) public pendingSellerOrders; // Seller address => orders ; The books waiting to be fulfilled by the seller, used by sellers to check which orders have to be fulfilled\r\n    mapping(address => mapping(bytes32 => bytes32)) public pendingBuyerOrders; //Buyer address => orders ;The books that the buyer purchased waiting to be sent\r\n    mapping(address => mapping(bytes32 => bytes32))\r\n        public completedSellerOrders; // Seller address => orders  A history of past orders fulfilled by the seller\r\n    mapping(address => mapping(bytes32 => bytes32)) public completedBuyerOrders; // Buyer address => orders A history of past orders made by this buyer\r\n    mapping(address => bytes32[]) public userOrders;\r\n    mapping(bytes32 => Book) public bookById; // Book id => book\r\n\r\n    mapping(bytes32 => address[]) public previousOwners; // Book id => previousOwners\r\n    mapping(bytes32 => Order) public orderById; // book id => order\r\n    mapping(bytes32 => bool) public bookExists; // Book id => true or false\r\n    bytes32[] public books;\r\n    bytes32[] public orders;\r\n    mapping(bytes32 => bytes32) public booksForSale;\r\n    uint256 public lastId;\r\n    address public token;\r\n    uint256 public lastPendingSellerOrder;\r\n    uint256 public lastPendingBuyerOrder;\r\n\r\n    function addBook(\r\n        string memory _title,\r\n        string memory _isbn,\r\n        string memory _author,\r\n        string memory _category,\r\n        uint256 _price,\r\n        bool _forSale,\r\n        string memory _image\r\n    ) public {\r\n        require(bytes(_title).length > 0, \"Book Name is necessary\");\r\n        require(bytes(_isbn).length > 0, \"ISBN is necessary\");\r\n        require(bytes(_author).length > 0, \"Author Name is necessary\");\r\n        require(_price > 0, \"Price is necessary\");\r\n        if (!(_forSale)) _forSale = false;\r\n        address payable owner = msg.sender;\r\n        bytes32 id = sha256(abi.encodePacked(_title, _isbn, _author, owner));\r\n        require(bookExists[id] == false, \"Book already exists\");\r\n        Book memory b =\r\n            Book(\r\n                id,\r\n                _title,\r\n                _isbn,\r\n                _author,\r\n                _category,\r\n                owner,\r\n                _price,\r\n                _forSale,\r\n                _image,\r\n                false\r\n            );\r\n        books.push(id);\r\n        ownerProducts[msg.sender][id] = id;\r\n        bookById[id] = b;\r\n        bookExists[id] = true;\r\n    }\r\n\r\n    function sellBook(bytes32 _id) public {\r\n        require(bookExists[_id] == true, \"Book doesn't exist\");\r\n        bookById[_id].forSale = true;\r\n        booksForSale[_id] = _id;\r\n    }\r\n    function unSellBook(bytes32 _id) public {\r\n        require(bookExists[_id] == true, \"Book doesn't exist\");\r\n        bookById[_id].forSale = false;\r\n        booksForSale[_id] = _id;\r\n    }\r\n\r\n    function buyBook(\r\n        bytes32 _id,\r\n        string memory _name,\r\n        string memory _deliveryAddress,\r\n        uint256 _postalCode,\r\n        uint256 _phone\r\n    ) public payable {\r\n        require(bookExists[_id], \"The book must exist to be purchased\");\r\n        require(bytes(_name).length > 0, \"The name must be set\");\r\n        require(\r\n            bytes(_deliveryAddress).length > 0,\r\n            \"The Delivery Address must be set\"\r\n        );\r\n        require(_postalCode > 0, \"The postal code must be set\");\r\n        require(_phone > 0, \"The Phone Number must be set\");\r\n        address payable customer = msg.sender;\r\n        bytes32 id =\r\n            sha256(abi.encodePacked(_name, _id, _deliveryAddress, customer)); // using name, book id , delivery address and customer address to make order id\r\n        Book memory b = bookById[_id]; //Need to retrieve the book by it's id.\r\n        string memory bookName=b.title;\r\n        Order memory newOrder =\r\n            Order(\r\n                id,\r\n                _id,\r\n                _name,\r\n                _deliveryAddress,\r\n                _postalCode,\r\n                _phone,\r\n                \"pending\",\r\n                bookName,\r\n                msg.sender,\r\n                b.owner\r\n            );\r\n        require(\r\n            msg.value == b.price,\r\n            \"The payment must be equal to the book price\"\r\n        );\r\n\r\n        pendingSellerOrders[b.owner][id] = id;\r\n        pendingBuyerOrders[customer][id] = id;\r\n        userOrders[b.owner].push(id);\r\n        userOrders[customer].push(id);\r\n        orders.push(id);\r\n        orderById[id] = newOrder;\r\n        delete (booksForSale[id]);\r\n        bookById[_id].forSale = false;\r\n        bookById[_id].sold = true;\r\n        b.owner.transfer(b.price);\r\n    }\r\n\r\n    function markOrderCompleted(bytes32 _id) public {\r\n        Order memory order = orderById[_id];\r\n        Book memory book = bookById[order.bookId];\r\n        require(\r\n            book.owner == msg.sender,\r\n            \"Only the seller can mark the order as completed\"\r\n        );\r\n        orderById[_id].state = \"completed\";\r\n        address customer = order.customer;\r\n        bookById[order.bookId].owner = address(uint160(customer));\r\n        previousOwners[book.id].push(msg.sender);\r\n        bytes32 bookId = ownerProducts[msg.sender][book.id];\r\n        bookById[book.id].forSale=false;\r\n        bookById[book.id].sold=false;\r\n        ownerProducts[customer][bookId] = bookId;\r\n    }\r\n\r\n\r\n    function getBooksIds(int256 _limit) public view returns (bytes32[] memory) {\r\n        int256 length = int256(books.length);\r\n        int256 start = length - 1;\r\n        int256 end = 0;\r\n        if (_limit > length) {\r\n            end = 0;\r\n        } else {\r\n            end = length - _limit;\r\n        }\r\n        uint256 size = (length) > _limit ? uint256(_limit) : uint256(length);\r\n        bytes32[] memory ids = new bytes32[](size);\r\n        uint256 inc = 0;\r\n        for (int256 i = end; i <= start; i++) {\r\n            bytes32 bookId = books[uint256(i)];\r\n            if (\r\n                bookId !=\r\n                0x0000000000000000000000000000000000000000000000000000000000000000\r\n            ) {\r\n                ids[inc] = bookId;\r\n                inc += 1;\r\n            }\r\n            if (inc > uint256(_limit)) {\r\n                break;\r\n            }\r\n        }\r\n        return ids;\r\n    }\r\n\r\n    function getBook(bytes32 _id)\r\n        public\r\n        view\r\n        returns (\r\n            bytes32 id,\r\n            string memory title,\r\n            string memory isbn,\r\n            string memory author,\r\n            string memory category,\r\n            address payable owner,\r\n            uint256 price,\r\n            bool forSale,\r\n            bool sold,\r\n            string memory image\r\n        )\r\n    {\r\n        Book memory b = bookById[_id];\r\n        id = b.id;\r\n        title = b.title;\r\n        isbn = b.isbn;\r\n        author = b.author;\r\n        category = b.category;\r\n        owner = b.owner;\r\n        price = b.price;\r\n        forSale = b.forSale;\r\n        sold=b.sold;\r\n        image = b.image;\r\n    }\r\n\r\n    \r\n\r\n    function getBooksForSale(uint256 _limit)\r\n        public\r\n        view\r\n        returns (bytes32[] memory)\r\n    {\r\n        uint256 length;\r\n        length = uint256(books.length);\r\n        bytes32[] memory ids = new bytes32[](_limit);\r\n        uint256 inc = 0;\r\n        for (uint256 i = 0; i < length; i++) {\r\n            if(booksForSale[books[i]] == 0x0000000000000000000000000000000000000000000000000000000000000000) break;\r\n            bytes32 id = booksForSale[books[i]];\r\n            if (id != 0 ) {\r\n                ids[inc] = id;\r\n                inc ++;\r\n                if (inc > _limit) {\r\n                    break;\r\n                }\r\n            }\r\n        }\r\n        return ids;\r\n    }\r\n    function getSentAddress() public view returns (address){\r\n        return msg.sender;\r\n    }\r\n\r\n    function getOrdersLists()\r\n        public\r\n        view\r\n        returns (bytes32[] memory)\r\n    {\r\n        return orders;\r\n    }\r\n\r\n    function getOrderById(bytes32 id)\r\n        public\r\n        view\r\n        returns (\r\n            bytes32 orderId,\r\n            string memory name,\r\n            string memory deliveryAddress,\r\n            uint256 postalCode,\r\n            uint256 phone,\r\n            string memory state,\r\n            address customer,\r\n            string memory bookName,\r\n            address seller\r\n        )\r\n    {\r\n        Order memory o;\r\n        o = orderById[id];\r\n        orderId = o.id;\r\n        name = o.name;\r\n        deliveryAddress = o.deliveryAddress;\r\n        postalCode = o.postalCode;\r\n        phone = o.phone;\r\n        state = o.state;\r\n        customer = o.customer;\r\n        bookName=o.bookName;\r\n        seller=o.seller;\r\n    }\r\n}\r\n",
  "sourcePath": "C:/Users/samee/OneDrive/Desktop/Blockchain-Buyer-Seller-Market-BC_Team_6/contracts/BookStore.sol",
  "compiler": {
    "name": "solc",
    "version": "0.5.16+commit.9c3226ce.Emscripten.clang"
  },
  "schemaVersion": "3.3.4",
  "updatedAt": "2021-04-05T03:39:24.291Z",
  "devdoc": {
    "methods": {}
  },
  "userdoc": {
    "methods": {}
  }
}