{
  "contractName": "BookStore",
  "abi": [
    {
      "inputs": [
        {
          "internalType": "address",
          "name": "_token",
          "type": "address"
        }
      ],
      "payable": false,
      "stateMutability": "nonpayable",
      "type": "constructor"
    },
    {
      "constant": true,
      "inputs": [
        {
          "internalType": "uint256",
          "name": "",
          "type": "uint256"
        }
      ],
      "name": "bookById",
      "outputs": [
        {
          "internalType": "uint256",
          "name": "id",
          "type": "uint256"
        },
        {
          "internalType": "string",
          "name": "title",
          "type": "string"
        },
        {
          "internalType": "string",
          "name": "isbn",
          "type": "string"
        },
        {
          "internalType": "string",
          "name": "author",
          "type": "string"
        },
        {
          "internalType": "string",
          "name": "category",
          "type": "string"
        },
        {
          "internalType": "address payable",
          "name": "owner",
          "type": "address"
        },
        {
          "internalType": "uint256",
          "name": "price",
          "type": "uint256"
        },
        {
          "internalType": "bool",
          "name": "forSale",
          "type": "bool"
        },
        {
          "internalType": "string",
          "name": "image",
          "type": "string"
        }
      ],
      "payable": false,
      "stateMutability": "view",
      "type": "function"
    },
    {
      "constant": true,
      "inputs": [
        {
          "internalType": "uint256",
          "name": "",
          "type": "uint256"
        }
      ],
      "name": "bookExists",
      "outputs": [
        {
          "internalType": "bool",
          "name": "",
          "type": "bool"
        }
      ],
      "payable": false,
      "stateMutability": "view",
      "type": "function"
    },
    {
      "constant": true,
      "inputs": [
        {
          "internalType": "uint256",
          "name": "",
          "type": "uint256"
        }
      ],
      "name": "books",
      "outputs": [
        {
          "internalType": "uint256",
          "name": "id",
          "type": "uint256"
        },
        {
          "internalType": "string",
          "name": "title",
          "type": "string"
        },
        {
          "internalType": "string",
          "name": "isbn",
          "type": "string"
        },
        {
          "internalType": "string",
          "name": "author",
          "type": "string"
        },
        {
          "internalType": "string",
          "name": "category",
          "type": "string"
        },
        {
          "internalType": "address payable",
          "name": "owner",
          "type": "address"
        },
        {
          "internalType": "uint256",
          "name": "price",
          "type": "uint256"
        },
        {
          "internalType": "bool",
          "name": "forSale",
          "type": "bool"
        },
        {
          "internalType": "string",
          "name": "image",
          "type": "string"
        }
      ],
      "payable": false,
      "stateMutability": "view",
      "type": "function"
    },
    {
      "constant": true,
      "inputs": [
        {
          "internalType": "address",
          "name": "",
          "type": "address"
        },
        {
          "internalType": "uint256",
          "name": "",
          "type": "uint256"
        }
      ],
      "name": "completedBuyerOrders",
      "outputs": [
        {
          "internalType": "uint256",
          "name": "id",
          "type": "uint256"
        },
        {
          "internalType": "string",
          "name": "name",
          "type": "string"
        },
        {
          "internalType": "string",
          "name": "deliveryAddress",
          "type": "string"
        },
        {
          "internalType": "uint256",
          "name": "postalCode",
          "type": "uint256"
        },
        {
          "internalType": "uint256",
          "name": "phone",
          "type": "uint256"
        },
        {
          "internalType": "string",
          "name": "state",
          "type": "string"
        },
        {
          "internalType": "address",
          "name": "customer",
          "type": "address"
        }
      ],
      "payable": false,
      "stateMutability": "view",
      "type": "function"
    },
    {
      "constant": true,
      "inputs": [
        {
          "internalType": "address",
          "name": "",
          "type": "address"
        },
        {
          "internalType": "uint256",
          "name": "",
          "type": "uint256"
        }
      ],
      "name": "completedSellerOrders",
      "outputs": [
        {
          "internalType": "uint256",
          "name": "id",
          "type": "uint256"
        },
        {
          "internalType": "string",
          "name": "name",
          "type": "string"
        },
        {
          "internalType": "string",
          "name": "deliveryAddress",
          "type": "string"
        },
        {
          "internalType": "uint256",
          "name": "postalCode",
          "type": "uint256"
        },
        {
          "internalType": "uint256",
          "name": "phone",
          "type": "uint256"
        },
        {
          "internalType": "string",
          "name": "state",
          "type": "string"
        },
        {
          "internalType": "address",
          "name": "customer",
          "type": "address"
        }
      ],
      "payable": false,
      "stateMutability": "view",
      "type": "function"
    },
    {
      "constant": true,
      "inputs": [],
      "name": "lastId",
      "outputs": [
        {
          "internalType": "uint256",
          "name": "",
          "type": "uint256"
        }
      ],
      "payable": false,
      "stateMutability": "view",
      "type": "function"
    },
    {
      "constant": true,
      "inputs": [],
      "name": "lastPendingBuyerOrder",
      "outputs": [
        {
          "internalType": "uint256",
          "name": "",
          "type": "uint256"
        }
      ],
      "payable": false,
      "stateMutability": "view",
      "type": "function"
    },
    {
      "constant": true,
      "inputs": [],
      "name": "lastPendingSellerOrder",
      "outputs": [
        {
          "internalType": "uint256",
          "name": "",
          "type": "uint256"
        }
      ],
      "payable": false,
      "stateMutability": "view",
      "type": "function"
    },
    {
      "constant": true,
      "inputs": [
        {
          "internalType": "uint256",
          "name": "",
          "type": "uint256"
        }
      ],
      "name": "orderById",
      "outputs": [
        {
          "internalType": "uint256",
          "name": "id",
          "type": "uint256"
        },
        {
          "internalType": "string",
          "name": "name",
          "type": "string"
        },
        {
          "internalType": "string",
          "name": "deliveryAddress",
          "type": "string"
        },
        {
          "internalType": "uint256",
          "name": "postalCode",
          "type": "uint256"
        },
        {
          "internalType": "uint256",
          "name": "phone",
          "type": "uint256"
        },
        {
          "internalType": "string",
          "name": "state",
          "type": "string"
        },
        {
          "internalType": "address",
          "name": "customer",
          "type": "address"
        }
      ],
      "payable": false,
      "stateMutability": "view",
      "type": "function"
    },
    {
      "constant": true,
      "inputs": [
        {
          "internalType": "uint256",
          "name": "",
          "type": "uint256"
        }
      ],
      "name": "orders",
      "outputs": [
        {
          "internalType": "uint256",
          "name": "id",
          "type": "uint256"
        },
        {
          "internalType": "string",
          "name": "name",
          "type": "string"
        },
        {
          "internalType": "string",
          "name": "deliveryAddress",
          "type": "string"
        },
        {
          "internalType": "uint256",
          "name": "postalCode",
          "type": "uint256"
        },
        {
          "internalType": "uint256",
          "name": "phone",
          "type": "uint256"
        },
        {
          "internalType": "string",
          "name": "state",
          "type": "string"
        },
        {
          "internalType": "address",
          "name": "customer",
          "type": "address"
        }
      ],
      "payable": false,
      "stateMutability": "view",
      "type": "function"
    },
    {
      "constant": true,
      "inputs": [
        {
          "internalType": "address",
          "name": "",
          "type": "address"
        },
        {
          "internalType": "uint256",
          "name": "",
          "type": "uint256"
        }
      ],
      "name": "pendingBuyerOrders",
      "outputs": [
        {
          "internalType": "uint256",
          "name": "id",
          "type": "uint256"
        },
        {
          "internalType": "string",
          "name": "name",
          "type": "string"
        },
        {
          "internalType": "string",
          "name": "deliveryAddress",
          "type": "string"
        },
        {
          "internalType": "uint256",
          "name": "postalCode",
          "type": "uint256"
        },
        {
          "internalType": "uint256",
          "name": "phone",
          "type": "uint256"
        },
        {
          "internalType": "string",
          "name": "state",
          "type": "string"
        },
        {
          "internalType": "address",
          "name": "customer",
          "type": "address"
        }
      ],
      "payable": false,
      "stateMutability": "view",
      "type": "function"
    },
    {
      "constant": true,
      "inputs": [
        {
          "internalType": "address",
          "name": "",
          "type": "address"
        },
        {
          "internalType": "uint256",
          "name": "",
          "type": "uint256"
        }
      ],
      "name": "pendingSellerOrders",
      "outputs": [
        {
          "internalType": "uint256",
          "name": "id",
          "type": "uint256"
        },
        {
          "internalType": "string",
          "name": "name",
          "type": "string"
        },
        {
          "internalType": "string",
          "name": "deliveryAddress",
          "type": "string"
        },
        {
          "internalType": "uint256",
          "name": "postalCode",
          "type": "uint256"
        },
        {
          "internalType": "uint256",
          "name": "phone",
          "type": "uint256"
        },
        {
          "internalType": "string",
          "name": "state",
          "type": "string"
        },
        {
          "internalType": "address",
          "name": "customer",
          "type": "address"
        }
      ],
      "payable": false,
      "stateMutability": "view",
      "type": "function"
    },
    {
      "constant": true,
      "inputs": [
        {
          "internalType": "uint256",
          "name": "",
          "type": "uint256"
        },
        {
          "internalType": "uint256",
          "name": "",
          "type": "uint256"
        }
      ],
      "name": "previousOwners",
      "outputs": [
        {
          "internalType": "address",
          "name": "",
          "type": "address"
        }
      ],
      "payable": false,
      "stateMutability": "view",
      "type": "function"
    },
    {
      "constant": true,
      "inputs": [
        {
          "internalType": "address",
          "name": "",
          "type": "address"
        },
        {
          "internalType": "uint256",
          "name": "",
          "type": "uint256"
        }
      ],
      "name": "sellerProducts",
      "outputs": [
        {
          "internalType": "uint256",
          "name": "id",
          "type": "uint256"
        },
        {
          "internalType": "string",
          "name": "title",
          "type": "string"
        },
        {
          "internalType": "string",
          "name": "isbn",
          "type": "string"
        },
        {
          "internalType": "string",
          "name": "author",
          "type": "string"
        },
        {
          "internalType": "string",
          "name": "category",
          "type": "string"
        },
        {
          "internalType": "address payable",
          "name": "owner",
          "type": "address"
        },
        {
          "internalType": "uint256",
          "name": "price",
          "type": "uint256"
        },
        {
          "internalType": "bool",
          "name": "forSale",
          "type": "bool"
        },
        {
          "internalType": "string",
          "name": "image",
          "type": "string"
        }
      ],
      "payable": false,
      "stateMutability": "view",
      "type": "function"
    },
    {
      "constant": true,
      "inputs": [],
      "name": "token",
      "outputs": [
        {
          "internalType": "address",
          "name": "",
          "type": "address"
        }
      ],
      "payable": false,
      "stateMutability": "view",
      "type": "function"
    },
    {
      "constant": false,
      "inputs": [
        {
          "internalType": "string",
          "name": "_title",
          "type": "string"
        },
        {
          "internalType": "string",
          "name": "_isbn",
          "type": "string"
        },
        {
          "internalType": "string",
          "name": "_author",
          "type": "string"
        },
        {
          "internalType": "string",
          "name": "_category",
          "type": "string"
        },
        {
          "internalType": "uint256",
          "name": "_price",
          "type": "uint256"
        },
        {
          "internalType": "bool",
          "name": "_forSale",
          "type": "bool"
        },
        {
          "internalType": "string",
          "name": "_image",
          "type": "string"
        }
      ],
      "name": "addBook",
      "outputs": [],
      "payable": false,
      "stateMutability": "nonpayable",
      "type": "function"
    },
    {
      "constant": false,
      "inputs": [
        {
          "internalType": "uint256",
          "name": "_id",
          "type": "uint256"
        }
      ],
      "name": "sellBook",
      "outputs": [],
      "payable": false,
      "stateMutability": "nonpayable",
      "type": "function"
    },
    {
      "constant": false,
      "inputs": [
        {
          "internalType": "uint256",
          "name": "_id",
          "type": "uint256"
        },
        {
          "internalType": "string",
          "name": "_name",
          "type": "string"
        },
        {
          "internalType": "string",
          "name": "_deliveryAddress",
          "type": "string"
        },
        {
          "internalType": "uint256",
          "name": "_postalCode",
          "type": "uint256"
        },
        {
          "internalType": "uint256",
          "name": "_phone",
          "type": "uint256"
        }
      ],
      "name": "buyBook",
      "outputs": [],
      "payable": true,
      "stateMutability": "payable",
      "type": "function"
    },
    {
      "constant": false,
      "inputs": [
        {
          "internalType": "uint256",
          "name": "_id",
          "type": "uint256"
        }
      ],
      "name": "markOrderCompleted",
      "outputs": [],
      "payable": false,
      "stateMutability": "nonpayable",
      "type": "function"
    },
    {
      "constant": true,
      "inputs": [
        {
          "internalType": "uint256",
          "name": "_id",
          "type": "uint256"
        }
      ],
      "name": "getBook",
      "outputs": [
        {
          "internalType": "uint256",
          "name": "id",
          "type": "uint256"
        },
        {
          "internalType": "string",
          "name": "title",
          "type": "string"
        },
        {
          "internalType": "string",
          "name": "isbn",
          "type": "string"
        },
        {
          "internalType": "string",
          "name": "author",
          "type": "string"
        },
        {
          "internalType": "string",
          "name": "category",
          "type": "string"
        },
        {
          "internalType": "address payable",
          "name": "owner",
          "type": "address"
        },
        {
          "internalType": "uint256",
          "name": "price",
          "type": "uint256"
        },
        {
          "internalType": "bool",
          "name": "forSale",
          "type": "bool"
        },
        {
          "internalType": "string",
          "name": "image",
          "type": "string"
        }
      ],
      "payable": false,
      "stateMutability": "view",
      "type": "function"
    },
    {
      "constant": true,
      "inputs": [
        {
          "internalType": "string",
          "name": "_type",
          "type": "string"
        },
        {
          "internalType": "uint256",
          "name": "_limit",
          "type": "uint256"
        }
      ],
      "name": "getBookIds",
      "outputs": [
        {
          "internalType": "uint256[]",
          "name": "",
          "type": "uint256[]"
        }
      ],
      "payable": false,
      "stateMutability": "view",
      "type": "function"
    },
    {
      "constant": true,
      "inputs": [
        {
          "internalType": "uint256",
          "name": "_limit",
          "type": "uint256"
        }
      ],
      "name": "getBookIds",
      "outputs": [
        {
          "internalType": "uint256[]",
          "name": "",
          "type": "uint256[]"
        }
      ],
      "payable": false,
      "stateMutability": "view",
      "type": "function"
    },
    {
      "constant": true,
      "inputs": [
        {
          "internalType": "string",
          "name": "_type",
          "type": "string"
        },
        {
          "internalType": "uint256",
          "name": "_id",
          "type": "uint256"
        }
      ],
      "name": "getOrder",
      "outputs": [
        {
          "internalType": "uint256",
          "name": "id",
          "type": "uint256"
        },
        {
          "internalType": "string",
          "name": "name",
          "type": "string"
        },
        {
          "internalType": "string",
          "name": "deliveryAddress",
          "type": "string"
        },
        {
          "internalType": "uint256",
          "name": "postalCode",
          "type": "uint256"
        },
        {
          "internalType": "uint256",
          "name": "phone",
          "type": "uint256"
        },
        {
          "internalType": "string",
          "name": "state",
          "type": "string"
        },
        {
          "internalType": "address",
          "name": "customer",
          "type": "address"
        }
      ],
      "payable": false,
      "stateMutability": "view",
      "type": "function"
    },
    {
      "constant": true,
      "inputs": [
        {
          "internalType": "string",
          "name": "a",
          "type": "string"
        },
        {
          "internalType": "string",
          "name": "b",
          "type": "string"
        }
      ],
      "name": "compareStrings",
      "outputs": [
        {
          "internalType": "bool",
          "name": "",
          "type": "bool"
        }
      ],
      "payable": false,
      "stateMutability": "pure",
      "type": "function"
    }
  ],
  "bytecode": "0x60806040523480156200001157600080fd5b506040516200834338038062008343833981810160405260208110156200003757600080fd5b810190808051906020019092919050505080600c60006101000a81548173ffffffffffffffffffffffffffffffffffffffff021916908373ffffffffffffffffffffffffffffffffffffffff160217905550506182a9806200009a6000396000f3fe60806040526004361061014b5760003560e01c8063bed34bba116100b6578063dd3249391161006f578063dd32493914611d30578063ddc95c5514611ea0578063df6711b014611edb578063e0ff5b8b14611f16578063f7a5a493146121c6578063fc0c546a146123ba5761014b565b8063bed34bba14611300578063c1292cc314611477578063c1302b34146114a2578063c3d11f1214611772578063d72b29f614611802578063db831042146119f65761014b565b8063691bd5f511610108578063691bd5f5146109655780637b3d098214610bd0578063852f7c1014610c235780638d77eba514610ed3578063a85c38ef146110a7578063b54fb04a1461127b5761014b565b806302949a0a146101505780632e3943381461017b578063427f0e4d1461036f5780634e77dbdc14610563578063687440461461068a57806368756f731461093a575b600080fd5b34801561015c57600080fd5b50610165612411565b6040518082815260200191505060405180910390f35b34801561018757600080fd5b506101d46004803603604081101561019e57600080fd5b81019080803573ffffffffffffffffffffffffffffffffffffffff16906020019092919080359060200190929190505050612417565b604051808881526020018060200180602001878152602001868152602001806020018573ffffffffffffffffffffffffffffffffffffffff1673ffffffffffffffffffffffffffffffffffffffff16815260200184810384528a818151815260200191508051906020019080838360005b83811015610260578082015181840152602081019050610245565b50505050905090810190601f16801561028d5780820380516001836020036101000a031916815260200191505b50848103835289818151815260200191508051906020019080838360005b838110156102c65780820151818401526020810190506102ab565b50505050905090810190601f1680156102f35780820380516001836020036101000a031916815260200191505b50848103825286818151815260200191508051906020019080838360005b8381101561032c578082015181840152602081019050610311565b50505050905090810190601f1680156103595780820380516001836020036101000a031916815260200191505b509a505050505050505050505060405180910390f35b34801561037b57600080fd5b506103c86004803603604081101561039257600080fd5b81019080803573ffffffffffffffffffffffffffffffffffffffff1690602001909291908035906020019092919050505061265b565b604051808881526020018060200180602001878152602001868152602001806020018573ffffffffffffffffffffffffffffffffffffffff1673ffffffffffffffffffffffffffffffffffffffff16815260200184810384528a818151815260200191508051906020019080838360005b83811015610454578082015181840152602081019050610439565b50505050905090810190601f1680156104815780820380516001836020036101000a031916815260200191505b50848103835289818151815260200191508051906020019080838360005b838110156104ba57808201518184015260208101905061049f565b50505050905090810190601f1680156104e75780820380516001836020036101000a031916815260200191505b50848103825286818151815260200191508051906020019080838360005b83811015610520578082015181840152602081019050610505565b50505050905090810190601f16801561054d5780820380516001836020036101000a031916815260200191505b509a505050505050505050505060405180910390f35b34801561056f57600080fd5b506106336004803603604081101561058657600080fd5b81019080803590602001906401000000008111156105a357600080fd5b8201836020820111156105b557600080fd5b803590602001918460018302840111640100000000831117156105d757600080fd5b91908080601f016020809104026020016040519081016040528093929190818152602001838380828437600081840152601f19601f8201169050808301925050505050505091929192908035906020019092919050505061289f565b6040518080602001828103825283818151815260200191508051906020019060200280838360005b8381101561067657808201518184015260208101905061065b565b505050509050019250505060405180910390f35b34801561069657600080fd5b506106c3600480360360208110156106ad57600080fd5b8101908080359060200190929190505050612ecc565b604051808a8152602001806020018060200180602001806020018973ffffffffffffffffffffffffffffffffffffffff1673ffffffffffffffffffffffffffffffffffffffff168152602001888152602001871515151581526020018060200186810386528e818151815260200191508051906020019080838360005b8381101561075b578082015181840152602081019050610740565b50505050905090810190601f1680156107885780820380516001836020036101000a031916815260200191505b5086810385528d818151815260200191508051906020019080838360005b838110156107c15780820151818401526020810190506107a6565b50505050905090810190601f1680156107ee5780820380516001836020036101000a031916815260200191505b5086810384528c818151815260200191508051906020019080838360005b8381101561082757808201518184015260208101905061080c565b50505050905090810190601f1680156108545780820380516001836020036101000a031916815260200191505b5086810383528b818151815260200191508051906020019080838360005b8381101561088d578082015181840152602081019050610872565b50505050905090810190601f1680156108ba5780820380516001836020036101000a031916815260200191505b50868103825287818151815260200191508051906020019080838360005b838110156108f35780820151818401526020810190506108d8565b50505050905090810190601f1680156109205780820380516001836020036101000a031916815260200191505b509e50505050505050505050505050505060405180910390f35b34801561094657600080fd5b5061094f61324c565b6040518082815260200191505060405180910390f35b34801561097157600080fd5b50610a356004803603604081101561098857600080fd5b81019080803590602001906401000000008111156109a557600080fd5b8201836020820111156109b757600080fd5b803590602001918460018302840111640100000000831117156109d957600080fd5b91908080601f016020809104026020016040519081016040528093929190818152602001838380828437600081840152601f19601f82011690508083019250505050505050919291929080359060200190929190505050613252565b604051808881526020018060200180602001878152602001868152602001806020018573ffffffffffffffffffffffffffffffffffffffff1673ffffffffffffffffffffffffffffffffffffffff16815260200184810384528a818151815260200191508051906020019080838360005b83811015610ac1578082015181840152602081019050610aa6565b50505050905090810190601f168015610aee5780820380516001836020036101000a031916815260200191505b50848103835289818151815260200191508051906020019080838360005b83811015610b27578082015181840152602081019050610b0c565b50505050905090810190601f168015610b545780820380516001836020036101000a031916815260200191505b50848103825286818151815260200191508051906020019080838360005b83811015610b8d578082015181840152602081019050610b72565b50505050905090810190601f168015610bba5780820380516001836020036101000a031916815260200191505b509a505050505050505050505060405180910390f35b348015610bdc57600080fd5b50610c0960048036036020811015610bf357600080fd5b8101908080359060200190929190505050613ec9565b604051808215151515815260200191505060405180910390f35b348015610c2f57600080fd5b50610c5c60048036036020811015610c4657600080fd5b8101908080359060200190929190505050613ee9565b604051808a8152602001806020018060200180602001806020018973ffffffffffffffffffffffffffffffffffffffff1673ffffffffffffffffffffffffffffffffffffffff168152602001888152602001871515151581526020018060200186810386528e818151815260200191508051906020019080838360005b83811015610cf4578082015181840152602081019050610cd9565b50505050905090810190601f168015610d215780820380516001836020036101000a031916815260200191505b5086810385528d818151815260200191508051906020019080838360005b83811015610d5a578082015181840152602081019050610d3f565b50505050905090810190601f168015610d875780820380516001836020036101000a031916815260200191505b5086810384528c818151815260200191508051906020019080838360005b83811015610dc0578082015181840152602081019050610da5565b50505050905090810190601f168015610ded5780820380516001836020036101000a031916815260200191505b5086810383528b818151815260200191508051906020019080838360005b83811015610e26578082015181840152602081019050610e0b565b50505050905090810190601f168015610e535780820380516001836020036101000a031916815260200191505b50868103825287818151815260200191508051906020019080838360005b83811015610e8c578082015181840152602081019050610e71565b50505050905090810190601f168015610eb95780820380516001836020036101000a031916815260200191505b509e50505050505050505050505050505060405180910390f35b348015610edf57600080fd5b50610f0c60048036036020811015610ef657600080fd5b810190808035906020019092919050505061425c565b604051808881526020018060200180602001878152602001868152602001806020018573ffffffffffffffffffffffffffffffffffffffff1673ffffffffffffffffffffffffffffffffffffffff16815260200184810384528a818151815260200191508051906020019080838360005b83811015610f98578082015181840152602081019050610f7d565b50505050905090810190601f168015610fc55780820380516001836020036101000a031916815260200191505b50848103835289818151815260200191508051906020019080838360005b83811015610ffe578082015181840152602081019050610fe3565b50505050905090810190601f16801561102b5780820380516001836020036101000a031916815260200191505b50848103825286818151815260200191508051906020019080838360005b83811015611064578082015181840152602081019050611049565b50505050905090810190601f1680156110915780820380516001836020036101000a031916815260200191505b509a505050505050505050505060405180910390f35b3480156110b357600080fd5b506110e0600480360360208110156110ca57600080fd5b8101908080359060200190929190505050614486565b604051808881526020018060200180602001878152602001868152602001806020018573ffffffffffffffffffffffffffffffffffffffff1673ffffffffffffffffffffffffffffffffffffffff16815260200184810384528a818151815260200191508051906020019080838360005b8381101561116c578082015181840152602081019050611151565b50505050905090810190601f1680156111995780820380516001836020036101000a031916815260200191505b50848103835289818151815260200191508051906020019080838360005b838110156111d25780820151818401526020810190506111b7565b50505050905090810190601f1680156111ff5780820380516001836020036101000a031916815260200191505b50848103825286818151815260200191508051906020019080838360005b8381101561123857808201518184015260208101905061121d565b50505050905090810190601f1680156112655780820380516001836020036101000a031916815260200191505b509a505050505050505050505060405180910390f35b34801561128757600080fd5b506112be6004803603604081101561129e57600080fd5b8101908080359060200190929190803590602001909291905050506146bd565b604051808273ffffffffffffffffffffffffffffffffffffffff1673ffffffffffffffffffffffffffffffffffffffff16815260200191505060405180910390f35b34801561130c57600080fd5b5061145d6004803603604081101561132357600080fd5b810190808035906020019064010000000081111561134057600080fd5b82018360208201111561135257600080fd5b8035906020019184600183028401116401000000008311171561137457600080fd5b91908080601f016020809104026020016040519081016040528093929190818152602001838380828437600081840152601f19601f820116905080830192505050505050509192919290803590602001906401000000008111156113d757600080fd5b8201836020820111156113e957600080fd5b8035906020019184600183028401116401000000008311171561140b57600080fd5b91908080601f016020809104026020016040519081016040528093929190818152602001838380828437600081840152601f19601f820116905080830192505050505050509192919290505050614708565b604051808215151515815260200191505060405180910390f35b34801561148357600080fd5b5061148c6147f7565b6040518082815260200191505060405180910390f35b3480156114ae57600080fd5b506114fb600480360360408110156114c557600080fd5b81019080803573ffffffffffffffffffffffffffffffffffffffff169060200190929190803590602001909291905050506147fd565b604051808a8152602001806020018060200180602001806020018973ffffffffffffffffffffffffffffffffffffffff1673ffffffffffffffffffffffffffffffffffffffff168152602001888152602001871515151581526020018060200186810386528e818151815260200191508051906020019080838360005b83811015611593578082015181840152602081019050611578565b50505050905090810190601f1680156115c05780820380516001836020036101000a031916815260200191505b5086810385528d818151815260200191508051906020019080838360005b838110156115f95780820151818401526020810190506115de565b50505050905090810190601f1680156116265780820380516001836020036101000a031916815260200191505b5086810384528c818151815260200191508051906020019080838360005b8381101561165f578082015181840152602081019050611644565b50505050905090810190601f16801561168c5780820380516001836020036101000a031916815260200191505b5086810383528b818151815260200191508051906020019080838360005b838110156116c55780820151818401526020810190506116aa565b50505050905090810190601f1680156116f25780820380516001836020036101000a031916815260200191505b50868103825287818151815260200191508051906020019080838360005b8381101561172b578082015181840152602081019050611710565b50505050905090810190601f1680156117585780820380516001836020036101000a031916815260200191505b509e50505050505050505050505050505060405180910390f35b34801561177e57600080fd5b506117ab6004803603602081101561179557600080fd5b8101908080359060200190929190505050614b8a565b6040518080602001828103825283818151815260200191508051906020019060200280838360005b838110156117ee5780820151818401526020810190506117d3565b505050509050019250505060405180910390f35b34801561180e57600080fd5b5061185b6004803603604081101561182557600080fd5b81019080803573ffffffffffffffffffffffffffffffffffffffff16906020019092919080359060200190929190505050614c66565b604051808881526020018060200180602001878152602001868152602001806020018573ffffffffffffffffffffffffffffffffffffffff1673ffffffffffffffffffffffffffffffffffffffff16815260200184810384528a818151815260200191508051906020019080838360005b838110156118e75780820151818401526020810190506118cc565b50505050905090810190601f1680156119145780820380516001836020036101000a031916815260200191505b50848103835289818151815260200191508051906020019080838360005b8381101561194d578082015181840152602081019050611932565b50505050905090810190601f16801561197a5780820380516001836020036101000a031916815260200191505b50848103825286818151815260200191508051906020019080838360005b838110156119b3578082015181840152602081019050611998565b50505050905090810190601f1680156119e05780820380516001836020036101000a031916815260200191505b509a505050505050505050505060405180910390f35b348015611a0257600080fd5b50611d2e600480360360e0811015611a1957600080fd5b8101908080359060200190640100000000811115611a3657600080fd5b820183602082011115611a4857600080fd5b80359060200191846001830284011164010000000083111715611a6a57600080fd5b91908080601f016020809104026020016040519081016040528093929190818152602001838380828437600081840152601f19601f82011690508083019250505050505050919291929080359060200190640100000000811115611acd57600080fd5b820183602082011115611adf57600080fd5b80359060200191846001830284011164010000000083111715611b0157600080fd5b91908080601f016020809104026020016040519081016040528093929190818152602001838380828437600081840152601f19601f82011690508083019250505050505050919291929080359060200190640100000000811115611b6457600080fd5b820183602082011115611b7657600080fd5b80359060200191846001830284011164010000000083111715611b9857600080fd5b91908080601f016020809104026020016040519081016040528093929190818152602001838380828437600081840152601f19601f82011690508083019250505050505050919291929080359060200190640100000000811115611bfb57600080fd5b820183602082011115611c0d57600080fd5b80359060200191846001830284011164010000000083111715611c2f57600080fd5b91908080601f016020809104026020016040519081016040528093929190818152602001838380828437600081840152601f19601f8201169050808301925050505050505091929192908035906020019092919080351515906020019092919080359060200190640100000000811115611ca857600080fd5b820183602082011115611cba57600080fd5b80359060200191846001830284011164010000000083111715611cdc57600080fd5b91908080601f016020809104026020016040519081016040528093929190818152602001838380828437600081840152601f19601f820116905080830192505050505050509192919290505050614eaa565b005b611e9e600480360360a0811015611d4657600080fd5b810190808035906020019092919080359060200190640100000000811115611d6d57600080fd5b820183602082011115611d7f57600080fd5b80359060200191846001830284011164010000000083111715611da157600080fd5b91908080601f016020809104026020016040519081016040528093929190818152602001838380828437600081840152601f19601f82011690508083019250505050505050919291929080359060200190640100000000811115611e0457600080fd5b820183602082011115611e1657600080fd5b80359060200191846001830284011164010000000083111715611e3857600080fd5b91908080601f016020809104026020016040519081016040528093929190818152602001838380828437600081840152601f19601f82011690508083019250505050505050919291929080359060200190929190803590602001909291905050506155e3565b005b348015611eac57600080fd5b50611ed960048036036020811015611ec357600080fd5b81019080803590602001909291905050506163a4565b005b348015611ee757600080fd5b50611f1460048036036020811015611efe57600080fd5b810190808035906020019092919050505061644d565b005b348015611f2257600080fd5b50611f4f60048036036020811015611f3957600080fd5b81019080803590602001909291905050506178f4565b604051808a8152602001806020018060200180602001806020018973ffffffffffffffffffffffffffffffffffffffff1673ffffffffffffffffffffffffffffffffffffffff168152602001888152602001871515151581526020018060200186810386528e818151815260200191508051906020019080838360005b83811015611fe7578082015181840152602081019050611fcc565b50505050905090810190601f1680156120145780820380516001836020036101000a031916815260200191505b5086810385528d818151815260200191508051906020019080838360005b8381101561204d578082015181840152602081019050612032565b50505050905090810190601f16801561207a5780820380516001836020036101000a031916815260200191505b5086810384528c818151815260200191508051906020019080838360005b838110156120b3578082015181840152602081019050612098565b50505050905090810190601f1680156120e05780820380516001836020036101000a031916815260200191505b5086810383528b818151815260200191508051906020019080838360005b838110156121195780820151818401526020810190506120fe565b50505050905090810190601f1680156121465780820380516001836020036101000a031916815260200191505b50868103825287818151815260200191508051906020019080838360005b8381101561217f578082015181840152602081019050612164565b50505050905090810190601f1680156121ac5780820380516001836020036101000a031916815260200191505b509e50505050505050505050505050505060405180910390f35b3480156121d257600080fd5b5061221f600480360360408110156121e957600080fd5b81019080803573ffffffffffffffffffffffffffffffffffffffff16906020019092919080359060200190929190505050617d29565b604051808881526020018060200180602001878152602001868152602001806020018573ffffffffffffffffffffffffffffffffffffffff1673ffffffffffffffffffffffffffffffffffffffff16815260200184810384528a818151815260200191508051906020019080838360005b838110156122ab578082015181840152602081019050612290565b50505050905090810190601f1680156122d85780820380516001836020036101000a031916815260200191505b50848103835289818151815260200191508051906020019080838360005b838110156123115780820151818401526020810190506122f6565b50505050905090810190601f16801561233e5780820380516001836020036101000a031916815260200191505b50848103825286818151815260200191508051906020019080838360005b8381101561237757808201518184015260208101905061235c565b50505050905090810190601f1680156123a45780820380516001836020036101000a031916815260200191505b509a505050505050505050505060405180910390f35b3480156123c657600080fd5b506123cf617f6d565b604051808273ffffffffffffffffffffffffffffffffffffffff1673ffffffffffffffffffffffffffffffffffffffff16815260200191505060405180910390f35b600e5481565b6003602052816000526040600020818154811061243057fe5b906000526020600020906007020160009150915050806000015490806001018054600181600116156101000203166002900480601f0160208091040260200160405190810160405280929190818152602001828054600181600116156101000203166002900480156124e35780601f106124b8576101008083540402835291602001916124e3565b820191906000526020600020905b8154815290600101906020018083116124c657829003601f168201915b505050505090806002018054600181600116156101000203166002900480601f0160208091040260200160405190810160405280929190818152602001828054600181600116156101000203166002900480156125815780601f1061255657610100808354040283529160200191612581565b820191906000526020600020905b81548152906001019060200180831161256457829003601f168201915b505050505090806003015490806004015490806005018054600181600116156101000203166002900480601f01602080910402602001604051908101604052809291908181526020018280546001816001161561010002031660029004801561262b5780601f106126005761010080835404028352916020019161262b565b820191906000526020600020905b81548152906001019060200180831161260e57829003601f168201915b5050505050908060060160009054906101000a900473ffffffffffffffffffffffffffffffffffffffff16905087565b6004602052816000526040600020818154811061267457fe5b906000526020600020906007020160009150915050806000015490806001018054600181600116156101000203166002900480601f0160208091040260200160405190810160405280929190818152602001828054600181600116156101000203166002900480156127275780601f106126fc57610100808354040283529160200191612727565b820191906000526020600020905b81548152906001019060200180831161270a57829003601f168201915b505050505090806002018054600181600116156101000203166002900480601f0160208091040260200160405190810160405280929190818152602001828054600181600116156101000203166002900480156127c55780601f1061279a576101008083540402835291602001916127c5565b820191906000526020600020905b8154815290600101906020018083116127a857829003601f168201915b505050505090806003015490806004015490806005018054600181600116156101000203166002900480601f01602080910402602001604051908101604052809291908181526020018280546001816001161561010002031660029004801561286f5780601f106128445761010080835404028352916020019161286f565b820191906000526020600020905b81548152906001019060200180831161285257829003601f168201915b5050505050908060060160009054906101000a900473ffffffffffffffffffffffffffffffffffffffff16905087565b606060008060006060600080905060003390506128f1896040518060400160405280600e81526020017f70656e64696e672d73656c6c6572000000000000000000000000000000000000815250614708565b15612a3557600160008273ffffffffffffffffffffffffffffffffffffffff1673ffffffffffffffffffffffffffffffffffffffff168152602001908152602001600020805490509550858811612948578761294a565b855b945085881161295b5787860361295e565b60005b935085881161296d578561296f565b875b60405190808252806020026020018201604052801561299d5781602001602082028038833980820191505090505b50925060008590505b848112612a2f57600160008373ffffffffffffffffffffffffffffffffffffffff1673ffffffffffffffffffffffffffffffffffffffff16815260200190815260200160002081815481106129f757fe5b906000526020600020906007020160000154848481518110612a1557fe5b6020026020010181815250508080600190039150506129a6565b50612ebd565b612a74896040518060400160405280600d81526020017f70656e64696e672d627579657200000000000000000000000000000000000000815250614708565b15612bb857600260008273ffffffffffffffffffffffffffffffffffffffff1673ffffffffffffffffffffffffffffffffffffffff168152602001908152602001600020805490509550858811612acb5787612acd565b855b9450858811612ade57878603612ae1565b60005b9350858811612af05785612af2565b875b604051908082528060200260200182016040528015612b205781602001602082028038833980820191505090505b50925060008590505b848112612bb257600260008373ffffffffffffffffffffffffffffffffffffffff1673ffffffffffffffffffffffffffffffffffffffff1681526020019081526020016000208181548110612b7a57fe5b906000526020600020906007020160000154848481518110612b9857fe5b602002602001018181525050808060019003915050612b29565b50612ebc565b612bf7896040518060400160405280601081526020017f636f6d706c657465642d73656c6c657200000000000000000000000000000000815250614708565b15612d3b57600360008273ffffffffffffffffffffffffffffffffffffffff1673ffffffffffffffffffffffffffffffffffffffff168152602001908152602001600020805490509550858811612c4e5787612c50565b855b9450858811612c6157878603612c64565b60005b9350858811612c735785612c75565b875b604051908082528060200260200182016040528015612ca35781602001602082028038833980820191505090505b50925060008590505b848112612d3557600360008373ffffffffffffffffffffffffffffffffffffffff1673ffffffffffffffffffffffffffffffffffffffff1681526020019081526020016000208181548110612cfd57fe5b906000526020600020906007020160000154848481518110612d1b57fe5b602002602001018181525050808060019003915050612cac565b50612ebb565b612d7a896040518060400160405280600f81526020017f636f6d706c657465642d62757965720000000000000000000000000000000000815250614708565b15612eba57600460008273ffffffffffffffffffffffffffffffffffffffff1673ffffffffffffffffffffffffffffffffffffffff168152602001908152602001600020805490509550858811612dd15787612dd3565b855b9450858811612de457878603612de7565b60005b9350858811612df65785612df8565b875b604051908082528060200260200182016040528015612e265781602001602082028038833980820191505090505b50925060008590505b848112612eb857600460008373ffffffffffffffffffffffffffffffffffffffff1673ffffffffffffffffffffffffffffffffffffffff1681526020019081526020016000208181548110612e8057fe5b906000526020600020906007020160000154848481518110612e9e57fe5b602002602001018181525050808060019003915050612e2f565b505b5b5b5b82965050505050505092915050565b60098181548110612ed957fe5b9060005260206000209060090201600091509050806000015490806001018054600181600116156101000203166002900480601f016020809104026020016040519081016040528092919081815260200182805460018160011615610100020316600290048015612f8b5780601f10612f6057610100808354040283529160200191612f8b565b820191906000526020600020905b815481529060010190602001808311612f6e57829003601f168201915b505050505090806002018054600181600116156101000203166002900480601f0160208091040260200160405190810160405280929190818152602001828054600181600116156101000203166002900480156130295780601f10612ffe57610100808354040283529160200191613029565b820191906000526020600020905b81548152906001019060200180831161300c57829003601f168201915b505050505090806003018054600181600116156101000203166002900480601f0160208091040260200160405190810160405280929190818152602001828054600181600116156101000203166002900480156130c75780601f1061309c576101008083540402835291602001916130c7565b820191906000526020600020905b8154815290600101906020018083116130aa57829003601f168201915b505050505090806004018054600181600116156101000203166002900480601f0160208091040260200160405190810160405280929190818152602001828054600181600116156101000203166002900480156131655780601f1061313a57610100808354040283529160200191613165565b820191906000526020600020905b81548152906001019060200180831161314857829003601f168201915b5050505050908060050160009054906101000a900473ffffffffffffffffffffffffffffffffffffffff16908060060154908060070160009054906101000a900460ff1690806008018054600181600116156101000203166002900480601f0160208091040260200160405190810160405280929190818152602001828054600181600116156101000203166002900480156132425780601f1061321757610100808354040283529160200191613242565b820191906000526020600020905b81548152906001019060200180831161322557829003601f168201915b5050505050905089565b600d5481565b600060608060008060606000613266617f93565b60003390506132aa8b6040518060400160405280600e81526020017f70656e64696e672d73656c6c6572000000000000000000000000000000000000815250614708565b1561357357600160008273ffffffffffffffffffffffffffffffffffffffff1673ffffffffffffffffffffffffffffffffffffffff1681526020019081526020016000208a815481106132f957fe5b90600052602060002090600702016040518060e001604052908160008201548152602001600182018054600181600116156101000203166002900480601f0160208091040260200160405190810160405280929190818152602001828054600181600116156101000203166002900480156133b55780601f1061338a576101008083540402835291602001916133b5565b820191906000526020600020905b81548152906001019060200180831161339857829003601f168201915b50505050508152602001600282018054600181600116156101000203166002900480601f0160208091040260200160405190810160405280929190818152602001828054600181600116156101000203166002900480156134575780601f1061342c57610100808354040283529160200191613457565b820191906000526020600020905b81548152906001019060200180831161343a57829003601f168201915b505050505081526020016003820154815260200160048201548152602001600582018054600181600116156101000203166002900480601f01602080910402602001604051908101604052809291908181526020018280546001816001161561010002031660029004801561350d5780601f106134e25761010080835404028352916020019161350d565b820191906000526020600020905b8154815290600101906020018083116134f057829003601f168201915b505050505081526020016006820160009054906101000a900473ffffffffffffffffffffffffffffffffffffffff1673ffffffffffffffffffffffffffffffffffffffff1673ffffffffffffffffffffffffffffffffffffffff16815250509150613e8a565b6135b28b6040518060400160405280600d81526020017f70656e64696e672d627579657200000000000000000000000000000000000000815250614708565b1561387b57600260008273ffffffffffffffffffffffffffffffffffffffff1673ffffffffffffffffffffffffffffffffffffffff1681526020019081526020016000208a8154811061360157fe5b90600052602060002090600702016040518060e001604052908160008201548152602001600182018054600181600116156101000203166002900480601f0160208091040260200160405190810160405280929190818152602001828054600181600116156101000203166002900480156136bd5780601f10613692576101008083540402835291602001916136bd565b820191906000526020600020905b8154815290600101906020018083116136a057829003601f168201915b50505050508152602001600282018054600181600116156101000203166002900480601f01602080910402602001604051908101604052809291908181526020018280546001816001161561010002031660029004801561375f5780601f106137345761010080835404028352916020019161375f565b820191906000526020600020905b81548152906001019060200180831161374257829003601f168201915b505050505081526020016003820154815260200160048201548152602001600582018054600181600116156101000203166002900480601f0160208091040260200160405190810160405280929190818152602001828054600181600116156101000203166002900480156138155780601f106137ea57610100808354040283529160200191613815565b820191906000526020600020905b8154815290600101906020018083116137f857829003601f168201915b505050505081526020016006820160009054906101000a900473ffffffffffffffffffffffffffffffffffffffff1673ffffffffffffffffffffffffffffffffffffffff1673ffffffffffffffffffffffffffffffffffffffff16815250509150613e89565b6138ba8b6040518060400160405280601081526020017f636f6d706c657465642d73656c6c657200000000000000000000000000000000815250614708565b15613b8357600360008273ffffffffffffffffffffffffffffffffffffffff1673ffffffffffffffffffffffffffffffffffffffff1681526020019081526020016000208a8154811061390957fe5b90600052602060002090600702016040518060e001604052908160008201548152602001600182018054600181600116156101000203166002900480601f0160208091040260200160405190810160405280929190818152602001828054600181600116156101000203166002900480156139c55780601f1061399a576101008083540402835291602001916139c5565b820191906000526020600020905b8154815290600101906020018083116139a857829003601f168201915b50505050508152602001600282018054600181600116156101000203166002900480601f016020809104026020016040519081016040528092919081815260200182805460018160011615610100020316600290048015613a675780601f10613a3c57610100808354040283529160200191613a67565b820191906000526020600020905b815481529060010190602001808311613a4a57829003601f168201915b505050505081526020016003820154815260200160048201548152602001600582018054600181600116156101000203166002900480601f016020809104026020016040519081016040528092919081815260200182805460018160011615610100020316600290048015613b1d5780601f10613af257610100808354040283529160200191613b1d565b820191906000526020600020905b815481529060010190602001808311613b0057829003601f168201915b505050505081526020016006820160009054906101000a900473ffffffffffffffffffffffffffffffffffffffff1673ffffffffffffffffffffffffffffffffffffffff1673ffffffffffffffffffffffffffffffffffffffff16815250509150613e88565b613bc28b6040518060400160405280600f81526020017f636f6d706c657465642d62757965720000000000000000000000000000000000815250614708565b15613e8757600460008273ffffffffffffffffffffffffffffffffffffffff1673ffffffffffffffffffffffffffffffffffffffff1681526020019081526020016000208a81548110613c1157fe5b90600052602060002090600702016040518060e001604052908160008201548152602001600182018054600181600116156101000203166002900480601f016020809104026020016040519081016040528092919081815260200182805460018160011615610100020316600290048015613ccd5780601f10613ca257610100808354040283529160200191613ccd565b820191906000526020600020905b815481529060010190602001808311613cb057829003601f168201915b50505050508152602001600282018054600181600116156101000203166002900480601f016020809104026020016040519081016040528092919081815260200182805460018160011615610100020316600290048015613d6f5780601f10613d4457610100808354040283529160200191613d6f565b820191906000526020600020905b815481529060010190602001808311613d5257829003601f168201915b505050505081526020016003820154815260200160048201548152602001600582018054600181600116156101000203166002900480601f016020809104026020016040519081016040528092919081815260200182805460018160011615610100020316600290048015613e255780601f10613dfa57610100808354040283529160200191613e25565b820191906000526020600020905b815481529060010190602001808311613e0857829003601f168201915b505050505081526020016006820160009054906101000a900473ffffffffffffffffffffffffffffffffffffffff1673ffffffffffffffffffffffffffffffffffffffff1673ffffffffffffffffffffffffffffffffffffffff168152505091505b5b5b5b81600001519850816020015197508160400151965081606001519550816080015194508160a0015193508160c001519250505092959891949750929550565b60086020528060005260406000206000915054906101000a900460ff1681565b6005602052806000526040600020600091509050806000015490806001018054600181600116156101000203166002900480601f016020809104026020016040519081016040528092919081815260200182805460018160011615610100020316600290048015613f9b5780601f10613f7057610100808354040283529160200191613f9b565b820191906000526020600020905b815481529060010190602001808311613f7e57829003601f168201915b505050505090806002018054600181600116156101000203166002900480601f0160208091040260200160405190810160405280929190818152602001828054600181600116156101000203166002900480156140395780601f1061400e57610100808354040283529160200191614039565b820191906000526020600020905b81548152906001019060200180831161401c57829003601f168201915b505050505090806003018054600181600116156101000203166002900480601f0160208091040260200160405190810160405280929190818152602001828054600181600116156101000203166002900480156140d75780601f106140ac576101008083540402835291602001916140d7565b820191906000526020600020905b8154815290600101906020018083116140ba57829003601f168201915b505050505090806004018054600181600116156101000203166002900480601f0160208091040260200160405190810160405280929190818152602001828054600181600116156101000203166002900480156141755780601f1061414a57610100808354040283529160200191614175565b820191906000526020600020905b81548152906001019060200180831161415857829003601f168201915b5050505050908060050160009054906101000a900473ffffffffffffffffffffffffffffffffffffffff16908060060154908060070160009054906101000a900460ff1690806008018054600181600116156101000203166002900480601f0160208091040260200160405190810160405280929190818152602001828054600181600116156101000203166002900480156142525780601f1061422757610100808354040283529160200191614252565b820191906000526020600020905b81548152906001019060200180831161423557829003601f168201915b5050505050905089565b6007602052806000526040600020600091509050806000015490806001018054600181600116156101000203166002900480601f01602080910402602001604051908101604052809291908181526020018280546001816001161561010002031660029004801561430e5780601f106142e35761010080835404028352916020019161430e565b820191906000526020600020905b8154815290600101906020018083116142f157829003601f168201915b505050505090806002018054600181600116156101000203166002900480601f0160208091040260200160405190810160405280929190818152602001828054600181600116156101000203166002900480156143ac5780601f10614381576101008083540402835291602001916143ac565b820191906000526020600020905b81548152906001019060200180831161438f57829003601f168201915b505050505090806003015490806004015490806005018054600181600116156101000203166002900480601f0160208091040260200160405190810160405280929190818152602001828054600181600116156101000203166002900480156144565780601f1061442b57610100808354040283529160200191614456565b820191906000526020600020905b81548152906001019060200180831161443957829003601f168201915b5050505050908060060160009054906101000a900473ffffffffffffffffffffffffffffffffffffffff16905087565b600a818154811061449357fe5b9060005260206000209060070201600091509050806000015490806001018054600181600116156101000203166002900480601f0160208091040260200160405190810160405280929190818152602001828054600181600116156101000203166002900480156145455780601f1061451a57610100808354040283529160200191614545565b820191906000526020600020905b81548152906001019060200180831161452857829003601f168201915b505050505090806002018054600181600116156101000203166002900480601f0160208091040260200160405190810160405280929190818152602001828054600181600116156101000203166002900480156145e35780601f106145b8576101008083540402835291602001916145e3565b820191906000526020600020905b8154815290600101906020018083116145c657829003601f168201915b505050505090806003015490806004015490806005018054600181600116156101000203166002900480601f01602080910402602001604051908101604052809291908181526020018280546001816001161561010002031660029004801561468d5780601f106146625761010080835404028352916020019161468d565b820191906000526020600020905b81548152906001019060200180831161467057829003601f168201915b5050505050908060060160009054906101000a900473ffffffffffffffffffffffffffffffffffffffff16905087565b600660205281600052604060002081815481106146d657fe5b906000526020600020016000915091509054906101000a900473ffffffffffffffffffffffffffffffffffffffff1681565b6000816040516020018082805190602001908083835b60208310614741578051825260208201915060208101905060208303925061471e565b6001836020036101000a03801982511681845116808217855250505050505090500191505060405160208183030381529060405280519060200120836040516020018082805190602001908083835b602083106147b35780518252602082019150602081019050602083039250614790565b6001836020036101000a0380198251168184511680821785525050505050509050019150506040516020818303038152906040528051906020012014905092915050565b600b5481565b6000602052816000526040600020818154811061481657fe5b906000526020600020906009020160009150915050806000015490806001018054600181600116156101000203166002900480601f0160208091040260200160405190810160405280929190818152602001828054600181600116156101000203166002900480156148c95780601f1061489e576101008083540402835291602001916148c9565b820191906000526020600020905b8154815290600101906020018083116148ac57829003601f168201915b505050505090806002018054600181600116156101000203166002900480601f0160208091040260200160405190810160405280929190818152602001828054600181600116156101000203166002900480156149675780601f1061493c57610100808354040283529160200191614967565b820191906000526020600020905b81548152906001019060200180831161494a57829003601f168201915b505050505090806003018054600181600116156101000203166002900480601f016020809104026020016040519081016040528092919081815260200182805460018160011615610100020316600290048015614a055780601f106149da57610100808354040283529160200191614a05565b820191906000526020600020905b8154815290600101906020018083116149e857829003601f168201915b505050505090806004018054600181600116156101000203166002900480601f016020809104026020016040519081016040528092919081815260200182805460018160011615610100020316600290048015614aa35780601f10614a7857610100808354040283529160200191614aa3565b820191906000526020600020905b815481529060010190602001808311614a8657829003601f168201915b5050505050908060050160009054906101000a900473ffffffffffffffffffffffffffffffffffffffff16908060060154908060070160009054906101000a900460ff1690806008018054600181600116156101000203166002900480601f016020809104026020016040519081016040528092919081815260200182805460018160011615610100020316600290048015614b805780601f10614b5557610100808354040283529160200191614b80565b820191906000526020600020905b815481529060010190602001808311614b6357829003601f168201915b5050505050905089565b6060600060098054905090506000818411614ba55783614ba7565b815b90506000828511614bba57848303614bbd565b60005b90506060838611614bce5783614bd0565b855b604051908082528060200260200182016040528015614bfe5781602001602082028038833980820191505090505b509050600080905060008490505b838112614c585760098181548110614c2057fe5b906000526020600020906009020160000154838381518110614c3e57fe5b602002602001018181525050808060019003915050614c0c565b508195505050505050919050565b60026020528160005260406000208181548110614c7f57fe5b906000526020600020906007020160009150915050806000015490806001018054600181600116156101000203166002900480601f016020809104026020016040519081016040528092919081815260200182805460018160011615610100020316600290048015614d325780601f10614d0757610100808354040283529160200191614d32565b820191906000526020600020905b815481529060010190602001808311614d1557829003601f168201915b505050505090806002018054600181600116156101000203166002900480601f016020809104026020016040519081016040528092919081815260200182805460018160011615610100020316600290048015614dd05780601f10614da557610100808354040283529160200191614dd0565b820191906000526020600020905b815481529060010190602001808311614db357829003601f168201915b505050505090806003015490806004015490806005018054600181600116156101000203166002900480601f016020809104026020016040519081016040528092919081815260200182805460018160011615610100020316600290048015614e7a5780601f10614e4f57610100808354040283529160200191614e7a565b820191906000526020600020905b815481529060010190602001808311614e5d57829003601f168201915b5050505050908060060160009054906101000a900473ffffffffffffffffffffffffffffffffffffffff16905087565b6000875111614f21576040517f08c379a00000000000000000000000000000000000000000000000000000000081526004018080602001828103825260168152602001807f426f6f6b204e616d65206973206e65636573736172790000000000000000000081525060200191505060405180910390fd5b6000865111614f98576040517f08c379a00000000000000000000000000000000000000000000000000000000081526004018080602001828103825260118152602001807f4953424e206973206e656365737361727900000000000000000000000000000081525060200191505060405180910390fd5b600085511161500f576040517f08c379a00000000000000000000000000000000000000000000000000000000081526004018080602001828103825260188152602001807f417574686f72204e616d65206973206e6563657373617279000000000000000081525060200191505060405180910390fd5b60008311615085576040517f08c379a00000000000000000000000000000000000000000000000000000000081526004018080602001828103825260128152602001807f5072696365206973206e6563657373617279000000000000000000000000000081525060200191505060405180910390fd5b8161508f57600091505b600033905061509c617fe6565b604051806101200160405280600b5481526020018a81526020018981526020018881526020018781526020018373ffffffffffffffffffffffffffffffffffffffff16815260200186815260200185151581526020018481525090506009819080600181540180825580915050906001820390600052602060002090600902016000909192909190915060008201518160000155602082015181600101908051906020019061514c92919061804a565b50604082015181600201908051906020019061516992919061804a565b50606082015181600301908051906020019061518692919061804a565b5060808201518160040190805190602001906151a392919061804a565b5060a08201518160050160006101000a81548173ffffffffffffffffffffffffffffffffffffffff021916908373ffffffffffffffffffffffffffffffffffffffff16021790555060c0820151816006015560e08201518160070160006101000a81548160ff02191690831515021790555061010082015181600801908051906020019061523292919061804a565b505050506000803373ffffffffffffffffffffffffffffffffffffffff1673ffffffffffffffffffffffffffffffffffffffff16815260200190815260200160002081908060018154018082558091505090600182039060005260206000209060090201600090919290919091506000820151816000015560208201518160010190805190602001906152c692919061804a565b5060408201518160020190805190602001906152e392919061804a565b50606082015181600301908051906020019061530092919061804a565b50608082015181600401908051906020019061531d92919061804a565b5060a08201518160050160006101000a81548173ffffffffffffffffffffffffffffffffffffffff021916908373ffffffffffffffffffffffffffffffffffffffff16021790555060c0820151816006015560e08201518160070160006101000a81548160ff0219169083151502179055506101008201518160080190805190602001906153ac92919061804a565b505050508060056000600b5481526020019081526020016000206000820151816000015560208201518160010190805190602001906153ec92919061804a565b50604082015181600201908051906020019061540992919061804a565b50606082015181600301908051906020019061542692919061804a565b50608082015181600401908051906020019061544392919061804a565b5060a08201518160050160006101000a81548173ffffffffffffffffffffffffffffffffffffffff021916908373ffffffffffffffffffffffffffffffffffffffff16021790555060c0820151816006015560e08201518160070160006101000a81548160ff0219169083151502179055506101008201518160080190805190602001906154d292919061804a565b50905050600160086000600b54815260200190815260200160002060006101000a81548160ff021916908315150217905550600c60009054906101000a900473ffffffffffffffffffffffffffffffffffffffff1673ffffffffffffffffffffffffffffffffffffffff166340c10f1930600b546040518363ffffffff1660e01b8152600401808373ffffffffffffffffffffffffffffffffffffffff1673ffffffffffffffffffffffffffffffffffffffff16815260200182815260200192505050600060405180830381600087803b1580156155af57600080fd5b505af11580156155c3573d6000803e3d6000fd5b505050506001600b60008282540192505081905550505050505050505050565b6008600086815260200190815260200160002060009054906101000a900460ff16615659576040517f08c379a00000000000000000000000000000000000000000000000000000000081526004018080602001828103825260238152602001806182276023913960400191505060405180910390fd5b60008451116156d0576040517f08c379a00000000000000000000000000000000000000000000000000000000081526004018080602001828103825260148152602001807f546865206e616d65206d7573742062652073657400000000000000000000000081525060200191505060405180910390fd5b6000835111615747576040517f08c379a00000000000000000000000000000000000000000000000000000000081526004018080602001828103825260208152602001807f5468652044656c69766572792041646472657373206d7573742062652073657481525060200191505060405180910390fd5b600082116157bd576040517f08c379a000000000000000000000000000000000000000000000000000000000815260040180806020018281038252601b8152602001807f54686520706f7374616c20636f6465206d75737420626520736574000000000081525060200191505060405180910390fd5b60008111615833576040517f08c379a000000000000000000000000000000000000000000000000000000000815260040180806020018281038252601c8152602001807f5468652050686f6e65204e756d626572206d757374206265207365740000000081525060200191505060405180910390fd5b61583b617fe6565b600560008781526020019081526020016000206040518061012001604052908160008201548152602001600182018054600181600116156101000203166002900480601f0160208091040260200160405190810160405280929190818152602001828054600181600116156101000203166002900480156158fd5780601f106158d2576101008083540402835291602001916158fd565b820191906000526020600020905b8154815290600101906020018083116158e057829003601f168201915b50505050508152602001600282018054600181600116156101000203166002900480601f01602080910402602001604051908101604052809291908181526020018280546001816001161561010002031660029004801561599f5780601f106159745761010080835404028352916020019161599f565b820191906000526020600020905b81548152906001019060200180831161598257829003601f168201915b50505050508152602001600382018054600181600116156101000203166002900480601f016020809104026020016040519081016040528092919081815260200182805460018160011615610100020316600290048015615a415780601f10615a1657610100808354040283529160200191615a41565b820191906000526020600020905b815481529060010190602001808311615a2457829003601f168201915b50505050508152602001600482018054600181600116156101000203166002900480601f016020809104026020016040519081016040528092919081815260200182805460018160011615610100020316600290048015615ae35780601f10615ab857610100808354040283529160200191615ae3565b820191906000526020600020905b815481529060010190602001808311615ac657829003601f168201915b505050505081526020016005820160009054906101000a900473ffffffffffffffffffffffffffffffffffffffff1673ffffffffffffffffffffffffffffffffffffffff1673ffffffffffffffffffffffffffffffffffffffff168152602001600682015481526020016007820160009054906101000a900460ff16151515158152602001600882018054600181600116156101000203166002900480601f016020809104026020016040519081016040528092919081815260200182805460018160011615610100020316600290048015615c005780601f10615bd557610100808354040283529160200191615c00565b820191906000526020600020905b815481529060010190602001808311615be357829003601f168201915b5050505050815250509050615c13617f93565b6040518060e001604052808881526020018781526020018681526020018581526020018481526020016040518060400160405280600781526020017f70656e64696e670000000000000000000000000000000000000000000000000081525081526020013373ffffffffffffffffffffffffffffffffffffffff1681525090508160c00151341015615cf0576040517f08c379a000000000000000000000000000000000000000000000000000000000815260040180806020018281038252602b81526020018061824a602b913960400191505060405180910390fd5b600160008360a0015173ffffffffffffffffffffffffffffffffffffffff1673ffffffffffffffffffffffffffffffffffffffff1681526020019081526020016000208190806001815401808255809150509060018203906000526020600020906007020160009091929091909150600082015181600001556020820151816001019080519060200190615d8592919061804a565b506040820151816002019080519060200190615da292919061804a565b50606082015181600301556080820151816004015560a0820151816005019080519060200190615dd392919061804a565b5060c08201518160060160006101000a81548173ffffffffffffffffffffffffffffffffffffffff021916908373ffffffffffffffffffffffffffffffffffffffff160217905550505050600260003373ffffffffffffffffffffffffffffffffffffffff1673ffffffffffffffffffffffffffffffffffffffff1681526020019081526020016000208190806001815401808255809150509060018203906000526020600020906007020160009091929091909150600082015181600001556020820151816001019080519060200190615eaf92919061804a565b506040820151816002019080519060200190615ecc92919061804a565b50606082015181600301556080820151816004015560a0820151816005019080519060200190615efd92919061804a565b5060c08201518160060160006101000a81548173ffffffffffffffffffffffffffffffffffffffff021916908373ffffffffffffffffffffffffffffffffffffffff160217905550505050600a8190806001815401808255809150509060018203906000526020600020906007020160009091929091909150600082015181600001556020820151816001019080519060200190615f9c92919061804a565b506040820151816002019080519060200190615fb992919061804a565b50606082015181600301556080820151816004015560a0820151816005019080519060200190615fea92919061804a565b5060c08201518160060160006101000a81548173ffffffffffffffffffffffffffffffffffffffff021916908373ffffffffffffffffffffffffffffffffffffffff160217905550505050806007600089815260200190815260200160002060008201518160000155602082015181600101908051906020019061606f92919061804a565b50604082015181600201908051906020019061608c92919061804a565b50606082015181600301556080820151816004015560a08201518160050190805190602001906160bd92919061804a565b5060c08201518160060160006101000a81548173ffffffffffffffffffffffffffffffffffffffff021916908373ffffffffffffffffffffffffffffffffffffffff1602179055509050506000600160008460a0015173ffffffffffffffffffffffffffffffffffffffff1673ffffffffffffffffffffffffffffffffffffffff168152602001908152602001600020805490501161615d5760006161a7565b60018060008460a0015173ffffffffffffffffffffffffffffffffffffffff1673ffffffffffffffffffffffffffffffffffffffff16815260200190815260200160002080549050035b600d819055506000600260008460a0015173ffffffffffffffffffffffffffffffffffffffff1673ffffffffffffffffffffffffffffffffffffffff168152602001908152602001600020805490501161620257600061624d565b6001600260008460a0015173ffffffffffffffffffffffffffffffffffffffff1673ffffffffffffffffffffffffffffffffffffffff16815260200190815260200160002080549050035b600e81905550600c60009054906101000a900473ffffffffffffffffffffffffffffffffffffffff1673ffffffffffffffffffffffffffffffffffffffff166323b872dd8360a00151338a6040518463ffffffff1660e01b8152600401808473ffffffffffffffffffffffffffffffffffffffff1673ffffffffffffffffffffffffffffffffffffffff1681526020018373ffffffffffffffffffffffffffffffffffffffff1673ffffffffffffffffffffffffffffffffffffffff1681526020018281526020019350505050600060405180830381600087803b15801561633457600080fd5b505af1158015616348573d6000803e3d6000fd5b505050508160a0015173ffffffffffffffffffffffffffffffffffffffff166108fc8360c001519081150290604051600060405180830381858888f1935050505015801561639a573d6000803e3d6000fd5b5050505050505050565b600081101561641b576040517f08c379a000000000000000000000000000000000000000000000000000000000815260040180806020018281038252600f8152602001807f4944206973206e6563657373617279000000000000000000000000000000000081525060200191505060405180910390fd5b60016005600083815260200190815260200160002060070160006101000a81548160ff02191690831515021790555050565b616455617f93565b600760008381526020019081526020016000206040518060e001604052908160008201548152602001600182018054600181600116156101000203166002900480601f0160208091040260200160405190810160405280929190818152602001828054600181600116156101000203166002900480156165165780601f106164eb57610100808354040283529160200191616516565b820191906000526020600020905b8154815290600101906020018083116164f957829003601f168201915b50505050508152602001600282018054600181600116156101000203166002900480601f0160208091040260200160405190810160405280929190818152602001828054600181600116156101000203166002900480156165b85780601f1061658d576101008083540402835291602001916165b8565b820191906000526020600020905b81548152906001019060200180831161659b57829003601f168201915b505050505081526020016003820154815260200160048201548152602001600582018054600181600116156101000203166002900480601f01602080910402602001604051908101604052809291908181526020018280546001816001161561010002031660029004801561666e5780601f106166435761010080835404028352916020019161666e565b820191906000526020600020905b81548152906001019060200180831161665157829003601f168201915b505050505081526020016006820160009054906101000a900473ffffffffffffffffffffffffffffffffffffffff1673ffffffffffffffffffffffffffffffffffffffff1673ffffffffffffffffffffffffffffffffffffffff168152505090506166d7617fe6565b600560008481526020019081526020016000206040518061012001604052908160008201548152602001600182018054600181600116156101000203166002900480601f0160208091040260200160405190810160405280929190818152602001828054600181600116156101000203166002900480156167995780601f1061676e57610100808354040283529160200191616799565b820191906000526020600020905b81548152906001019060200180831161677c57829003601f168201915b50505050508152602001600282018054600181600116156101000203166002900480601f01602080910402602001604051908101604052809291908181526020018280546001816001161561010002031660029004801561683b5780601f106168105761010080835404028352916020019161683b565b820191906000526020600020905b81548152906001019060200180831161681e57829003601f168201915b50505050508152602001600382018054600181600116156101000203166002900480601f0160208091040260200160405190810160405280929190818152602001828054600181600116156101000203166002900480156168dd5780601f106168b2576101008083540402835291602001916168dd565b820191906000526020600020905b8154815290600101906020018083116168c057829003601f168201915b50505050508152602001600482018054600181600116156101000203166002900480601f01602080910402602001604051908101604052809291908181526020018280546001816001161561010002031660029004801561697f5780601f106169545761010080835404028352916020019161697f565b820191906000526020600020905b81548152906001019060200180831161696257829003601f168201915b505050505081526020016005820160009054906101000a900473ffffffffffffffffffffffffffffffffffffffff1673ffffffffffffffffffffffffffffffffffffffff1673ffffffffffffffffffffffffffffffffffffffff168152602001600682015481526020016007820160009054906101000a900460ff16151515158152602001600882018054600181600116156101000203166002900480601f016020809104026020016040519081016040528092919081815260200182805460018160011615610100020316600290048015616a9c5780601f10616a7157610100808354040283529160200191616a9c565b820191906000526020600020905b815481529060010190602001808311616a7f57829003601f168201915b50505050508152505090503373ffffffffffffffffffffffffffffffffffffffff168160a0015173ffffffffffffffffffffffffffffffffffffffff1614616b2f576040517f08c379a000000000000000000000000000000000000000000000000000000000815260040180806020018281038252602f8152602001806181f8602f913960400191505060405180910390fd5b6040518060400160405280600981526020017f636f6d706c6574656400000000000000000000000000000000000000000000008152508260a0018190525060008260c00151905060008090505b600160008460a0015173ffffffffffffffffffffffffffffffffffffffff1673ffffffffffffffffffffffffffffffffffffffff1681526020019081526020016000208054905081101561704a5784600160008560a0015173ffffffffffffffffffffffffffffffffffffffff1673ffffffffffffffffffffffffffffffffffffffff1681526020019081526020016000208281548110616c1957fe5b906000526020600020906007020160000154141561703d57616c39617f93565b60076000600d5481526020019081526020016000206040518060e001604052908160008201548152602001600182018054600181600116156101000203166002900480601f016020809104026020016040519081016040528092919081815260200182805460018160011615610100020316600290048015616cfc5780601f10616cd157610100808354040283529160200191616cfc565b820191906000526020600020905b815481529060010190602001808311616cdf57829003601f168201915b50505050508152602001600282018054600181600116156101000203166002900480601f016020809104026020016040519081016040528092919081815260200182805460018160011615610100020316600290048015616d9e5780601f10616d7357610100808354040283529160200191616d9e565b820191906000526020600020905b815481529060010190602001808311616d8157829003601f168201915b505050505081526020016003820154815260200160048201548152602001600582018054600181600116156101000203166002900480601f016020809104026020016040519081016040528092919081815260200182805460018160011615610100020316600290048015616e545780601f10616e2957610100808354040283529160200191616e54565b820191906000526020600020905b815481529060010190602001808311616e3757829003601f168201915b505050505081526020016006820160009054906101000a900473ffffffffffffffffffffffffffffffffffffffff1673ffffffffffffffffffffffffffffffffffffffff1673ffffffffffffffffffffffffffffffffffffffff1681525050905080600160008660a0015173ffffffffffffffffffffffffffffffffffffffff1673ffffffffffffffffffffffffffffffffffffffff1681526020019081526020016000208381548110616f0457fe5b9060005260206000209060070201600082015181600001556020820151816001019080519060200190616f3892919061804a565b506040820151816002019080519060200190616f5592919061804a565b50606082015181600301556080820151816004015560a0820151816005019080519060200190616f8692919061804a565b5060c08201518160060160006101000a81548173ffffffffffffffffffffffffffffffffffffffff021916908373ffffffffffffffffffffffffffffffffffffffff160217905550905050600160008560a0015173ffffffffffffffffffffffffffffffffffffffff1673ffffffffffffffffffffffffffffffffffffffff16815260200190815260200160002080548091906001900361702791906180ca565b50600d6000815480929190600190039190505550505b8080600101915050616b7c565b5060008090505b600260003373ffffffffffffffffffffffffffffffffffffffff1673ffffffffffffffffffffffffffffffffffffffff16815260200190815260200160002080549050811015617513578360000151600260003373ffffffffffffffffffffffffffffffffffffffff1673ffffffffffffffffffffffffffffffffffffffff16815260200190815260200160002082815481106170ea57fe5b90600052602060002090600702016000015414156175065761710a617f93565b60076000600e5481526020019081526020016000206040518060e001604052908160008201548152602001600182018054600181600116156101000203166002900480601f0160208091040260200160405190810160405280929190818152602001828054600181600116156101000203166002900480156171cd5780601f106171a2576101008083540402835291602001916171cd565b820191906000526020600020905b8154815290600101906020018083116171b057829003601f168201915b50505050508152602001600282018054600181600116156101000203166002900480601f01602080910402602001604051908101604052809291908181526020018280546001816001161561010002031660029004801561726f5780601f106172445761010080835404028352916020019161726f565b820191906000526020600020905b81548152906001019060200180831161725257829003601f168201915b505050505081526020016003820154815260200160048201548152602001600582018054600181600116156101000203166002900480601f0160208091040260200160405190810160405280929190818152602001828054600181600116156101000203166002900480156173255780601f106172fa57610100808354040283529160200191617325565b820191906000526020600020905b81548152906001019060200180831161730857829003601f168201915b505050505081526020016006820160009054906101000a900473ffffffffffffffffffffffffffffffffffffffff1673ffffffffffffffffffffffffffffffffffffffff1673ffffffffffffffffffffffffffffffffffffffff1681525050905080600260003373ffffffffffffffffffffffffffffffffffffffff1673ffffffffffffffffffffffffffffffffffffffff16815260200190815260200160002083815481106173d157fe5b906000526020600020906007020160008201518160000155602082015181600101908051906020019061740592919061804a565b50604082015181600201908051906020019061742292919061804a565b50606082015181600301556080820151816004015560a082015181600501908051906020019061745392919061804a565b5060c08201518160060160006101000a81548173ffffffffffffffffffffffffffffffffffffffff021916908373ffffffffffffffffffffffffffffffffffffffff160217905550905050600260003373ffffffffffffffffffffffffffffffffffffffff1673ffffffffffffffffffffffffffffffffffffffff1681526020019081526020016000208054809190600190036174f091906180ca565b50600e6000815480929190600190039190505550505b8080600101915050617051565b50600360008360a0015173ffffffffffffffffffffffffffffffffffffffff1673ffffffffffffffffffffffffffffffffffffffff16815260200190815260200160002083908060018154018082558091505090600182039060005260206000209060070201600090919290919091506000820151816000015560208201518160010190805190602001906175a992919061804a565b5060408201518160020190805190602001906175c692919061804a565b50606082015181600301556080820151816004015560a08201518160050190805190602001906175f792919061804a565b5060c08201518160060160006101000a81548173ffffffffffffffffffffffffffffffffffffffff021916908373ffffffffffffffffffffffffffffffffffffffff160217905550505050600460003373ffffffffffffffffffffffffffffffffffffffff1673ffffffffffffffffffffffffffffffffffffffff16815260200190815260200160002083908060018154018082558091505090600182039060005260206000209060070201600090919290919091506000820151816000015560208201518160010190805190602001906176d392919061804a565b5060408201518160020190805190602001906176f092919061804a565b50606082015181600301556080820151816004015560a082015181600501908051906020019061772192919061804a565b5060c08201518160060160006101000a81548173ffffffffffffffffffffffffffffffffffffffff021916908373ffffffffffffffffffffffffffffffffffffffff16021790555050505082600760008681526020019081526020016000206000820151816000015560208201518160010190805190602001906177a692919061804a565b5060408201518160020190805190602001906177c392919061804a565b50606082015181600301556080820151816004015560a08201518160050190805190602001906177f492919061804a565b5060c08201518160060160006101000a81548173ffffffffffffffffffffffffffffffffffffffff021916908373ffffffffffffffffffffffffffffffffffffffff160217905550905050808260a0019073ffffffffffffffffffffffffffffffffffffffff16908173ffffffffffffffffffffffffffffffffffffffff1681525050600660008581526020019081526020016000203390806001815401808255809150509060018203906000526020600020016000909192909190916101000a81548173ffffffffffffffffffffffffffffffffffffffff021916908373ffffffffffffffffffffffffffffffffffffffff1602179055505050505050565b60006060806060806000806000606061790b617fe6565b600560008c81526020019081526020016000206040518061012001604052908160008201548152602001600182018054600181600116156101000203166002900480601f0160208091040260200160405190810160405280929190818152602001828054600181600116156101000203166002900480156179cd5780601f106179a2576101008083540402835291602001916179cd565b820191906000526020600020905b8154815290600101906020018083116179b057829003601f168201915b50505050508152602001600282018054600181600116156101000203166002900480601f016020809104026020016040519081016040528092919081815260200182805460018160011615610100020316600290048015617a6f5780601f10617a4457610100808354040283529160200191617a6f565b820191906000526020600020905b815481529060010190602001808311617a5257829003601f168201915b50505050508152602001600382018054600181600116156101000203166002900480601f016020809104026020016040519081016040528092919081815260200182805460018160011615610100020316600290048015617b115780601f10617ae657610100808354040283529160200191617b11565b820191906000526020600020905b815481529060010190602001808311617af457829003601f168201915b50505050508152602001600482018054600181600116156101000203166002900480601f016020809104026020016040519081016040528092919081815260200182805460018160011615610100020316600290048015617bb35780601f10617b8857610100808354040283529160200191617bb3565b820191906000526020600020905b815481529060010190602001808311617b9657829003601f168201915b505050505081526020016005820160009054906101000a900473ffffffffffffffffffffffffffffffffffffffff1673ffffffffffffffffffffffffffffffffffffffff1673ffffffffffffffffffffffffffffffffffffffff168152602001600682015481526020016007820160009054906101000a900460ff16151515158152602001600882018054600181600116156101000203166002900480601f016020809104026020016040519081016040528092919081815260200182805460018160011615610100020316600290048015617cd05780601f10617ca557610100808354040283529160200191617cd0565b820191906000526020600020905b815481529060010190602001808311617cb357829003601f168201915b505050505081525050905080600001519950806020015198508060400151975080606001519650806080015195508060a0015194508060c0015193508060e0015192508061010001519150509193959799909294969850565b60016020528160005260406000208181548110617d4257fe5b906000526020600020906007020160009150915050806000015490806001018054600181600116156101000203166002900480601f016020809104026020016040519081016040528092919081815260200182805460018160011615610100020316600290048015617df55780601f10617dca57610100808354040283529160200191617df5565b820191906000526020600020905b815481529060010190602001808311617dd857829003601f168201915b505050505090806002018054600181600116156101000203166002900480601f016020809104026020016040519081016040528092919081815260200182805460018160011615610100020316600290048015617e935780601f10617e6857610100808354040283529160200191617e93565b820191906000526020600020905b815481529060010190602001808311617e7657829003601f168201915b505050505090806003015490806004015490806005018054600181600116156101000203166002900480601f016020809104026020016040519081016040528092919081815260200182805460018160011615610100020316600290048015617f3d5780601f10617f1257610100808354040283529160200191617f3d565b820191906000526020600020905b815481529060010190602001808311617f2057829003601f168201915b5050505050908060060160009054906101000a900473ffffffffffffffffffffffffffffffffffffffff16905087565b600c60009054906101000a900473ffffffffffffffffffffffffffffffffffffffff1681565b6040518060e00160405280600081526020016060815260200160608152602001600081526020016000815260200160608152602001600073ffffffffffffffffffffffffffffffffffffffff1681525090565b6040518061012001604052806000815260200160608152602001606081526020016060815260200160608152602001600073ffffffffffffffffffffffffffffffffffffffff16815260200160008152602001600015158152602001606081525090565b828054600181600116156101000203166002900490600052602060002090601f016020900481019282601f1061808b57805160ff19168380011785556180b9565b828001600101855582156180b9579182015b828111156180b857825182559160200191906001019061809d565b5b5090506180c691906180fc565b5090565b8154818355818111156180f7576007028160070283600052602060002091820191016180f69190618121565b5b505050565b61811e91905b8082111561811a576000816000905550600101618102565b5090565b90565b6181ac91905b808211156181a85760008082016000905560018201600061814891906181af565b60028201600061815891906181af565b6003820160009055600482016000905560058201600061817891906181af565b6006820160006101000a81549073ffffffffffffffffffffffffffffffffffffffff021916905550600701618127565b5090565b90565b50805460018160011615610100020316600290046000825580601f106181d557506181f4565b601f0160209004906000526020600020908101906181f391906180fc565b5b5056fe4f6e6c79207468652073656c6c65722063616e206d61726b20746865206f7264657220617320636f6d706c6574656454686520626f6f6b206d75737420657869737420746f20626520707572636861736564546865207061796d656e74206d75737420626520657175616c20746f2074686520626f6f6b207072696365a265627a7a723158206cee67b95eabe4f8ec31bd449940527bbd3e03c96e13901fad1131c7cc413b6b64736f6c63430005100032",
  "source": "pragma solidity ^0.5.0;\r\n\r\nimport './Token.sol';\r\n\r\ncontract BookToken is ERC721 {\r\n    address public book;\r\n    bool public isBookSet = false;\r\n    // To generate a new token for the specified address\r\n    //  _to The receiver of this new token\r\n    //  _tokenId The new token id, must be unique\r\n    function mint(address _to, uint256 _tokenId) public {\r\n        require(msg.sender == book, 'Only the Book contract can mint new tokens');\r\n        _mint(_to, _tokenId);\r\n    }\r\n\r\n    // To set the book smart contract address\r\n    function setBook(address _book) public {\r\n        require(!isBookSet, 'The buyer-seller address can only be set once');\r\n        require(_book != address(0), 'The book address cannot be empty');\r\n        isBookSet = true;\r\n        book = _book;\r\n    }\r\n}\r\n\r\ncontract BookStore {\r\n    struct Book{\r\n        uint256 id;\r\n        string title;\r\n        string isbn;\r\n        string author;\r\n        string category;\r\n        address payable owner; \r\n        uint256 price;\r\n        bool forSale;\r\n        string image;\r\n    }\r\n    struct Order {\r\n        uint256 id;\r\n        string name;\r\n        string deliveryAddress;\r\n        uint256 postalCode;\r\n        uint256 phone;\r\n        string state; // Either 'pending', 'completed'\r\n        address customer;\r\n    }\r\n    \r\n    mapping(address => Book[]) public sellerProducts; // Seller address => books ; The books added by the seller \r\n    mapping(address => Order[]) public pendingSellerOrders; // Seller address => orders ; The books waiting to be fulfilled by the seller, used by sellers to check which orders have to be fulfilled\r\n    mapping(address => Order[]) public pendingBuyerOrders; //Buyer address => orders ;The books that the buyer purchased waiting to be sent\r\n    mapping(address => Order[]) public completedSellerOrders; // Seller address => orders  A history of past orders fulfilled by the seller\r\n    mapping(address => Order[]) public completedBuyerOrders; // Buyer address => orders A history of past orders made by this buyer\r\n    mapping(uint256 => Book) public bookById; // Book id => book\r\n    mapping(uint256 => address[]) public previousOwners; // Book id => previousOwners\r\n    mapping(uint256 => Order) public orderById; // book id => order\r\n    mapping(uint256 => bool) public bookExists; // Book id => true or false\r\n    Book[] public books;\r\n    Order[] public orders;\r\n    uint256 public lastId;\r\n    address public token;\r\n    uint256 public lastPendingSellerOrder;\r\n    uint256 public lastPendingBuyerOrder;\r\n\r\n    constructor(address _token) public {\r\n        token = _token;\r\n    }\r\n    \r\n    function addBook(string memory _title, string memory _isbn, string memory _author, string memory _category, uint256 _price, bool _forSale, string memory _image) public{\r\n        require(bytes(_title).length>0,'Book Name is necessary');\r\n        require(bytes(_isbn).length>0,'ISBN is necessary');\r\n        require(bytes(_author).length>0,'Author Name is necessary');\r\n        require(_price>0,'Price is necessary');\r\n        if(!(_forSale)) _forSale = false;\r\n        address payable owner = msg.sender;\r\n\r\n        Book memory b = Book(lastId,_title,_isbn,_author,_category,owner,_price,_forSale,_image);\r\n        books.push(b);\r\n        sellerProducts[msg.sender].push(b);\r\n        bookById[lastId]=b;\r\n        bookExists[lastId]=true;\r\n        BookToken(token).mint(address(this),lastId); // New token for this book owned by the contract until sold.\r\n        lastId+=1;\r\n    }\r\n\r\n    function sellBook(uint256 _id) public{\r\n        require(_id>=0,'ID is necessary');\r\n        bookById[_id].forSale=true;\r\n    }\r\n\r\n\r\n\r\n    function buyBook(uint256 _id, string memory _name, string memory _deliveryAddress, uint256 _postalCode, uint256 _phone) public payable {\r\n        require(bookExists[_id], 'The book must exist to be purchased');\r\n        require(bytes(_name).length > 0, 'The name must be set');\r\n        require(bytes(_deliveryAddress).length > 0, 'The Delivery Address must be set');\r\n        require(_postalCode > 0, 'The postal code must be set');\r\n        require(_phone > 0, 'The Phone Number must be set');\r\n\r\n        Book memory b = bookById[_id]; //Need to retrieve the book by it's id. \r\n        Order memory newOrder = Order(_id, _name, _deliveryAddress, _postalCode, _phone, 'pending',msg.sender);\r\n        require(msg.value >= b.price, \"The payment must be equal to the book price\");\r\n\r\n        pendingSellerOrders[b.owner].push(newOrder);\r\n        pendingBuyerOrders[msg.sender].push(newOrder);\r\n        orders.push(newOrder);\r\n        orderById[_id] = newOrder;\r\n        lastPendingSellerOrder = pendingSellerOrders[b.owner].length > 0 ? pendingSellerOrders[b.owner].length - 1 : 0;\r\n        lastPendingBuyerOrder = pendingBuyerOrders[b.owner].length > 0 ? pendingBuyerOrders[b.owner].length - 1 : 0;\r\n        BookToken(token).transferFrom(b.owner, msg.sender, _id); // Transfer the book token to the new owner\r\n        b.owner.transfer(b.price);\r\n    }\r\n\r\n    function markOrderCompleted(uint256 _id) public {\r\n        Order memory order = orderById[_id];\r\n        Book memory book = bookById[_id];\r\n        require(book.owner == msg.sender, 'Only the seller can mark the order as completed');\r\n        order.state = 'completed';\r\n        address customer = order.customer;\r\n        // Delete the seller order from the array of pending orders\r\n        for(uint256 i = 0; i < pendingSellerOrders[book.owner].length; i++) {\r\n            if(pendingSellerOrders[book.owner][i].id == _id) {\r\n                Order memory lastElement = orderById[lastPendingSellerOrder];\r\n                pendingSellerOrders[book.owner][i] = lastElement;\r\n                pendingSellerOrders[book.owner].length--;\r\n                lastPendingSellerOrder--;\r\n            }\r\n        }\r\n        // Delete the seller order from the array of pending orders\r\n        for(uint256 i = 0; i < pendingBuyerOrders[msg.sender].length; i++) {\r\n            if(pendingBuyerOrders[msg.sender][i].id == order.id) {\r\n                Order memory lastElement = orderById[lastPendingBuyerOrder];\r\n                pendingBuyerOrders[msg.sender][i] = lastElement;\r\n                pendingBuyerOrders[msg.sender].length--;\r\n                lastPendingBuyerOrder--;\r\n            }\r\n        }\r\n        completedSellerOrders[book.owner].push(order);\r\n        completedBuyerOrders[msg.sender].push(order);\r\n        orderById[_id] = order;\r\n        book.owner = address(uint160(customer));\r\n        previousOwners[_id].push(msg.sender);\r\n    }\r\n\r\n    function getBookIds(uint256 _limit) public view returns(uint256[] memory) {\r\n        \r\n        uint256 length = books.length;\r\n        uint256 counter = (_limit > length) ? length : _limit; // If you're requesting more books than available, return only the available\r\n        uint256 condition = (_limit > length) ? 0 : (length - _limit); \r\n        uint256[] memory ids = new uint256[](_limit > length ? _limit : length);\r\n        uint256 increment = 0;\r\n        // Loop backwards to get the most recent products first\r\n        for(int256 i = int256(counter); i >= int256(condition); i--) {\r\n            ids[increment] = books[uint256(i)].id;\r\n        }\r\n        return ids;\r\n    }\r\n\r\n    function getBook(uint256 _id) public view returns(uint256 id, string memory title, string memory isbn, string memory author, string memory category, address payable owner,uint256 price,bool forSale ,string memory image) {\r\n        Book memory b = bookById[_id];\r\n        id = b.id;\r\n        title = b.title;\r\n        isbn = b.isbn;\r\n        author = b.author;\r\n        category = b.category;\r\n        owner = b.owner;\r\n        price = b.price;\r\n        forSale = b.forSale;\r\n        image = b.image;\r\n    }\r\n\r\n    function getBookIds(string memory _type, uint256 _limit) public view returns(uint256[] memory) {\r\n        uint256 length;\r\n        uint256 counter;\r\n        uint256 condition;\r\n        uint256[] memory ids;\r\n        uint256 increment = 0;\r\n        address _owner = msg.sender;\r\n\r\n        if(compareStrings(_type, 'pending-seller')) {\r\n            length = pendingSellerOrders[_owner].length;\r\n            counter = (_limit > length) ? length : _limit;\r\n            condition = (_limit > length) ? 0 : (length - _limit);\r\n            ids = new uint256[](_limit > length ? _limit : length);\r\n            for(int256 i = int256(counter); i >= int256(condition); i--) {\r\n                ids[increment] = uint256(pendingSellerOrders[_owner][uint256(i)].id);\r\n            }\r\n        } else if(compareStrings(_type, 'pending-buyer')) {\r\n            length = pendingBuyerOrders[_owner].length;\r\n            counter = (_limit > length) ? length : _limit;\r\n            condition = (_limit > length) ? 0 : (length - _limit);\r\n            ids = new uint256[](_limit > length ? _limit : length);\r\n            for(int256 i = int256(counter); i >= int256(condition); i--) {\r\n                ids[increment] = uint256(pendingBuyerOrders[_owner][uint256(i)].id);\r\n            }\r\n        } else if(compareStrings(_type, 'completed-seller')) {\r\n            length = completedSellerOrders[_owner].length;\r\n            counter = (_limit > length) ? length : _limit;\r\n            condition = (_limit > length) ? 0 : (length - _limit);\r\n            ids = new uint256[](_limit > length ? _limit : length);\r\n            for(int256 i = int256(counter); i >= int256(condition); i--) {\r\n                ids[increment] = uint256(completedSellerOrders[_owner][uint256(i)].id);\r\n            }\r\n        } else if(compareStrings(_type, 'completed-buyer')) {\r\n            length = completedBuyerOrders[_owner].length;\r\n            counter = (_limit > length) ? length : _limit;\r\n            condition = (_limit > length) ? 0 : (length - _limit);\r\n            ids = new uint256[](_limit > length ? _limit : length);\r\n            for(int256 i = int256(counter); i >= int256(condition); i--) {\r\n                ids[increment] = uint256(completedBuyerOrders[_owner][uint256(i)].id);\r\n            }\r\n        }\r\n\r\n        return ids;\r\n    }\r\n\r\n    function getOrder(string memory _type, uint256 _id) public view returns(uint256 id, string memory name, string memory deliveryAddress, uint256 postalCode, uint256 phone, string memory state,address customer) {\r\n        Order memory o;\r\n        address _owner = msg.sender;\r\n        if(compareStrings(_type, 'pending-seller')) {\r\n            o = pendingSellerOrders[_owner][_id];\r\n        } else if(compareStrings(_type, 'pending-buyer')) {\r\n            o = pendingBuyerOrders[_owner][_id];\r\n        } else if(compareStrings(_type, 'completed-seller')) {\r\n            o = completedSellerOrders[_owner][_id];\r\n        } else if(compareStrings(_type, 'completed-buyer')) {\r\n            o = completedBuyerOrders[_owner][_id];\r\n        }\r\n\r\n        id = o.id;\r\n        name = o.name;\r\n        deliveryAddress = o.deliveryAddress;\r\n        postalCode = o.postalCode;\r\n        phone = o.phone;\r\n        state = o.state;\r\n        customer = o.customer;\r\n    }\r\n\r\n\r\n    function compareStrings(string memory a, string memory b) public pure returns (bool) {\r\n       return keccak256(abi.encodePacked(a)) == keccak256(abi.encodePacked(b));\r\n    }\r\n\r\n}",
  "sourcePath": "C:/Users/samee/OneDrive/Desktop/Blockchain-Buyer-Seller-Market-BC_Team_6/contracts/BookStore.sol",
  "compiler": {
    "name": "solc",
    "version": "0.5.16+commit.9c3226ce.Emscripten.clang"
  },
  "schemaVersion": "3.3.4",
  "updatedAt": "2021-03-29T10:19:53.347Z",
  "devdoc": {
    "methods": {}
  },
  "userdoc": {
    "methods": {}
  }
}