{
  "contractName": "BookStore",
  "abi": [
    {
      "constant": true,
      "inputs": [
        {
          "internalType": "bytes32",
          "name": "",
          "type": "bytes32"
        }
      ],
      "name": "bookById",
      "outputs": [
        {
          "internalType": "bytes32",
          "name": "id",
          "type": "bytes32"
        },
        {
          "internalType": "string",
          "name": "title",
          "type": "string"
        },
        {
          "internalType": "string",
          "name": "isbn",
          "type": "string"
        },
        {
          "internalType": "string",
          "name": "author",
          "type": "string"
        },
        {
          "internalType": "string",
          "name": "category",
          "type": "string"
        },
        {
          "internalType": "address payable",
          "name": "owner",
          "type": "address"
        },
        {
          "internalType": "uint256",
          "name": "price",
          "type": "uint256"
        },
        {
          "internalType": "bool",
          "name": "forSale",
          "type": "bool"
        },
        {
          "internalType": "string",
          "name": "image",
          "type": "string"
        }
      ],
      "payable": false,
      "stateMutability": "view",
      "type": "function"
    },
    {
      "constant": true,
      "inputs": [
        {
          "internalType": "bytes32",
          "name": "",
          "type": "bytes32"
        }
      ],
      "name": "bookExists",
      "outputs": [
        {
          "internalType": "bool",
          "name": "",
          "type": "bool"
        }
      ],
      "payable": false,
      "stateMutability": "view",
      "type": "function"
    },
    {
      "constant": true,
      "inputs": [
        {
          "internalType": "uint256",
          "name": "",
          "type": "uint256"
        }
      ],
      "name": "books",
      "outputs": [
        {
          "internalType": "bytes32",
          "name": "",
          "type": "bytes32"
        }
      ],
      "payable": false,
      "stateMutability": "view",
      "type": "function"
    },
    {
      "constant": true,
      "inputs": [
        {
          "internalType": "bytes32",
          "name": "",
          "type": "bytes32"
        }
      ],
      "name": "booksForSale",
      "outputs": [
        {
          "internalType": "bytes32",
          "name": "",
          "type": "bytes32"
        }
      ],
      "payable": false,
      "stateMutability": "view",
      "type": "function"
    },
    {
      "constant": true,
      "inputs": [
        {
          "internalType": "address",
          "name": "",
          "type": "address"
        },
        {
          "internalType": "bytes32",
          "name": "",
          "type": "bytes32"
        }
      ],
      "name": "completedBuyerOrders",
      "outputs": [
        {
          "internalType": "bytes32",
          "name": "",
          "type": "bytes32"
        }
      ],
      "payable": false,
      "stateMutability": "view",
      "type": "function"
    },
    {
      "constant": true,
      "inputs": [
        {
          "internalType": "address",
          "name": "",
          "type": "address"
        },
        {
          "internalType": "bytes32",
          "name": "",
          "type": "bytes32"
        }
      ],
      "name": "completedSellerOrders",
      "outputs": [
        {
          "internalType": "bytes32",
          "name": "",
          "type": "bytes32"
        }
      ],
      "payable": false,
      "stateMutability": "view",
      "type": "function"
    },
    {
      "constant": true,
      "inputs": [],
      "name": "lastId",
      "outputs": [
        {
          "internalType": "uint256",
          "name": "",
          "type": "uint256"
        }
      ],
      "payable": false,
      "stateMutability": "view",
      "type": "function"
    },
    {
      "constant": true,
      "inputs": [],
      "name": "lastPendingBuyerOrder",
      "outputs": [
        {
          "internalType": "uint256",
          "name": "",
          "type": "uint256"
        }
      ],
      "payable": false,
      "stateMutability": "view",
      "type": "function"
    },
    {
      "constant": true,
      "inputs": [],
      "name": "lastPendingSellerOrder",
      "outputs": [
        {
          "internalType": "uint256",
          "name": "",
          "type": "uint256"
        }
      ],
      "payable": false,
      "stateMutability": "view",
      "type": "function"
    },
    {
      "constant": true,
      "inputs": [
        {
          "internalType": "bytes32",
          "name": "",
          "type": "bytes32"
        }
      ],
      "name": "orderById",
      "outputs": [
        {
          "internalType": "bytes32",
          "name": "id",
          "type": "bytes32"
        },
        {
          "internalType": "bytes32",
          "name": "bookId",
          "type": "bytes32"
        },
        {
          "internalType": "string",
          "name": "name",
          "type": "string"
        },
        {
          "internalType": "string",
          "name": "deliveryAddress",
          "type": "string"
        },
        {
          "internalType": "uint256",
          "name": "postalCode",
          "type": "uint256"
        },
        {
          "internalType": "uint256",
          "name": "phone",
          "type": "uint256"
        },
        {
          "internalType": "string",
          "name": "state",
          "type": "string"
        },
        {
          "internalType": "address",
          "name": "customer",
          "type": "address"
        }
      ],
      "payable": false,
      "stateMutability": "view",
      "type": "function"
    },
    {
      "constant": true,
      "inputs": [
        {
          "internalType": "uint256",
          "name": "",
          "type": "uint256"
        }
      ],
      "name": "orders",
      "outputs": [
        {
          "internalType": "bytes32",
          "name": "",
          "type": "bytes32"
        }
      ],
      "payable": false,
      "stateMutability": "view",
      "type": "function"
    },
    {
      "constant": true,
      "inputs": [
        {
          "internalType": "address",
          "name": "",
          "type": "address"
        },
        {
          "internalType": "bytes32",
          "name": "",
          "type": "bytes32"
        }
      ],
      "name": "ownerProducts",
      "outputs": [
        {
          "internalType": "bytes32",
          "name": "",
          "type": "bytes32"
        }
      ],
      "payable": false,
      "stateMutability": "view",
      "type": "function"
    },
    {
      "constant": true,
      "inputs": [
        {
          "internalType": "address",
          "name": "",
          "type": "address"
        },
        {
          "internalType": "bytes32",
          "name": "",
          "type": "bytes32"
        }
      ],
      "name": "pendingBuyerOrders",
      "outputs": [
        {
          "internalType": "bytes32",
          "name": "",
          "type": "bytes32"
        }
      ],
      "payable": false,
      "stateMutability": "view",
      "type": "function"
    },
    {
      "constant": true,
      "inputs": [
        {
          "internalType": "address",
          "name": "",
          "type": "address"
        },
        {
          "internalType": "bytes32",
          "name": "",
          "type": "bytes32"
        }
      ],
      "name": "pendingSellerOrders",
      "outputs": [
        {
          "internalType": "bytes32",
          "name": "",
          "type": "bytes32"
        }
      ],
      "payable": false,
      "stateMutability": "view",
      "type": "function"
    },
    {
      "constant": true,
      "inputs": [
        {
          "internalType": "bytes32",
          "name": "",
          "type": "bytes32"
        },
        {
          "internalType": "uint256",
          "name": "",
          "type": "uint256"
        }
      ],
      "name": "previousOwners",
      "outputs": [
        {
          "internalType": "address",
          "name": "",
          "type": "address"
        }
      ],
      "payable": false,
      "stateMutability": "view",
      "type": "function"
    },
    {
      "constant": true,
      "inputs": [],
      "name": "token",
      "outputs": [
        {
          "internalType": "address",
          "name": "",
          "type": "address"
        }
      ],
      "payable": false,
      "stateMutability": "view",
      "type": "function"
    },
    {
      "constant": true,
      "inputs": [
        {
          "internalType": "address",
          "name": "",
          "type": "address"
        },
        {
          "internalType": "uint256",
          "name": "",
          "type": "uint256"
        }
      ],
      "name": "userOrders",
      "outputs": [
        {
          "internalType": "bytes32",
          "name": "",
          "type": "bytes32"
        }
      ],
      "payable": false,
      "stateMutability": "view",
      "type": "function"
    },
    {
      "constant": false,
      "inputs": [
        {
          "internalType": "string",
          "name": "_title",
          "type": "string"
        },
        {
          "internalType": "string",
          "name": "_isbn",
          "type": "string"
        },
        {
          "internalType": "string",
          "name": "_author",
          "type": "string"
        },
        {
          "internalType": "string",
          "name": "_category",
          "type": "string"
        },
        {
          "internalType": "uint256",
          "name": "_price",
          "type": "uint256"
        },
        {
          "internalType": "bool",
          "name": "_forSale",
          "type": "bool"
        },
        {
          "internalType": "string",
          "name": "_image",
          "type": "string"
        }
      ],
      "name": "addBook",
      "outputs": [],
      "payable": false,
      "stateMutability": "nonpayable",
      "type": "function"
    },
    {
      "constant": false,
      "inputs": [
        {
          "internalType": "bytes32",
          "name": "_id",
          "type": "bytes32"
        }
      ],
      "name": "sellBook",
      "outputs": [],
      "payable": false,
      "stateMutability": "nonpayable",
      "type": "function"
    },
    {
      "constant": false,
      "inputs": [
        {
          "internalType": "bytes32",
          "name": "_id",
          "type": "bytes32"
        },
        {
          "internalType": "string",
          "name": "_name",
          "type": "string"
        },
        {
          "internalType": "string",
          "name": "_deliveryAddress",
          "type": "string"
        },
        {
          "internalType": "uint256",
          "name": "_postalCode",
          "type": "uint256"
        },
        {
          "internalType": "uint256",
          "name": "_phone",
          "type": "uint256"
        }
      ],
      "name": "buyBook",
      "outputs": [],
      "payable": true,
      "stateMutability": "payable",
      "type": "function"
    },
    {
      "constant": false,
      "inputs": [
        {
          "internalType": "bytes32",
          "name": "_id",
          "type": "bytes32"
        }
      ],
      "name": "markOrderCompleted",
      "outputs": [],
      "payable": false,
      "stateMutability": "nonpayable",
      "type": "function"
    },
    {
      "constant": true,
      "inputs": [
        {
          "internalType": "int256",
          "name": "_limit",
          "type": "int256"
        }
      ],
      "name": "getBooksIds",
      "outputs": [
        {
          "internalType": "bytes32[]",
          "name": "",
          "type": "bytes32[]"
        }
      ],
      "payable": false,
      "stateMutability": "view",
      "type": "function"
    },
    {
      "constant": true,
      "inputs": [
        {
          "internalType": "bytes32",
          "name": "_id",
          "type": "bytes32"
        }
      ],
      "name": "getBook",
      "outputs": [
        {
          "internalType": "bytes32",
          "name": "id",
          "type": "bytes32"
        },
        {
          "internalType": "string",
          "name": "title",
          "type": "string"
        },
        {
          "internalType": "string",
          "name": "isbn",
          "type": "string"
        },
        {
          "internalType": "string",
          "name": "author",
          "type": "string"
        },
        {
          "internalType": "string",
          "name": "category",
          "type": "string"
        },
        {
          "internalType": "address payable",
          "name": "owner",
          "type": "address"
        },
        {
          "internalType": "uint256",
          "name": "price",
          "type": "uint256"
        },
        {
          "internalType": "bool",
          "name": "forSale",
          "type": "bool"
        },
        {
          "internalType": "string",
          "name": "image",
          "type": "string"
        }
      ],
      "payable": false,
      "stateMutability": "view",
      "type": "function"
    },
    {
      "constant": true,
      "inputs": [
        {
          "internalType": "string",
          "name": "_type",
          "type": "string"
        }
      ],
      "name": "getOrders",
      "outputs": [
        {
          "internalType": "bytes32[]",
          "name": "",
          "type": "bytes32[]"
        }
      ],
      "payable": false,
      "stateMutability": "view",
      "type": "function"
    },
    {
      "constant": true,
      "inputs": [
        {
          "internalType": "bytes32",
          "name": "id",
          "type": "bytes32"
        }
      ],
      "name": "getOrderById",
      "outputs": [
        {
          "internalType": "bytes32",
          "name": "orderId",
          "type": "bytes32"
        },
        {
          "internalType": "string",
          "name": "name",
          "type": "string"
        },
        {
          "internalType": "string",
          "name": "deliveryAddress",
          "type": "string"
        },
        {
          "internalType": "uint256",
          "name": "postalCode",
          "type": "uint256"
        },
        {
          "internalType": "uint256",
          "name": "phone",
          "type": "uint256"
        },
        {
          "internalType": "string",
          "name": "state",
          "type": "string"
        },
        {
          "internalType": "address",
          "name": "customer",
          "type": "address"
        }
      ],
      "payable": false,
      "stateMutability": "view",
      "type": "function"
    },
    {
      "constant": true,
      "inputs": [
        {
          "internalType": "string",
          "name": "a",
          "type": "string"
        },
        {
          "internalType": "string",
          "name": "b",
          "type": "string"
        }
      ],
      "name": "compareStrings",
      "outputs": [
        {
          "internalType": "bool",
          "name": "",
          "type": "bool"
        }
      ],
      "payable": false,
      "stateMutability": "pure",
      "type": "function"
    }
  ],
  "bytecode": "0x608060405234801561001057600080fd5b50614fb3806100206000396000f3fe6080604052600436106101815760003560e01c80638d2f854b116100d1578063bed34bba1161008a578063d8bd3bed11610064578063d8bd3bed14611327578063db83104214611362578063f42e76991461169c578063fc0c546a146117b957610181565b8063bed34bba14611116578063c1292cc31461128d578063d43010d5146112b857610181565b80638d2f854b14610b665780639a1e67b514610ba1578063a2e1dc2214610bf4578063a639912914610c43578063a85c38ef14610e17578063ad1a7d0c14610e6657610181565b806363a52ef91161013e57806368756f731161011857806368756f73146109cd57806369ec8d24146109f8578063856652e914610a6757806387e9842a14610ad657610181565b806363a52ef91461071e5780636608484c146108f9578063687440461461097e57610181565b8063011407b11461018657806302949a0a146101f55780631e02063f1461022057806324042828146104d0578063299f438f1461053f57806332b451e6146106af575b600080fd5b34801561019257600080fd5b506101df600480360360408110156101a957600080fd5b81019080803573ffffffffffffffffffffffffffffffffffffffff16906020019092919080359060200190929190505050611810565b6040518082815260200191505060405180910390f35b34801561020157600080fd5b5061020a611835565b6040518082815260200191505060405180910390f35b34801561022c57600080fd5b506102596004803603602081101561024357600080fd5b810190808035906020019092919050505061183b565b604051808a8152602001806020018060200180602001806020018973ffffffffffffffffffffffffffffffffffffffff1673ffffffffffffffffffffffffffffffffffffffff168152602001888152602001871515151581526020018060200186810386528e818151815260200191508051906020019080838360005b838110156102f15780820151818401526020810190506102d6565b50505050905090810190601f16801561031e5780820380516001836020036101000a031916815260200191505b5086810385528d818151815260200191508051906020019080838360005b8381101561035757808201518184015260208101905061033c565b50505050905090810190601f1680156103845780820380516001836020036101000a031916815260200191505b5086810384528c818151815260200191508051906020019080838360005b838110156103bd5780820151818401526020810190506103a2565b50505050905090810190601f1680156103ea5780820380516001836020036101000a031916815260200191505b5086810383528b818151815260200191508051906020019080838360005b83811015610423578082015181840152602081019050610408565b50505050905090810190601f1680156104505780820380516001836020036101000a031916815260200191505b50868103825287818151815260200191508051906020019080838360005b8381101561048957808201518184015260208101905061046e565b50505050905090810190601f1680156104b65780820380516001836020036101000a031916815260200191505b509e50505050505050505050505050505060405180910390f35b3480156104dc57600080fd5b50610529600480360360408110156104f357600080fd5b81019080803573ffffffffffffffffffffffffffffffffffffffff16906020019092919080359060200190929190505050611bae565b6040518082815260200191505060405180910390f35b6106ad600480360360a081101561055557600080fd5b81019080803590602001909291908035906020019064010000000081111561057c57600080fd5b82018360208201111561058e57600080fd5b803590602001918460018302840111640100000000831117156105b057600080fd5b91908080601f016020809104026020016040519081016040528093929190818152602001838380828437600081840152601f19601f8201169050808301925050505050505091929192908035906020019064010000000081111561061357600080fd5b82018360208201111561062557600080fd5b8035906020019184600183028401116401000000008311171561064757600080fd5b91908080601f016020809104026020016040519081016040528093929190818152602001838380828437600081840152601f19601f8201169050808301925050505050505091929192908035906020019092919080359060200190929190505050611bd3565b005b3480156106bb57600080fd5b50610708600480360360408110156106d257600080fd5b81019080803573ffffffffffffffffffffffffffffffffffffffff16906020019092919080359060200190929190505050612787565b6040518082815260200191505060405180910390f35b34801561072a57600080fd5b506107576004803603602081101561074157600080fd5b81019080803590602001909291905050506127ac565b604051808981526020018881526020018060200180602001878152602001868152602001806020018573ffffffffffffffffffffffffffffffffffffffff1673ffffffffffffffffffffffffffffffffffffffff16815260200184810384528a818151815260200191508051906020019080838360005b838110156107e95780820151818401526020810190506107ce565b50505050905090810190601f1680156108165780820380516001836020036101000a031916815260200191505b50848103835289818151815260200191508051906020019080838360005b8381101561084f578082015181840152602081019050610834565b50505050905090810190601f16801561087c5780820380516001836020036101000a031916815260200191505b50848103825286818151815260200191508051906020019080838360005b838110156108b557808201518184015260208101905061089a565b50505050905090810190601f1680156108e25780820380516001836020036101000a031916815260200191505b509b50505050505050505050505060405180910390f35b34801561090557600080fd5b5061093c6004803603604081101561091c57600080fd5b8101908080359060200190929190803590602001909291905050506129dc565b604051808273ffffffffffffffffffffffffffffffffffffffff1673ffffffffffffffffffffffffffffffffffffffff16815260200191505060405180910390f35b34801561098a57600080fd5b506109b7600480360360208110156109a157600080fd5b8101908080359060200190929190505050612a27565b6040518082815260200191505060405180910390f35b3480156109d957600080fd5b506109e2612a48565b6040518082815260200191505060405180910390f35b348015610a0457600080fd5b50610a5160048036036040811015610a1b57600080fd5b81019080803573ffffffffffffffffffffffffffffffffffffffff16906020019092919080359060200190929190505050612a4e565b6040518082815260200191505060405180910390f35b348015610a7357600080fd5b50610ac060048036036040811015610a8a57600080fd5b81019080803573ffffffffffffffffffffffffffffffffffffffff16906020019092919080359060200190929190505050612a73565b6040518082815260200191505060405180910390f35b348015610ae257600080fd5b50610b0f60048036036020811015610af957600080fd5b8101908080359060200190929190505050612aa1565b6040518080602001828103825283818151815260200191508051906020019060200280838360005b83811015610b52578082015181840152602081019050610b37565b505050509050019250505060405180910390f35b348015610b7257600080fd5b50610b9f60048036036020811015610b8957600080fd5b8101908080359060200190929190505050612b6d565b005b348015610bad57600080fd5b50610bda60048036036020811015610bc457600080fd5b8101908080359060200190929190505050613609565b604051808215151515815260200191505060405180910390f35b348015610c0057600080fd5b50610c2d60048036036020811015610c1757600080fd5b8101908080359060200190929190505050613629565b6040518082815260200191505060405180910390f35b348015610c4f57600080fd5b50610c7c60048036036020811015610c6657600080fd5b8101908080359060200190929190505050613641565b604051808881526020018060200180602001878152602001868152602001806020018573ffffffffffffffffffffffffffffffffffffffff1673ffffffffffffffffffffffffffffffffffffffff16815260200184810384528a818151815260200191508051906020019080838360005b83811015610d08578082015181840152602081019050610ced565b50505050905090810190601f168015610d355780820380516001836020036101000a031916815260200191505b50848103835289818151815260200191508051906020019080838360005b83811015610d6e578082015181840152602081019050610d53565b50505050905090810190601f168015610d9b5780820380516001836020036101000a031916815260200191505b50848103825286818151815260200191508051906020019080838360005b83811015610dd4578082015181840152602081019050610db9565b50505050905090810190601f168015610e015780820380516001836020036101000a031916815260200191505b509a505050505050505050505060405180910390f35b348015610e2357600080fd5b50610e5060048036036020811015610e3a57600080fd5b8101908080359060200190929190505050613917565b6040518082815260200191505060405180910390f35b348015610e7257600080fd5b50610e9f60048036036020811015610e8957600080fd5b8101908080359060200190929190505050613938565b604051808a8152602001806020018060200180602001806020018973ffffffffffffffffffffffffffffffffffffffff1673ffffffffffffffffffffffffffffffffffffffff168152602001888152602001871515151581526020018060200186810386528e818151815260200191508051906020019080838360005b83811015610f37578082015181840152602081019050610f1c565b50505050905090810190601f168015610f645780820380516001836020036101000a031916815260200191505b5086810385528d818151815260200191508051906020019080838360005b83811015610f9d578082015181840152602081019050610f82565b50505050905090810190601f168015610fca5780820380516001836020036101000a031916815260200191505b5086810384528c818151815260200191508051906020019080838360005b83811015611003578082015181840152602081019050610fe8565b50505050905090810190601f1680156110305780820380516001836020036101000a031916815260200191505b5086810383528b818151815260200191508051906020019080838360005b8381101561106957808201518184015260208101905061104e565b50505050905090810190601f1680156110965780820380516001836020036101000a031916815260200191505b50868103825287818151815260200191508051906020019080838360005b838110156110cf5780820151818401526020810190506110b4565b50505050905090810190601f1680156110fc5780820380516001836020036101000a031916815260200191505b509e50505050505050505050505050505060405180910390f35b34801561112257600080fd5b506112736004803603604081101561113957600080fd5b810190808035906020019064010000000081111561115657600080fd5b82018360208201111561116857600080fd5b8035906020019184600183028401116401000000008311171561118a57600080fd5b91908080601f016020809104026020016040519081016040528093929190818152602001838380828437600081840152601f19601f820116905080830192505050505050509192919290803590602001906401000000008111156111ed57600080fd5b8201836020820111156111ff57600080fd5b8035906020019184600183028401116401000000008311171561122157600080fd5b91908080601f016020809104026020016040519081016040528093929190818152602001838380828437600081840152601f19601f820116905080830192505050505050509192919290505050613d6d565b604051808215151515815260200191505060405180910390f35b34801561129957600080fd5b506112a2613e5c565b6040518082815260200191505060405180910390f35b3480156112c457600080fd5b50611311600480360360408110156112db57600080fd5b81019080803573ffffffffffffffffffffffffffffffffffffffff16906020019092919080359060200190929190505050613e62565b6040518082815260200191505060405180910390f35b34801561133357600080fd5b506113606004803603602081101561134a57600080fd5b8101908080359060200190929190505050613e87565b005b34801561136e57600080fd5b5061169a600480360360e081101561138557600080fd5b81019080803590602001906401000000008111156113a257600080fd5b8201836020820111156113b457600080fd5b803590602001918460018302840111640100000000831117156113d657600080fd5b91908080601f016020809104026020016040519081016040528093929190818152602001838380828437600081840152601f19601f8201169050808301925050505050505091929192908035906020019064010000000081111561143957600080fd5b82018360208201111561144b57600080fd5b8035906020019184600183028401116401000000008311171561146d57600080fd5b91908080601f016020809104026020016040519081016040528093929190818152602001838380828437600081840152601f19601f820116905080830192505050505050509192919290803590602001906401000000008111156114d057600080fd5b8201836020820111156114e257600080fd5b8035906020019184600183028401116401000000008311171561150457600080fd5b91908080601f016020809104026020016040519081016040528093929190818152602001838380828437600081840152601f19601f8201169050808301925050505050505091929192908035906020019064010000000081111561156757600080fd5b82018360208201111561157957600080fd5b8035906020019184600183028401116401000000008311171561159b57600080fd5b91908080601f016020809104026020016040519081016040528093929190818152602001838380828437600081840152601f19601f820116905080830192505050505050509192919290803590602001909291908035151590602001909291908035906020019064010000000081111561161457600080fd5b82018360208201111561162657600080fd5b8035906020019184600183028401116401000000008311171561164857600080fd5b91908080601f016020809104026020016040519081016040528093929190818152602001838380828437600081840152601f19601f820116905080830192505050505050509192919290505050613f6b565b005b3480156116a857600080fd5b50611762600480360360208110156116bf57600080fd5b81019080803590602001906401000000008111156116dc57600080fd5b8201836020820111156116ee57600080fd5b8035906020019184600183028401116401000000008311171561171057600080fd5b91908080601f016020809104026020016040519081016040528093929190818152602001838380828437600081840152601f19601f820116905080830192505050505050509192919290505050614616565b6040518080602001828103825283818151815260200191508051906020019060200280838360005b838110156117a557808201518184015260208101905061178a565b505050509050019250505060405180910390f35b3480156117c557600080fd5b506117ce614d6e565b604051808273ffffffffffffffffffffffffffffffffffffffff1673ffffffffffffffffffffffffffffffffffffffff16815260200191505060405180910390f35b6004602052816000526040600020602052806000526040600020600091509150505481565b60105481565b6006602052806000526040600020600091509050806000015490806001018054600181600116156101000203166002900480601f0160208091040260200160405190810160405280929190818152602001828054600181600116156101000203166002900480156118ed5780601f106118c2576101008083540402835291602001916118ed565b820191906000526020600020905b8154815290600101906020018083116118d057829003601f168201915b505050505090806002018054600181600116156101000203166002900480601f01602080910402602001604051908101604052809291908181526020018280546001816001161561010002031660029004801561198b5780601f106119605761010080835404028352916020019161198b565b820191906000526020600020905b81548152906001019060200180831161196e57829003601f168201915b505050505090806003018054600181600116156101000203166002900480601f016020809104026020016040519081016040528092919081815260200182805460018160011615610100020316600290048015611a295780601f106119fe57610100808354040283529160200191611a29565b820191906000526020600020905b815481529060010190602001808311611a0c57829003601f168201915b505050505090806004018054600181600116156101000203166002900480601f016020809104026020016040519081016040528092919081815260200182805460018160011615610100020316600290048015611ac75780601f10611a9c57610100808354040283529160200191611ac7565b820191906000526020600020905b815481529060010190602001808311611aaa57829003601f168201915b5050505050908060050160009054906101000a900473ffffffffffffffffffffffffffffffffffffffff16908060060154908060070160009054906101000a900460ff1690806008018054600181600116156101000203166002900480601f016020809104026020016040519081016040528092919081815260200182805460018160011615610100020316600290048015611ba45780601f10611b7957610100808354040283529160200191611ba4565b820191906000526020600020905b815481529060010190602001808311611b8757829003601f168201915b5050505050905089565b6001602052816000526040600020602052806000526040600020600091509150505481565b6009600086815260200190815260200160002060009054906101000a900460ff16611c49576040517f08c379a0000000000000000000000000000000000000000000000000000000008152600401808060200182810382526023815260200180614f316023913960400191505060405180910390fd5b6000845111611cc0576040517f08c379a00000000000000000000000000000000000000000000000000000000081526004018080602001828103825260148152602001807f546865206e616d65206d7573742062652073657400000000000000000000000081525060200191505060405180910390fd5b6000835111611d37576040517f08c379a00000000000000000000000000000000000000000000000000000000081526004018080602001828103825260208152602001807f5468652044656c69766572792041646472657373206d7573742062652073657481525060200191505060405180910390fd5b60008211611dad576040517f08c379a000000000000000000000000000000000000000000000000000000000815260040180806020018281038252601b8152602001807f54686520706f7374616c20636f6465206d75737420626520736574000000000081525060200191505060405180910390fd5b60008111611e23576040517f08c379a000000000000000000000000000000000000000000000000000000000815260040180806020018281038252601c8152602001807f5468652050686f6e65204e756d626572206d757374206265207365740000000081525060200191505060405180910390fd5b600033905060006002868887856040516020018085805190602001908083835b60208310611e665780518252602082019150602081019050602083039250611e43565b6001836020036101000a03801982511681845116808217855250505050505090500184815260200183805190602001908083835b60208310611ebd5780518252602082019150602081019050602083039250611e9a565b6001836020036101000a0380198251168184511680821785525050505050509050018273ffffffffffffffffffffffffffffffffffffffff1673ffffffffffffffffffffffffffffffffffffffff1660601b81526014019450505050506040516020818303038152906040526040518082805190602001908083835b60208310611f5c5780518252602082019150602081019050602083039250611f39565b6001836020036101000a038019825116818451168082178552505050505050905001915050602060405180830381855afa158015611f9e573d6000803e3d6000fd5b5050506040513d6020811015611fb357600080fd5b81019080805190602001909291905050509050611fce614d94565b600660008981526020019081526020016000206040518061012001604052908160008201548152602001600182018054600181600116156101000203166002900480601f0160208091040260200160405190810160405280929190818152602001828054600181600116156101000203166002900480156120905780601f1061206557610100808354040283529160200191612090565b820191906000526020600020905b81548152906001019060200180831161207357829003601f168201915b50505050508152602001600282018054600181600116156101000203166002900480601f0160208091040260200160405190810160405280929190818152602001828054600181600116156101000203166002900480156121325780601f1061210757610100808354040283529160200191612132565b820191906000526020600020905b81548152906001019060200180831161211557829003601f168201915b50505050508152602001600382018054600181600116156101000203166002900480601f0160208091040260200160405190810160405280929190818152602001828054600181600116156101000203166002900480156121d45780601f106121a9576101008083540402835291602001916121d4565b820191906000526020600020905b8154815290600101906020018083116121b757829003601f168201915b50505050508152602001600482018054600181600116156101000203166002900480601f0160208091040260200160405190810160405280929190818152602001828054600181600116156101000203166002900480156122765780601f1061224b57610100808354040283529160200191612276565b820191906000526020600020905b81548152906001019060200180831161225957829003601f168201915b505050505081526020016005820160009054906101000a900473ffffffffffffffffffffffffffffffffffffffff1673ffffffffffffffffffffffffffffffffffffffff1673ffffffffffffffffffffffffffffffffffffffff168152602001600682015481526020016007820160009054906101000a900460ff16151515158152602001600882018054600181600116156101000203166002900480601f0160208091040260200160405190810160405280929190818152602001828054600181600116156101000203166002900480156123935780601f1061236857610100808354040283529160200191612393565b820191906000526020600020905b81548152906001019060200180831161237657829003601f168201915b50505050508152505090506123a6614dfb565b6040518061010001604052808481526020018a81526020018981526020018881526020018781526020018681526020016040518060400160405280600781526020017f70656e64696e670000000000000000000000000000000000000000000000000081525081526020013373ffffffffffffffffffffffffffffffffffffffff1681525090508160c001513414612489576040517f08c379a000000000000000000000000000000000000000000000000000000000815260040180806020018281038252602b815260200180614f54602b913960400191505060405180910390fd5b82600160008460a0015173ffffffffffffffffffffffffffffffffffffffff1673ffffffffffffffffffffffffffffffffffffffff16815260200190815260200160002060008581526020019081526020016000208190555082600260008673ffffffffffffffffffffffffffffffffffffffff1673ffffffffffffffffffffffffffffffffffffffff168152602001908152602001600020600085815260200190815260200160002081905550600560008360a0015173ffffffffffffffffffffffffffffffffffffffff1673ffffffffffffffffffffffffffffffffffffffff168152602001908152602001600020839080600181540180825580915050906001820390600052602060002001600090919290919091505550600560008573ffffffffffffffffffffffffffffffffffffffff1673ffffffffffffffffffffffffffffffffffffffff168152602001908152602001600020839080600181540180825580915050906001820390600052602060002001600090919290919091505550600b83908060018154018082558091505090600182039060005260206000200160009091929091909150555080600860008581526020019081526020016000206000820151816000015560208201518160010155604082015181600201908051906020019061267d929190614e5c565b50606082015181600301908051906020019061269a929190614e5c565b506080820151816004015560a0820151816005015560c08201518160060190805190602001906126cb929190614e5c565b5060e08201518160070160006101000a81548173ffffffffffffffffffffffffffffffffffffffff021916908373ffffffffffffffffffffffffffffffffffffffff160217905550905050600c6000848152602001908152602001600020600090558160a0015173ffffffffffffffffffffffffffffffffffffffff166108fc8360c001519081150290604051600060405180830381858888f1935050505015801561277b573d6000803e3d6000fd5b50505050505050505050565b6000602052816000526040600020602052806000526040600020600091509150505481565b6008602052806000526040600020600091509050806000015490806001015490806002018054600181600116156101000203166002900480601f0160208091040260200160405190810160405280929190818152602001828054600181600116156101000203166002900480156128645780601f1061283957610100808354040283529160200191612864565b820191906000526020600020905b81548152906001019060200180831161284757829003601f168201915b505050505090806003018054600181600116156101000203166002900480601f0160208091040260200160405190810160405280929190818152602001828054600181600116156101000203166002900480156129025780601f106128d757610100808354040283529160200191612902565b820191906000526020600020905b8154815290600101906020018083116128e557829003601f168201915b505050505090806004015490806005015490806006018054600181600116156101000203166002900480601f0160208091040260200160405190810160405280929190818152602001828054600181600116156101000203166002900480156129ac5780601f10612981576101008083540402835291602001916129ac565b820191906000526020600020905b81548152906001019060200180831161298f57829003601f168201915b5050505050908060070160009054906101000a900473ffffffffffffffffffffffffffffffffffffffff16905088565b600760205281600052604060002081815481106129f557fe5b906000526020600020016000915091509054906101000a900473ffffffffffffffffffffffffffffffffffffffff1681565b600a8181548110612a3457fe5b906000526020600020016000915090505481565b600f5481565b6003602052816000526040600020602052806000526040600020600091509150505481565b60056020528160005260406000208181548110612a8c57fe5b90600052602060002001600091509150505481565b60606000600a8054905090506000600182039050600080905082851315612acb5760009050612ad1565b84830390505b6060600182840301604051908082528060200260200182016040528015612b075781602001602082028038833980820191505090505b509050600080905060008390505b848113612b5f57600a8181548110612b2957fe5b9060005260206000200154838381518110612b4057fe5b6020026020010181815250506001820191508080600101915050612b15565b508195505050505050919050565b612b75614dfb565b60086000838152602001908152602001600020604051806101000160405290816000820154815260200160018201548152602001600282018054600181600116156101000203166002900480601f016020809104026020016040519081016040528092919081815260200182805460018160011615610100020316600290048015612c415780601f10612c1657610100808354040283529160200191612c41565b820191906000526020600020905b815481529060010190602001808311612c2457829003601f168201915b50505050508152602001600382018054600181600116156101000203166002900480601f016020809104026020016040519081016040528092919081815260200182805460018160011615610100020316600290048015612ce35780601f10612cb857610100808354040283529160200191612ce3565b820191906000526020600020905b815481529060010190602001808311612cc657829003601f168201915b505050505081526020016004820154815260200160058201548152602001600682018054600181600116156101000203166002900480601f016020809104026020016040519081016040528092919081815260200182805460018160011615610100020316600290048015612d995780601f10612d6e57610100808354040283529160200191612d99565b820191906000526020600020905b815481529060010190602001808311612d7c57829003601f168201915b505050505081526020016007820160009054906101000a900473ffffffffffffffffffffffffffffffffffffffff1673ffffffffffffffffffffffffffffffffffffffff1673ffffffffffffffffffffffffffffffffffffffff16815250509050612e02614d94565b60066000836020015181526020019081526020016000206040518061012001604052908160008201548152602001600182018054600181600116156101000203166002900480601f016020809104026020016040519081016040528092919081815260200182805460018160011615610100020316600290048015612ec85780601f10612e9d57610100808354040283529160200191612ec8565b820191906000526020600020905b815481529060010190602001808311612eab57829003601f168201915b50505050508152602001600282018054600181600116156101000203166002900480601f016020809104026020016040519081016040528092919081815260200182805460018160011615610100020316600290048015612f6a5780601f10612f3f57610100808354040283529160200191612f6a565b820191906000526020600020905b815481529060010190602001808311612f4d57829003601f168201915b50505050508152602001600382018054600181600116156101000203166002900480601f01602080910402602001604051908101604052809291908181526020018280546001816001161561010002031660029004801561300c5780601f10612fe15761010080835404028352916020019161300c565b820191906000526020600020905b815481529060010190602001808311612fef57829003601f168201915b50505050508152602001600482018054600181600116156101000203166002900480601f0160208091040260200160405190810160405280929190818152602001828054600181600116156101000203166002900480156130ae5780601f10613083576101008083540402835291602001916130ae565b820191906000526020600020905b81548152906001019060200180831161309157829003601f168201915b505050505081526020016005820160009054906101000a900473ffffffffffffffffffffffffffffffffffffffff1673ffffffffffffffffffffffffffffffffffffffff1673ffffffffffffffffffffffffffffffffffffffff168152602001600682015481526020016007820160009054906101000a900460ff16151515158152602001600882018054600181600116156101000203166002900480601f0160208091040260200160405190810160405280929190818152602001828054600181600116156101000203166002900480156131cb5780601f106131a0576101008083540402835291602001916131cb565b820191906000526020600020905b8154815290600101906020018083116131ae57829003601f168201915b50505050508152505090503373ffffffffffffffffffffffffffffffffffffffff168160a0015173ffffffffffffffffffffffffffffffffffffffff161461325e576040517f08c379a000000000000000000000000000000000000000000000000000000000815260040180806020018281038252602f815260200180614f02602f913960400191505060405180910390fd5b6040518060400160405280600981526020017f636f6d706c6574656400000000000000000000000000000000000000000000008152508260c0018190525060008260e0015190506000600160003373ffffffffffffffffffffffffffffffffffffffff1673ffffffffffffffffffffffffffffffffffffffff16815260200190815260200160002060008681526020019081526020016000205490506000600260008473ffffffffffffffffffffffffffffffffffffffff1673ffffffffffffffffffffffffffffffffffffffff168152602001908152602001600020600087815260200190815260200160002054905081600360003373ffffffffffffffffffffffffffffffffffffffff1673ffffffffffffffffffffffffffffffffffffffff16815260200190815260200160002060008881526020019081526020016000208190555080600460008573ffffffffffffffffffffffffffffffffffffffff1673ffffffffffffffffffffffffffffffffffffffff168152602001908152602001600020600088815260200190815260200160002081905550600160003373ffffffffffffffffffffffffffffffffffffffff1673ffffffffffffffffffffffffffffffffffffffff168152602001908152602001600020600087815260200190815260200160002060009055600260008473ffffffffffffffffffffffffffffffffffffffff1673ffffffffffffffffffffffffffffffffffffffff168152602001908152602001600020600087815260200190815260200160002060009055828460a0019073ffffffffffffffffffffffffffffffffffffffff16908173ffffffffffffffffffffffffffffffffffffffff168152505060076000856000015181526020019081526020016000203390806001815401808255809150509060018203906000526020600020016000909192909190916101000a81548173ffffffffffffffffffffffffffffffffffffffff021916908373ffffffffffffffffffffffffffffffffffffffff1602179055505060008060003373ffffffffffffffffffffffffffffffffffffffff1673ffffffffffffffffffffffffffffffffffffffff168152602001908152602001600020600086600001518152602001908152602001600020549050806000808673ffffffffffffffffffffffffffffffffffffffff1673ffffffffffffffffffffffffffffffffffffffff16815260200190815260200160002060008381526020019081526020016000208190555050505050505050565b60096020528060005260406000206000915054906101000a900460ff1681565b600c6020528060005260406000206000915090505481565b600060608060008060606000613655614dfb565b600860008a8152602001908152602001600020604051806101000160405290816000820154815260200160018201548152602001600282018054600181600116156101000203166002900480601f0160208091040260200160405190810160405280929190818152602001828054600181600116156101000203166002900480156137215780601f106136f657610100808354040283529160200191613721565b820191906000526020600020905b81548152906001019060200180831161370457829003601f168201915b50505050508152602001600382018054600181600116156101000203166002900480601f0160208091040260200160405190810160405280929190818152602001828054600181600116156101000203166002900480156137c35780601f10613798576101008083540402835291602001916137c3565b820191906000526020600020905b8154815290600101906020018083116137a657829003601f168201915b505050505081526020016004820154815260200160058201548152602001600682018054600181600116156101000203166002900480601f0160208091040260200160405190810160405280929190818152602001828054600181600116156101000203166002900480156138795780601f1061384e57610100808354040283529160200191613879565b820191906000526020600020905b81548152906001019060200180831161385c57829003601f168201915b505050505081526020016007820160009054906101000a900473ffffffffffffffffffffffffffffffffffffffff1673ffffffffffffffffffffffffffffffffffffffff1673ffffffffffffffffffffffffffffffffffffffff16815250509050806000015197508060400151965080606001519550806080015194508060a0015193508060c0015192508060e00151915050919395979092949650565b600b818154811061392457fe5b906000526020600020016000915090505481565b60006060806060806000806000606061394f614d94565b600660008c81526020019081526020016000206040518061012001604052908160008201548152602001600182018054600181600116156101000203166002900480601f016020809104026020016040519081016040528092919081815260200182805460018160011615610100020316600290048015613a115780601f106139e657610100808354040283529160200191613a11565b820191906000526020600020905b8154815290600101906020018083116139f457829003601f168201915b50505050508152602001600282018054600181600116156101000203166002900480601f016020809104026020016040519081016040528092919081815260200182805460018160011615610100020316600290048015613ab35780601f10613a8857610100808354040283529160200191613ab3565b820191906000526020600020905b815481529060010190602001808311613a9657829003601f168201915b50505050508152602001600382018054600181600116156101000203166002900480601f016020809104026020016040519081016040528092919081815260200182805460018160011615610100020316600290048015613b555780601f10613b2a57610100808354040283529160200191613b55565b820191906000526020600020905b815481529060010190602001808311613b3857829003601f168201915b50505050508152602001600482018054600181600116156101000203166002900480601f016020809104026020016040519081016040528092919081815260200182805460018160011615610100020316600290048015613bf75780601f10613bcc57610100808354040283529160200191613bf7565b820191906000526020600020905b815481529060010190602001808311613bda57829003601f168201915b505050505081526020016005820160009054906101000a900473ffffffffffffffffffffffffffffffffffffffff1673ffffffffffffffffffffffffffffffffffffffff1673ffffffffffffffffffffffffffffffffffffffff168152602001600682015481526020016007820160009054906101000a900460ff16151515158152602001600882018054600181600116156101000203166002900480601f016020809104026020016040519081016040528092919081815260200182805460018160011615610100020316600290048015613d145780601f10613ce957610100808354040283529160200191613d14565b820191906000526020600020905b815481529060010190602001808311613cf757829003601f168201915b505050505081525050905080600001519950806020015198508060400151975080606001519650806080015195508060a0015194508060c0015193508060e0015192508061010001519150509193959799909294969850565b6000816040516020018082805190602001908083835b60208310613da65780518252602082019150602081019050602083039250613d83565b6001836020036101000a03801982511681845116808217855250505050505090500191505060405160208183030381529060405280519060200120836040516020018082805190602001908083835b60208310613e185780518252602082019150602081019050602083039250613df5565b6001836020036101000a0380198251168184511680821785525050505050509050019150506040516020818303038152906040528051906020012014905092915050565b600d5481565b6002602052816000526040600020602052806000526040600020600091509150505481565b600115156009600083815260200190815260200160002060009054906101000a900460ff16151514613f21576040517f08c379a00000000000000000000000000000000000000000000000000000000081526004018080602001828103825260128152602001807f426f6f6b20646f65736e2774206578697374000000000000000000000000000081525060200191505060405180910390fd5b60016006600083815260200190815260200160002060070160006101000a81548160ff02191690831515021790555080600c60008381526020019081526020016000208190555050565b6000875111613fe2576040517f08c379a00000000000000000000000000000000000000000000000000000000081526004018080602001828103825260168152602001807f426f6f6b204e616d65206973206e65636573736172790000000000000000000081525060200191505060405180910390fd5b6000865111614059576040517f08c379a00000000000000000000000000000000000000000000000000000000081526004018080602001828103825260118152602001807f4953424e206973206e656365737361727900000000000000000000000000000081525060200191505060405180910390fd5b60008551116140d0576040517f08c379a00000000000000000000000000000000000000000000000000000000081526004018080602001828103825260188152602001807f417574686f72204e616d65206973206e6563657373617279000000000000000081525060200191505060405180910390fd5b60008311614146576040517f08c379a00000000000000000000000000000000000000000000000000000000081526004018080602001828103825260128152602001807f5072696365206973206e6563657373617279000000000000000000000000000081525060200191505060405180910390fd5b8161415057600091505b600033905060006002898989856040516020018085805190602001908083835b602083106141935780518252602082019150602081019050602083039250614170565b6001836020036101000a03801982511681845116808217855250505050505090500184805190602001908083835b602083106141e457805182526020820191506020810190506020830392506141c1565b6001836020036101000a03801982511681845116808217855250505050505090500183805190602001908083835b602083106142355780518252602082019150602081019050602083039250614212565b6001836020036101000a0380198251168184511680821785525050505050509050018273ffffffffffffffffffffffffffffffffffffffff1673ffffffffffffffffffffffffffffffffffffffff1660601b81526014019450505050506040516020818303038152906040526040518082805190602001908083835b602083106142d457805182526020820191506020810190506020830392506142b1565b6001836020036101000a038019825116818451168082178552505050505050905001915050602060405180830381855afa158015614316573d6000803e3d6000fd5b5050506040513d602081101561432b57600080fd5b81019080805190602001909291905050509050600015156009600083815260200190815260200160002060009054906101000a900460ff161515146143d8576040517f08c379a00000000000000000000000000000000000000000000000000000000081526004018080602001828103825260138152602001807f426f6f6b20616c7265616479206578697374730000000000000000000000000081525060200191505060405180910390fd5b6143e0614d94565b6040518061012001604052808381526020018b81526020018a81526020018981526020018881526020018473ffffffffffffffffffffffffffffffffffffffff1681526020018781526020018615158152602001858152509050600a829080600181540180825580915050906001820390600052602060002001600090919290919091505550816000803373ffffffffffffffffffffffffffffffffffffffff1673ffffffffffffffffffffffffffffffffffffffff16815260200190815260200160002060008481526020019081526020016000208190555080600660008481526020019081526020016000206000820151816000015560208201518160010190805190602001906144f4929190614e5c565b506040820151816002019080519060200190614511929190614e5c565b50606082015181600301908051906020019061452e929190614e5c565b50608082015181600401908051906020019061454b929190614e5c565b5060a08201518160050160006101000a81548173ffffffffffffffffffffffffffffffffffffffff021916908373ffffffffffffffffffffffffffffffffffffffff16021790555060c0820151816006015560e08201518160070160006101000a81548160ff0219169083151502179055506101008201518160080190805190602001906145da929190614e5c565b5090505060016009600084815260200190815260200160002060006101000a81548160ff02191690831515021790555050505050505050505050565b606060008033905061465d846040518060400160405280600e81526020017f70656e64696e672d73656c6c6572000000000000000000000000000000000000815250613d6d565b156147f057600560008273ffffffffffffffffffffffffffffffffffffffff1673ffffffffffffffffffffffffffffffffffffffff1681526020019081526020016000208054905091506000600183039050600080905060606001828403016040519080825280602002602001820160405280156146ea5781602001602082028038833980820191505090505b50905060008090505b858112156147e2576000600160008773ffffffffffffffffffffffffffffffffffffffff1673ffffffffffffffffffffffffffffffffffffffff1681526020019081526020016000206000600560008973ffffffffffffffffffffffffffffffffffffffff1673ffffffffffffffffffffffffffffffffffffffff168152602001908152602001600020848154811061478857fe5b9060005260206000200154815260200190815260200160002054905060008090506000801b82146147d357818482815181106147c057fe5b6020026020010181815250506001810190505b505080806001019150506146f3565b508095505050505050614d69565b61482f846040518060400160405280600d81526020017f70656e64696e672d627579657200000000000000000000000000000000000000815250613d6d565b156149c257600560008273ffffffffffffffffffffffffffffffffffffffff1673ffffffffffffffffffffffffffffffffffffffff1681526020019081526020016000208054905091506000600183039050600080905060606001828403016040519080825280602002602001820160405280156148bc5781602001602082028038833980820191505090505b50905060008090505b858112156149b4576000600260008773ffffffffffffffffffffffffffffffffffffffff1673ffffffffffffffffffffffffffffffffffffffff1681526020019081526020016000206000600560008973ffffffffffffffffffffffffffffffffffffffff1673ffffffffffffffffffffffffffffffffffffffff168152602001908152602001600020848154811061495a57fe5b9060005260206000200154815260200190815260200160002054905060008090506000801b82146149a5578184828151811061499257fe5b6020026020010181815250506001810190505b505080806001019150506148c5565b508095505050505050614d69565b614a01846040518060400160405280601081526020017f636f6d706c657465642d73656c6c657200000000000000000000000000000000815250613d6d565b15614b9457600560008273ffffffffffffffffffffffffffffffffffffffff1673ffffffffffffffffffffffffffffffffffffffff168152602001908152602001600020805490509150600060018303905060008090506060600182840301604051908082528060200260200182016040528015614a8e5781602001602082028038833980820191505090505b50905060008090505b85811215614b86576000600360008773ffffffffffffffffffffffffffffffffffffffff1673ffffffffffffffffffffffffffffffffffffffff1681526020019081526020016000206000600560008973ffffffffffffffffffffffffffffffffffffffff1673ffffffffffffffffffffffffffffffffffffffff1681526020019081526020016000208481548110614b2c57fe5b9060005260206000200154815260200190815260200160002054905060008090506000801b8214614b775781848281518110614b6457fe5b6020026020010181815250506001810190505b50508080600101915050614a97565b508095505050505050614d69565b614bd3846040518060400160405280600f81526020017f636f6d706c657465642d62757965720000000000000000000000000000000000815250613d6d565b15614d6657600560008273ffffffffffffffffffffffffffffffffffffffff1673ffffffffffffffffffffffffffffffffffffffff168152602001908152602001600020805490509150600060018303905060008090506060600182840301604051908082528060200260200182016040528015614c605781602001602082028038833980820191505090505b50905060008090505b85811215614d58576000600460008773ffffffffffffffffffffffffffffffffffffffff1673ffffffffffffffffffffffffffffffffffffffff1681526020019081526020016000206000600560008973ffffffffffffffffffffffffffffffffffffffff1673ffffffffffffffffffffffffffffffffffffffff1681526020019081526020016000208481548110614cfe57fe5b9060005260206000200154815260200190815260200160002054905060008090506000801b8214614d495781848281518110614d3657fe5b6020026020010181815250506001810190505b50508080600101915050614c69565b508095505050505050614d69565b50505b919050565b600e60009054906101000a900473ffffffffffffffffffffffffffffffffffffffff1681565b6040518061012001604052806000801916815260200160608152602001606081526020016060815260200160608152602001600073ffffffffffffffffffffffffffffffffffffffff16815260200160008152602001600015158152602001606081525090565b60405180610100016040528060008019168152602001600080191681526020016060815260200160608152602001600081526020016000815260200160608152602001600073ffffffffffffffffffffffffffffffffffffffff1681525090565b828054600181600116156101000203166002900490600052602060002090601f016020900481019282601f10614e9d57805160ff1916838001178555614ecb565b82800160010185558215614ecb579182015b82811115614eca578251825591602001919060010190614eaf565b5b509050614ed89190614edc565b5090565b614efe91905b80821115614efa576000816000905550600101614ee2565b5090565b9056fe4f6e6c79207468652073656c6c65722063616e206d61726b20746865206f7264657220617320636f6d706c6574656454686520626f6f6b206d75737420657869737420746f20626520707572636861736564546865207061796d656e74206d75737420626520657175616c20746f2074686520626f6f6b207072696365a265627a7a723158202347f92c0690b0245ed1368a2ed8c3f11a69492a6e958d8790a0c082221315fd64736f6c63430005100032",
  "source": "pragma solidity ^0.5.0;\n\ncontract BookStore {\n    struct Book {\n        bytes32 id;\n        string title;\n        string isbn;\n        string author;\n        string category;\n        address payable owner;\n        uint256 price;\n        bool forSale;\n        string image;\n    }\n    struct Order {\n        bytes32 id;\n        bytes32 bookId;\n        string name;\n        string deliveryAddress;\n        uint256 postalCode;\n        uint256 phone;\n        string state; // Either 'pending', 'completed'\n        address customer;\n    }\n\n    mapping(address => mapping(bytes32 => bytes32)) public ownerProducts; // Seller address => books ; The books added by the seller\n    mapping(address => mapping(bytes32 => bytes32)) public pendingSellerOrders; // Seller address => orders ; The books waiting to be fulfilled by the seller, used by sellers to check which orders have to be fulfilled\n    mapping(address => mapping(bytes32 => bytes32)) public pendingBuyerOrders; //Buyer address => orders ;The books that the buyer purchased waiting to be sent\n    mapping(address => mapping(bytes32 => bytes32))\n        public completedSellerOrders; // Seller address => orders  A history of past orders fulfilled by the seller\n    mapping(address => mapping(bytes32 => bytes32)) public completedBuyerOrders; // Buyer address => orders A history of past orders made by this buyer\n    mapping(address => bytes32[]) public userOrders;\n    mapping(bytes32 => Book) public bookById; // Book id => book\n\n    mapping(bytes32 => address[]) public previousOwners; // Book id => previousOwners\n    mapping(bytes32 => Order) public orderById; // book id => order\n    mapping(bytes32 => bool) public bookExists; // Book id => true or false\n    bytes32[] public books;\n    bytes32[] public orders;\n    mapping(bytes32 => bytes32) public booksForSale;\n    uint256 public lastId;\n    address public token;\n    uint256 public lastPendingSellerOrder;\n    uint256 public lastPendingBuyerOrder;\n\n    function addBook(\n        string memory _title,\n        string memory _isbn,\n        string memory _author,\n        string memory _category,\n        uint256 _price,\n        bool _forSale,\n        string memory _image\n    ) public {\n        require(bytes(_title).length > 0, \"Book Name is necessary\");\n        require(bytes(_isbn).length > 0, \"ISBN is necessary\");\n        require(bytes(_author).length > 0, \"Author Name is necessary\");\n        require(_price > 0, \"Price is necessary\");\n        if (!(_forSale)) _forSale = false;\n        address payable owner = msg.sender;\n        bytes32 id = sha256(abi.encodePacked(_title, _isbn, _author, owner));\n        require(bookExists[id] == false, \"Book already exists\");\n        Book memory b =\n            Book(\n                id,\n                _title,\n                _isbn,\n                _author,\n                _category,\n                owner,\n                _price,\n                _forSale,\n                _image\n            );\n        books.push(id);\n        ownerProducts[msg.sender][id] = id;\n        bookById[id] = b;\n        bookExists[id] = true;\n    }\n\n    function sellBook(bytes32 _id) public {\n        require(bookExists[_id] == true, \"Book doesn't exist\");\n        bookById[_id].forSale = true;\n        booksForSale[_id] = _id;\n    }\n\n    function buyBook(\n        bytes32 _id,\n        string memory _name,\n        string memory _deliveryAddress,\n        uint256 _postalCode,\n        uint256 _phone\n    ) public payable {\n        require(bookExists[_id], \"The book must exist to be purchased\");\n        require(bytes(_name).length > 0, \"The name must be set\");\n        require(\n            bytes(_deliveryAddress).length > 0,\n            \"The Delivery Address must be set\"\n        );\n        require(_postalCode > 0, \"The postal code must be set\");\n        require(_phone > 0, \"The Phone Number must be set\");\n        address payable customer = msg.sender;\n        bytes32 id =\n            sha256(abi.encodePacked(_name, _id, _deliveryAddress, customer)); // using name, book id , delivery address and customer address to make order id\n        Book memory b = bookById[_id]; //Need to retrieve the book by it's id.\n        Order memory newOrder =\n            Order(\n                id,\n                _id,\n                _name,\n                _deliveryAddress,\n                _postalCode,\n                _phone,\n                \"pending\",\n                msg.sender\n            );\n        require(\n            msg.value == b.price,\n            \"The payment must be equal to the book price\"\n        );\n\n        pendingSellerOrders[b.owner][id] = id;\n        pendingBuyerOrders[customer][id] = id;\n        userOrders[b.owner].push(id);\n        userOrders[customer].push(id);\n        orders.push(id);\n        orderById[id] = newOrder;\n        delete (booksForSale[id]);\n        b.owner.transfer(b.price);\n    }\n\n    function markOrderCompleted(bytes32 _id) public {\n        Order memory order = orderById[_id];\n        Book memory book = bookById[order.bookId];\n        require(\n            book.owner == msg.sender,\n            \"Only the seller can mark the order as completed\"\n        );\n        order.state = \"completed\";\n        address customer = order.customer;\n        bytes32 pendingSellerOrderId = pendingSellerOrders[msg.sender][_id];\n        bytes32 pendingBuyerOrderId = pendingBuyerOrders[customer][_id];\n        completedSellerOrders[msg.sender][_id] = pendingSellerOrderId;\n        completedBuyerOrders[customer][_id] = pendingBuyerOrderId;\n        delete (pendingSellerOrders[msg.sender][_id]);\n        delete (pendingBuyerOrders[customer][_id]);\n        book.owner = address(uint160(customer));\n        previousOwners[book.id].push(msg.sender);\n        bytes32 bookId = ownerProducts[msg.sender][book.id];\n        ownerProducts[customer][bookId] = bookId;\n    }\n\n    function getBooksIds(int256 _limit) public view returns (bytes32[] memory) {\n        int256 length = int256(books.length);\n        int256 start = length - 1;\n        int256 end = 0;\n        if (_limit > length) {\n            end = 0;\n        } else {\n            end = length - _limit;\n        }\n        bytes32[] memory ids = new bytes32[](uint256(start - end + 1));\n        uint256 inc = 0;\n        for (int256 i = end; i <= start; i++) {\n            ids[inc] = (books[uint256(i)]);\n            inc += 1;\n        }\n        return ids;\n    }\n\n    function getBook(bytes32 _id)\n        public\n        view\n        returns (\n            bytes32 id,\n            string memory title,\n            string memory isbn,\n            string memory author,\n            string memory category,\n            address payable owner,\n            uint256 price,\n            bool forSale,\n            string memory image\n        )\n    {\n        Book memory b = bookById[_id];\n        id = b.id;\n        title = b.title;\n        isbn = b.isbn;\n        author = b.author;\n        category = b.category;\n        owner = b.owner;\n        price = b.price;\n        forSale = b.forSale;\n        image = b.image;\n    }\n\n    function getOrders(string memory _type)\n        public\n        view\n        returns (bytes32[] memory)\n    {\n        int256 length;\n        address _owner = msg.sender;\n\n        if (compareStrings(_type, \"pending-seller\")) {\n            length = int256(userOrders[_owner].length);\n            int256 start = length - 1;\n            int256 end = 0;\n            bytes32[] memory ids = new bytes32[](uint256(start - end + 1));\n            for (int256 i = 0; i < length; i++) {\n                bytes32 id =\n                    pendingSellerOrders[_owner][userOrders[_owner][uint256(i)]];\n                uint256 inc = 0;\n                if (\n                    id !=\n                    0x0000000000000000000000000000000000000000000000000000000000000000\n                ) {\n                    ids[inc] = id;\n                    inc += 1;\n                }\n            }\n            return ids;\n        } else if (compareStrings(_type, \"pending-buyer\")) {\n            length = int256(userOrders[_owner].length);\n            int256 start = length - 1;\n            int256 end = 0;\n            bytes32[] memory ids = new bytes32[](uint256(start - end + 1));\n            for (int256 i = 0; i < length; i++) {\n                bytes32 id =\n                    pendingBuyerOrders[_owner][userOrders[_owner][uint256(i)]];\n                uint256 inc = 0;\n                if (\n                    id !=\n                    0x0000000000000000000000000000000000000000000000000000000000000000\n                ) {\n                    ids[inc] = id;\n                    inc += 1;\n                }\n            }\n            return ids;\n        } else if (compareStrings(_type, \"completed-seller\")) {\n            length = int256(userOrders[_owner].length);\n            int256 start = length - 1;\n            int256 end = 0;\n            bytes32[] memory ids = new bytes32[](uint256(start - end + 1));\n            for (int256 i = 0; i < length; i++) {\n                bytes32 id =\n                    completedSellerOrders[_owner][\n                        userOrders[_owner][uint256(i)]\n                    ];\n                uint256 inc = 0;\n                if (\n                    id !=\n                    0x0000000000000000000000000000000000000000000000000000000000000000\n                ) {\n                    ids[inc] = id;\n                    inc += 1;\n                }\n            }\n            return ids;\n        } else if (compareStrings(_type, \"completed-buyer\")) {\n            length = int256(userOrders[_owner].length);\n            int256 start = length - 1;\n            int256 end = 0;\n            bytes32[] memory ids = new bytes32[](uint256(start - end + 1));\n            for (int256 i = 0; i < length; i++) {\n                bytes32 id =\n                    completedBuyerOrders[_owner][\n                        userOrders[_owner][uint256(i)]\n                    ];\n                uint256 inc = 0;\n                if (\n                    id !=\n                    0x0000000000000000000000000000000000000000000000000000000000000000\n                ) {\n                    ids[inc] = id;\n                    inc += 1;\n                }\n            }\n            return ids;\n        }\n    }\n\n    function getOrderById(bytes32 id)\n        public\n        view\n        returns (\n            bytes32 orderId,\n            string memory name,\n            string memory deliveryAddress,\n            uint256 postalCode,\n            uint256 phone,\n            string memory state,\n            address customer\n        )\n    {\n        Order memory o;\n        o = orderById[id];\n        orderId = o.id;\n        name = o.name;\n        deliveryAddress = o.deliveryAddress;\n        postalCode = o.postalCode;\n        phone = o.phone;\n        state = o.state;\n        customer = o.customer;\n    }\n\n    function compareStrings(string memory a, string memory b)\n        public\n        pure\n        returns (bool)\n    {\n        return keccak256(abi.encodePacked(a)) == keccak256(abi.encodePacked(b));\n    }\n}\n",
  "sourcePath": "/home/nmreddy/Code/CodeLite/Blockchain-Buyer-Seller-Market-BC_Team_6/contracts/BookStore.sol",
  "compiler": {
    "name": "solc",
    "version": "0.5.16+commit.9c3226ce.Emscripten.clang"
  },
  "schemaVersion": "3.3.4",
  "updatedAt": "2021-03-30T11:40:44.108Z",
  "networkType": "ethereum",
  "devdoc": {
    "methods": {}
  },
  "userdoc": {
    "methods": {}
  }
}