{
  "contractName": "BookToken",
  "abi": [
    {
      "anonymous": false,
      "inputs": [
        {
          "indexed": true,
          "internalType": "address",
          "name": "owner",
          "type": "address"
        },
        {
          "indexed": true,
          "internalType": "address",
          "name": "approved",
          "type": "address"
        },
        {
          "indexed": true,
          "internalType": "uint256",
          "name": "tokenId",
          "type": "uint256"
        }
      ],
      "name": "Approval",
      "type": "event"
    },
    {
      "anonymous": false,
      "inputs": [
        {
          "indexed": true,
          "internalType": "address",
          "name": "owner",
          "type": "address"
        },
        {
          "indexed": true,
          "internalType": "address",
          "name": "operator",
          "type": "address"
        },
        {
          "indexed": false,
          "internalType": "bool",
          "name": "approved",
          "type": "bool"
        }
      ],
      "name": "ApprovalForAll",
      "type": "event"
    },
    {
      "anonymous": false,
      "inputs": [
        {
          "indexed": true,
          "internalType": "address",
          "name": "from",
          "type": "address"
        },
        {
          "indexed": true,
          "internalType": "address",
          "name": "to",
          "type": "address"
        },
        {
          "indexed": true,
          "internalType": "uint256",
          "name": "tokenId",
          "type": "uint256"
        }
      ],
      "name": "Transfer",
      "type": "event"
    },
    {
      "constant": false,
      "inputs": [
        {
          "internalType": "address",
          "name": "to",
          "type": "address"
        },
        {
          "internalType": "uint256",
          "name": "tokenId",
          "type": "uint256"
        }
      ],
      "name": "approve",
      "outputs": [],
      "payable": false,
      "stateMutability": "nonpayable",
      "type": "function"
    },
    {
      "constant": true,
      "inputs": [
        {
          "internalType": "address",
          "name": "owner",
          "type": "address"
        }
      ],
      "name": "balanceOf",
      "outputs": [
        {
          "internalType": "uint256",
          "name": "",
          "type": "uint256"
        }
      ],
      "payable": false,
      "stateMutability": "view",
      "type": "function"
    },
    {
      "constant": true,
      "inputs": [],
      "name": "book",
      "outputs": [
        {
          "internalType": "address",
          "name": "",
          "type": "address"
        }
      ],
      "payable": false,
      "stateMutability": "view",
      "type": "function"
    },
    {
      "constant": true,
      "inputs": [
        {
          "internalType": "uint256",
          "name": "tokenId",
          "type": "uint256"
        }
      ],
      "name": "getApproved",
      "outputs": [
        {
          "internalType": "address",
          "name": "",
          "type": "address"
        }
      ],
      "payable": false,
      "stateMutability": "view",
      "type": "function"
    },
    {
      "constant": true,
      "inputs": [
        {
          "internalType": "address",
          "name": "owner",
          "type": "address"
        },
        {
          "internalType": "address",
          "name": "operator",
          "type": "address"
        }
      ],
      "name": "isApprovedForAll",
      "outputs": [
        {
          "internalType": "bool",
          "name": "",
          "type": "bool"
        }
      ],
      "payable": false,
      "stateMutability": "view",
      "type": "function"
    },
    {
      "constant": true,
      "inputs": [],
      "name": "isBookSet",
      "outputs": [
        {
          "internalType": "bool",
          "name": "",
          "type": "bool"
        }
      ],
      "payable": false,
      "stateMutability": "view",
      "type": "function"
    },
    {
      "constant": true,
      "inputs": [
        {
          "internalType": "uint256",
          "name": "tokenId",
          "type": "uint256"
        }
      ],
      "name": "ownerOf",
      "outputs": [
        {
          "internalType": "address",
          "name": "",
          "type": "address"
        }
      ],
      "payable": false,
      "stateMutability": "view",
      "type": "function"
    },
    {
      "constant": true,
      "inputs": [],
      "name": "runtimeId",
      "outputs": [
        {
          "internalType": "bytes4",
          "name": "",
          "type": "bytes4"
        }
      ],
      "payable": false,
      "stateMutability": "pure",
      "type": "function"
    },
    {
      "constant": false,
      "inputs": [
        {
          "internalType": "address",
          "name": "from",
          "type": "address"
        },
        {
          "internalType": "address",
          "name": "to",
          "type": "address"
        },
        {
          "internalType": "uint256",
          "name": "tokenId",
          "type": "uint256"
        }
      ],
      "name": "safeTransferFrom",
      "outputs": [],
      "payable": false,
      "stateMutability": "nonpayable",
      "type": "function"
    },
    {
      "constant": false,
      "inputs": [
        {
          "internalType": "address",
          "name": "from",
          "type": "address"
        },
        {
          "internalType": "address",
          "name": "to",
          "type": "address"
        },
        {
          "internalType": "uint256",
          "name": "tokenId",
          "type": "uint256"
        },
        {
          "internalType": "bytes",
          "name": "_data",
          "type": "bytes"
        }
      ],
      "name": "safeTransferFromWithData",
      "outputs": [],
      "payable": false,
      "stateMutability": "nonpayable",
      "type": "function"
    },
    {
      "constant": false,
      "inputs": [
        {
          "internalType": "address",
          "name": "to",
          "type": "address"
        },
        {
          "internalType": "bool",
          "name": "approved",
          "type": "bool"
        }
      ],
      "name": "setApprovalForAll",
      "outputs": [],
      "payable": false,
      "stateMutability": "nonpayable",
      "type": "function"
    },
    {
      "constant": true,
      "inputs": [
        {
          "internalType": "bytes4",
          "name": "interfaceId",
          "type": "bytes4"
        }
      ],
      "name": "supportsInterface",
      "outputs": [
        {
          "internalType": "bool",
          "name": "",
          "type": "bool"
        }
      ],
      "payable": false,
      "stateMutability": "view",
      "type": "function"
    },
    {
      "constant": false,
      "inputs": [
        {
          "internalType": "address",
          "name": "from",
          "type": "address"
        },
        {
          "internalType": "address",
          "name": "to",
          "type": "address"
        },
        {
          "internalType": "uint256",
          "name": "tokenId",
          "type": "uint256"
        }
      ],
      "name": "transferFrom",
      "outputs": [],
      "payable": false,
      "stateMutability": "nonpayable",
      "type": "function"
    },
    {
      "constant": false,
      "inputs": [
        {
          "internalType": "address",
          "name": "_to",
          "type": "address"
        },
        {
          "internalType": "uint256",
          "name": "_tokenId",
          "type": "uint256"
        }
      ],
      "name": "mint",
      "outputs": [],
      "payable": false,
      "stateMutability": "nonpayable",
      "type": "function"
    },
    {
      "constant": false,
      "inputs": [
        {
          "internalType": "address",
          "name": "_book",
          "type": "address"
        }
      ],
      "name": "setBook",
      "outputs": [],
      "payable": false,
      "stateMutability": "nonpayable",
      "type": "function"
    }
  ],
  "bytecode": "0x60806040526100156001600160e01b0361006016565b6005805463ffffffff191660e09290921c9190911760ff60c01b191690556100436301ffc9a760e01b61006b565b60055461005b9060e01b6001600160e01b0361006b16565b6100a7565b635880016160e01b90565b6001600160e01b0319808216141561008257600080fd5b6001600160e01b0319166000908152602081905260409020805460ff19166001179055565b610c21806100b66000396000f3fe608060405234801561001057600080fd5b50600436106100f55760003560e01c806342842e0e1161009757806370a082311161006657806370a082311461036a578063a22cb465146103a2578063ae3393c4146103d0578063e985e9c5146103d8576100f5565b806342842e0e1461022c5780635e2ec2581461026257806360a11672146102875780636352211e1461034d576100f5565b8063095ea7b3116100d3578063095ea7b31461017657806323b872dd146101a4578063269fb70a146101da57806340c10f1914610200576100f5565b806301ffc9a7146100fa57806305a8da7214610135578063081812fc14610159575b600080fd5b6101216004803603602081101561011057600080fd5b50356001600160e01b031916610406565b604080519115158252519081900360200190f35b61013d610425565b604080516001600160a01b039092168252519081900360200190f35b61013d6004803603602081101561016f57600080fd5b503561043c565b6101a26004803603604081101561018c57600080fd5b506001600160a01b03813516906020013561046c565b005b6101a2600480360360608110156101ba57600080fd5b506001600160a01b03813581169160208101359091169060400135610519565b6101a2600480360360208110156101f057600080fd5b50356001600160a01b031661053c565b6101a26004803603604081101561021657600080fd5b506001600160a01b03813516906020013561061e565b6101a26004803603606081101561024257600080fd5b506001600160a01b0381358116916020810135909116906040013561067d565b61026a610698565b604080516001600160e01b03199092168252519081900360200190f35b6101a26004803603608081101561029d57600080fd5b6001600160a01b038235811692602081013590911691604082013591908101906080810160608201356401000000008111156102d857600080fd5b8201836020820111156102ea57600080fd5b8035906020019184600183028401116401000000008311171561030c57600080fd5b91908080601f0160208091040260200160405190810160405280939291908181526020018383808284376000920191909152509295506106a3945050505050565b61013d6004803603602081101561036357600080fd5b50356106c9565b6103906004803603602081101561038057600080fd5b50356001600160a01b03166106f1565b60408051918252519081900360200190f35b6101a2600480360360408110156103b857600080fd5b506001600160a01b0381351690602001351515610727565b6101216107ab565b610121600480360360408110156103ee57600080fd5b506001600160a01b03813581169160200135166107bb565b6001600160e01b03191660009081526020819052604090205460ff1690565b60055464010000000090046001600160a01b031681565b6000610447826107e9565b61045057600080fd5b506000908152600260205260409020546001600160a01b031690565b6000610477826106c9565b9050806001600160a01b0316836001600160a01b0316141561049857600080fd5b336001600160a01b03821614806104b457506104b481336107bb565b6104bd57600080fd5b60008281526002602052604080822080546001600160a01b0319166001600160a01b0387811691821790925591518593918516917f8c5be1e5ebec7d5bd14f71427d1e84f3dd0314c0f7b2291e5b200ac8c7c3b92591a4505050565b6105233382610806565b61052c57600080fd5b610537838383610865565b505050565b600554600160c01b900460ff16156105855760405162461bcd60e51b815260040180806020018281038252602d815260200180610b96602d913960400191505060405180910390fd5b6001600160a01b0381166105e0576040805162461bcd60e51b815260206004820181905260248201527f54686520626f6f6b20616464726573732063616e6e6f7420626520656d707479604482015290519081900360640190fd5b600580546001600160a01b0390921664010000000002640100000000600160c01b031960ff60c01b19909316600160c01b1792909216919091179055565b60055464010000000090046001600160a01b0316331461066f5760405162461bcd60e51b815260040180806020018281038252602a815260200180610bc3602a913960400191505060405180910390fd5b6106798282610945565b5050565b610537838383604051806020016040528060008152506106a3565b635880016160e01b90565b6106ae848484610519565b6106ba848484846109e6565b6106c357600080fd5b50505050565b6000818152600160205260408120546001600160a01b0316806106eb57600080fd5b92915050565b60006001600160a01b03821661070657600080fd5b6001600160a01b03821660009081526003602052604090206106eb90610b19565b6001600160a01b03821633141561073d57600080fd5b3360008181526004602090815260408083206001600160a01b03871680855290835292819020805460ff1916861515908117909155815190815290519293927f17307eab39ab6107e8899845ad3d59bd9653f200f220920489ca2b5937696c31929181900390910190a35050565b600554600160c01b900460ff1681565b6001600160a01b03918216600090815260046020908152604080832093909416825291909152205460ff1690565b6000908152600160205260409020546001600160a01b0316151590565b600080610812836106c9565b9050806001600160a01b0316846001600160a01b0316148061084d5750836001600160a01b03166108428461043c565b6001600160a01b0316145b8061085d575061085d81856107bb565b949350505050565b826001600160a01b0316610878826106c9565b6001600160a01b03161461088b57600080fd5b6001600160a01b03821661089e57600080fd5b6108a781610b1d565b6001600160a01b03831660009081526003602052604090206108c890610b5a565b6001600160a01b03821660009081526003602052604090206108e990610b71565b60008181526001602052604080822080546001600160a01b0319166001600160a01b0386811691821790925591518493918716917fddf252ad1be2c89b69c2b068fc378daa952ba7f163c4a11628f55a4df523b3ef91a4505050565b6001600160a01b03821661095857600080fd5b610961816107e9565b1561096b57600080fd5b600081815260016020908152604080832080546001600160a01b0319166001600160a01b0387169081179091558352600390915290206109aa90610b71565b60405181906001600160a01b038416906000907fddf252ad1be2c89b69c2b068fc378daa952ba7f163c4a11628f55a4df523b3ef908290a45050565b60006109fa846001600160a01b0316610b7a565b610a065750600161085d565b604051630a85bd0160e11b815233600482018181526001600160a01b03888116602485015260448401879052608060648501908152865160848601528651600095928a169463150b7a029490938c938b938b939260a4019060208501908083838e5b83811015610a80578181015183820152602001610a68565b50505050905090810190601f168015610aad5780820380516001836020036101000a031916815260200191505b5095505050505050602060405180830381600087803b158015610acf57600080fd5b505af1158015610ae3573d6000803e3d6000fd5b505050506040513d6020811015610af957600080fd5b50516001600160e01b031916630a85bd0160e11b14915050949350505050565b5490565b6000818152600260205260409020546001600160a01b031615610b5757600081815260026020526040902080546001600160a01b03191690555b50565b8054610b6d90600163ffffffff610b8016565b9055565b80546001019055565b3b151590565b600082821115610b8f57600080fd5b5090039056fe5468652062757965722d73656c6c657220616464726573732063616e206f6e6c7920626520736574206f6e63654f6e6c792074686520426f6f6b20636f6e74726163742063616e206d696e74206e657720746f6b656e73a265627a7a72315820e2ccc304115301ff1896f76825ddce265bc86a8715a1f16bb7da3c6df730d24464736f6c63430005100032",
  "source": "pragma solidity ^0.5.0;\r\n\r\nimport \"./token.sol\";\r\n\r\ncontract BookToken is ERC721 {\r\n    address public book;\r\n    bool public isBookSet = false;\r\n\r\n    // To generate a new token for the specified address\r\n    //  _to The receiver of this new token\r\n    //  _tokenId The new token id, must be unique\r\n    function mint(address _to, uint256 _tokenId) public {\r\n        require(\r\n            msg.sender == book,\r\n            \"Only the Book contract can mint new tokens\"\r\n        );\r\n        _mint(_to, _tokenId);\r\n    }\r\n\r\n    // To set the book smart contract address\r\n    function setBook(address _book) public {\r\n        require(!isBookSet, \"The buyer-seller address can only be set once\");\r\n        require(_book != address(0), \"The book address cannot be empty\");\r\n        isBookSet = true;\r\n        book = _book;\r\n    }\r\n}\r\n",
  "sourcePath": "C:/Users/samee/OneDrive/Desktop/Blockchain-Buyer-Seller-Market-BC_Team_6/contracts/BookToken.sol",
  "compiler": {
    "name": "solc",
    "version": "0.5.16+commit.9c3226ce.Emscripten.clang"
  },
  "schemaVersion": "3.3.4",
  "updatedAt": "2021-03-30T04:21:18.214Z",
  "networkType": "ethereum",
  "devdoc": {
    "methods": {}
  },
  "userdoc": {
    "methods": {}
  }
}